{
  "_format": "hh-sol-artifact-1",
  "contractName": "Devapp",
  "sourceName": "contracts/DevappContract.sol",
  "abi": [
    {
      "inputs": [],
      "stateMutability": "nonpayable",
      "type": "constructor"
    },
    {
      "anonymous": false,
      "inputs": [
        {
          "indexed": false,
          "internalType": "uint256",
          "name": "timestamp",
          "type": "uint256"
        }
      ],
      "name": "Action",
      "type": "event"
    },
    {
      "anonymous": false,
      "inputs": [
        {
          "indexed": false,
          "internalType": "address",
          "name": "newAdmin",
          "type": "address"
        }
      ],
      "name": "AdminChanged",
      "type": "event"
    },
    {
      "anonymous": false,
      "inputs": [
        {
          "indexed": true,
          "internalType": "uint256",
          "name": "id",
          "type": "uint256"
        },
        {
          "indexed": false,
          "internalType": "string",
          "name": "age",
          "type": "string"
        },
        {
          "indexed": false,
          "internalType": "string",
          "name": "name",
          "type": "string"
        },
        {
          "indexed": false,
          "internalType": "string",
          "name": "image",
          "type": "string"
        },
        {
          "indexed": false,
          "internalType": "uint256",
          "name": "voteCount",
          "type": "uint256"
        },
        {
          "indexed": false,
          "internalType": "address",
          "name": "addr",
          "type": "address"
        },
        {
          "indexed": false,
          "internalType": "string",
          "name": "ipfs",
          "type": "string"
        }
      ],
      "name": "CandidateCreated",
      "type": "event"
    },
    {
      "anonymous": false,
      "inputs": [
        {
          "indexed": true,
          "internalType": "uint256",
          "name": "id",
          "type": "uint256"
        },
        {
          "indexed": false,
          "internalType": "string",
          "name": "name",
          "type": "string"
        },
        {
          "indexed": false,
          "internalType": "string",
          "name": "image",
          "type": "string"
        },
        {
          "indexed": false,
          "internalType": "address",
          "name": "addr",
          "type": "address"
        },
        {
          "indexed": false,
          "internalType": "uint256",
          "name": "voteCredits",
          "type": "uint256"
        },
        {
          "indexed": false,
          "internalType": "bool",
          "name": "voted",
          "type": "bool"
        },
        {
          "indexed": false,
          "internalType": "uint256",
          "name": "voteIndex",
          "type": "uint256"
        },
        {
          "indexed": false,
          "internalType": "string",
          "name": "ipfs",
          "type": "string"
        }
      ],
      "name": "VoterCreated",
      "type": "event"
    },
    {
      "inputs": [],
      "name": "authorizer",
      "outputs": [
        {
          "internalType": "address",
          "name": "",
          "type": "address"
        }
      ],
      "stateMutability": "view",
      "type": "function"
    },
    {
      "inputs": [
        {
          "internalType": "uint256",
          "name": "",
          "type": "uint256"
        }
      ],
      "name": "candidateAddresses",
      "outputs": [
        {
          "internalType": "address",
          "name": "",
          "type": "address"
        }
      ],
      "stateMutability": "view",
      "type": "function"
    },
    {
      "inputs": [
        {
          "internalType": "address",
          "name": "",
          "type": "address"
        }
      ],
      "name": "candidates",
      "outputs": [
        {
          "internalType": "uint256",
          "name": "id",
          "type": "uint256"
        },
        {
          "internalType": "string",
          "name": "age",
          "type": "string"
        },
        {
          "internalType": "string",
          "name": "name",
          "type": "string"
        },
        {
          "internalType": "string",
          "name": "image",
          "type": "string"
        },
        {
          "internalType": "uint256",
          "name": "voteCount",
          "type": "uint256"
        },
        {
          "internalType": "address",
          "name": "addr",
          "type": "address"
        },
        {
          "internalType": "string",
          "name": "ipfs",
          "type": "string"
        }
      ],
      "stateMutability": "view",
      "type": "function"
    },
    {
      "inputs": [
        {
          "internalType": "bool",
          "name": "",
          "type": "bool"
        }
      ],
      "name": "commenceElection",
      "outputs": [],
      "stateMutability": "nonpayable",
      "type": "function"
    },
    {
      "inputs": [
        {
          "internalType": "address",
          "name": "_addr",
          "type": "address"
        },
        {
          "internalType": "string",
          "name": "_name",
          "type": "string"
        },
        {
          "internalType": "string",
          "name": "_age",
          "type": "string"
        },
        {
          "internalType": "string",
          "name": "_image",
          "type": "string"
        },
        {
          "internalType": "string",
          "name": "_ipfs",
          "type": "string"
        }
      ],
      "name": "createCandidate",
      "outputs": [],
      "stateMutability": "nonpayable",
      "type": "function"
    },
    {
      "inputs": [
        {
          "internalType": "address",
          "name": "_addr",
          "type": "address"
        },
        {
          "internalType": "string",
          "name": "_name",
          "type": "string"
        },
        {
          "internalType": "string",
          "name": "_image",
          "type": "string"
        },
        {
          "internalType": "string",
          "name": "_ipfs",
          "type": "string"
        }
      ],
      "name": "createVoters",
      "outputs": [],
      "stateMutability": "nonpayable",
      "type": "function"
    },
    {
      "inputs": [
        {
          "internalType": "bool",
          "name": "",
          "type": "bool"
        }
      ],
      "name": "endElection",
      "outputs": [],
      "stateMutability": "nonpayable",
      "type": "function"
    },
    {
      "inputs": [],
      "name": "ended",
      "outputs": [
        {
          "internalType": "uint256",
          "name": "",
          "type": "uint256"
        }
      ],
      "stateMutability": "view",
      "type": "function"
    },
    {
      "inputs": [],
      "name": "fetchLeadingCandidate",
      "outputs": [
        {
          "internalType": "uint256",
          "name": "id",
          "type": "uint256"
        },
        {
          "internalType": "string",
          "name": "name",
          "type": "string"
        },
        {
          "internalType": "string",
          "name": "ipfs",
          "type": "string"
        }
      ],
      "stateMutability": "view",
      "type": "function"
    },
    {
      "inputs": [],
      "name": "fetchWinner",
      "outputs": [
        {
          "internalType": "uint256",
          "name": "id",
          "type": "uint256"
        },
        {
          "internalType": "string",
          "name": "name",
          "type": "string"
        },
        {
          "internalType": "string",
          "name": "ipfs",
          "type": "string"
        }
      ],
      "stateMutability": "view",
      "type": "function"
    },
    {
      "inputs": [],
      "name": "getCandidateAddress",
      "outputs": [
        {
          "internalType": "address[]",
          "name": "",
          "type": "address[]"
        }
      ],
      "stateMutability": "view",
      "type": "function"
    },
    {
      "inputs": [],
      "name": "getCandidateAddressesLength",
      "outputs": [
        {
          "internalType": "uint256",
          "name": "",
          "type": "uint256"
        }
      ],
      "stateMutability": "view",
      "type": "function"
    },
    {
      "inputs": [
        {
          "internalType": "address",
          "name": "_address",
          "type": "address"
        }
      ],
      "name": "getCandidateData",
      "outputs": [
        {
          "internalType": "string",
          "name": "",
          "type": "string"
        },
        {
          "internalType": "string",
          "name": "",
          "type": "string"
        },
        {
          "internalType": "uint256",
          "name": "",
          "type": "uint256"
        },
        {
          "internalType": "string",
          "name": "",
          "type": "string"
        },
        {
          "internalType": "uint256",
          "name": "",
          "type": "uint256"
        },
        {
          "internalType": "string",
          "name": "",
          "type": "string"
        },
        {
          "internalType": "address",
          "name": "",
          "type": "address"
        }
      ],
      "stateMutability": "view",
      "type": "function"
    },
    {
      "inputs": [
        {
          "internalType": "address",
          "name": "_addr",
          "type": "address"
        }
      ],
      "name": "getVoterDetails",
      "outputs": [
        {
          "internalType": "uint256",
          "name": "",
          "type": "uint256"
        },
        {
          "internalType": "string",
          "name": "",
          "type": "string"
        },
        {
          "internalType": "string",
          "name": "",
          "type": "string"
        },
        {
          "internalType": "address",
          "name": "",
          "type": "address"
        },
        {
          "internalType": "string",
          "name": "",
          "type": "string"
        },
        {
          "internalType": "uint256",
          "name": "",
          "type": "uint256"
        },
        {
          "internalType": "bool",
          "name": "",
          "type": "bool"
        }
      ],
      "stateMutability": "view",
      "type": "function"
    },
    {
      "inputs": [],
      "name": "getVotersLength",
      "outputs": [
        {
          "internalType": "uint256",
          "name": "",
          "type": "uint256"
        }
      ],
      "stateMutability": "view",
      "type": "function"
    },
    {
      "inputs": [],
      "name": "get_voter_list",
      "outputs": [
        {
          "internalType": "address[]",
          "name": "",
          "type": "address[]"
        }
      ],
      "stateMutability": "view",
      "type": "function"
    },
    {
      "inputs": [
        {
          "internalType": "address",
          "name": "",
          "type": "address"
        }
      ],
      "name": "hasVoted",
      "outputs": [
        {
          "internalType": "bool",
          "name": "",
          "type": "bool"
        }
      ],
      "stateMutability": "view",
      "type": "function"
    },
    {
      "inputs": [
        {
          "internalType": "bool",
          "name": "",
          "type": "bool"
        }
      ],
      "name": "resetElection",
      "outputs": [],
      "stateMutability": "nonpayable",
      "type": "function"
    },
    {
      "inputs": [],
      "name": "startTime",
      "outputs": [
        {
          "internalType": "uint256",
          "name": "",
          "type": "uint256"
        }
      ],
      "stateMutability": "view",
      "type": "function"
    },
    {
      "inputs": [],
      "name": "state",
      "outputs": [
        {
          "internalType": "enum Devapp.ElectionState",
          "name": "",
          "type": "uint8"
        }
      ],
      "stateMutability": "view",
      "type": "function"
    },
    {
      "inputs": [],
      "name": "totalVotes",
      "outputs": [
        {
          "internalType": "uint256",
          "name": "",
          "type": "uint256"
        }
      ],
      "stateMutability": "view",
      "type": "function"
    },
    {
      "inputs": [
        {
          "internalType": "address",
          "name": "newAddress",
          "type": "address"
        }
      ],
      "name": "transferOwnership",
      "outputs": [],
      "stateMutability": "nonpayable",
      "type": "function"
    },
    {
      "inputs": [],
      "name": "useAdminAddress",
      "outputs": [
        {
          "internalType": "bool",
          "name": "",
          "type": "bool"
        }
      ],
      "stateMutability": "view",
      "type": "function"
    },
    {
      "inputs": [
        {
          "internalType": "address",
          "name": "_candidateAddr",
          "type": "address"
        },
        {
          "internalType": "uint256",
          "name": "_candidateUniqueId",
          "type": "uint256"
        }
      ],
      "name": "voteBooth",
      "outputs": [],
      "stateMutability": "nonpayable",
      "type": "function"
    },
    {
      "inputs": [
        {
          "internalType": "uint256",
          "name": "",
          "type": "uint256"
        }
      ],
      "name": "voterAddresses",
      "outputs": [
        {
          "internalType": "address",
          "name": "",
          "type": "address"
        }
      ],
      "stateMutability": "view",
      "type": "function"
    },
    {
      "inputs": [
        {
          "internalType": "address",
          "name": "",
          "type": "address"
        }
      ],
      "name": "voters",
      "outputs": [
        {
          "internalType": "uint256",
          "name": "id",
          "type": "uint256"
        },
        {
          "internalType": "string",
          "name": "name",
          "type": "string"
        },
        {
          "internalType": "string",
          "name": "image",
          "type": "string"
        },
        {
          "internalType": "address",
          "name": "addr",
          "type": "address"
        },
        {
          "internalType": "uint256",
          "name": "voteCredits",
          "type": "uint256"
        },
        {
          "internalType": "bool",
          "name": "voted",
          "type": "bool"
        },
        {
          "internalType": "uint256",
          "name": "voteIndex",
          "type": "uint256"
        },
        {
          "internalType": "string",
          "name": "ipfs",
          "type": "string"
        }
      ],
      "stateMutability": "view",
      "type": "function"
    }
  ],
  "bytecode": "0x60806040526000600860006101000a81548160ff021916908360028111156200002d576200002c620000b5565b5b02179055503480156200003f57600080fd5b5033600260006101000a81548173ffffffffffffffffffffffffffffffffffffffff021916908373ffffffffffffffffffffffffffffffffffffffff1602179055506000600860006101000a81548160ff02191690836002811115620000aa57620000a9620000b5565b5b0217905550620000e4565b7f4e487b7100000000000000000000000000000000000000000000000000000000600052602160045260246000fd5b6145c080620000f46000396000f3fe608060405234801561001057600080fd5b506004361061018e5760003560e01c8063a3ec138d116100de578063d55d73c511610097578063e689a6c511610071578063e689a6c5146104b6578063f2fde38b146104d6578063f76413ff146104f2578063fc3f50781461050e5761018e565b8063d55d73c514610438578063dd0e237314610468578063de2237d3146104985761018e565b8063a3ec138d14610351578063b8417f0e14610388578063ba71bef0146103a6578063c19d93fb146103dc578063ca6c1dc2146103fa578063d09edf311461041a5761018e565b80632a466ac71161014b5780637657bec9116101255780637657bec9146102c357806378e97925146102df5780638ab66a90146102fd5780638ef0c4d2146103335761018e565b80632a466ac7146102555780635cf753a61461028b5780637203a7a5146102a75761018e565b806309eef43e146101935780630c84b4b8146101c35780630d15fd77146101df57806312fa6feb146101fd5780631923c3ef1461021b5780631988dec914610237575b600080fd5b6101ad60048036038101906101a89190613351565b61052c565b6040516101ba9190613399565b60405180910390f35b6101dd60048036038101906101d891906133e0565b61054c565b005b6101e7610687565b6040516101f49190613426565b60405180910390f35b61020561068d565b6040516102129190613426565b60405180910390f35b61023560048036038101906102309190613587565b610693565b005b61023f610a4b565b60405161024c9190613399565b60405180910390f35b61026f600480360381019061026a9190613351565b610aa3565b60405161028297969594939291906136d9565b60405180910390f35b6102a560048036038101906102a091906133e0565b610dec565b005b6102c160048036038101906102bc9190613790565b610f1f565b005b6102dd60048036038101906102d891906137d0565b6111d3565b005b6102e76115b1565b6040516102f49190613426565b60405180910390f35b61031760048036038101906103129190613351565b6115b7565b60405161032a97969594939291906138bb565b60405180910390f35b61033b611839565b6040516103489190613a04565b60405180910390f35b61036b60048036038101906103669190613351565b611927565b60405161037f989796959493929190613a26565b60405180910390f35b610390611b34565b60405161039d9190613426565b60405180910390f35b6103c060048036038101906103bb9190613351565b611b41565b6040516103d39796959493929190613ab9565b60405180910390f35b6103e4611f09565b6040516103f19190613bb4565b60405180910390f35b610402611f1c565b60405161041193929190613bcf565b60405180910390f35b610422612635565b60405161042f9190613c14565b60405180910390f35b610452600480360381019061044d9190613c2f565b61265b565b60405161045f9190613c14565b60405180910390f35b610482600480360381019061047d9190613c2f565b61269a565b60405161048f9190613c14565b60405180910390f35b6104a06126d9565b6040516104ad9190613426565b60405180910390f35b6104be6126e6565b6040516104cd93929190613bcf565b60405180910390f35b6104f060048036038101906104eb9190613351565b612dfe565b005b61050c600480360381019061050791906133e0565b612f79565b005b61051661312a565b6040516105239190613a04565b60405180910390f35b600b6020528060005260406000206000915054906101000a900460ff1681565b600260009054906101000a900473ffffffffffffffffffffffffffffffffffffffff1673ffffffffffffffffffffffffffffffffffffffff163373ffffffffffffffffffffffffffffffffffffffff16146105dc576040517f08c379a00000000000000000000000000000000000000000000000000000000081526004016105d390613cce565b60405180910390fd5b600160028111156105f0576105ef613b3d565b5b600860009054906101000a900460ff16600281111561061257610611613b3d565b5b14610652576040517f08c379a000000000000000000000000000000000000000000000000000000000815260040161064990613d3a565b60405180910390fd5b6002600860006101000a81548160ff0219169083600281111561067857610677613b3d565b5b02179055504260078190555050565b60055481565b60075481565b600260009054906101000a900473ffffffffffffffffffffffffffffffffffffffff1673ffffffffffffffffffffffffffffffffffffffff163373ffffffffffffffffffffffffffffffffffffffff1614610723576040517f08c379a000000000000000000000000000000000000000000000000000000000815260040161071a90613cce565b60405180910390fd5b6000600281111561073757610736613b3d565b5b600860009054906101000a900460ff16600281111561075957610758613b3d565b5b14610799576040517f08c379a000000000000000000000000000000000000000000000000000000000815260040161079090613da6565b60405180910390fd5b6002808111156107ac576107ab613b3d565b5b600860009054906101000a900460ff1660028111156107ce576107cd613b3d565b5b141561080f576040517f08c379a000000000000000000000000000000000000000000000000000000000815260040161080690613e12565b60405180910390fd5b6108196000613218565b6000610825600061322e565b90506000600a60008773ffffffffffffffffffffffffffffffffffffffff1673ffffffffffffffffffffffffffffffffffffffff168152602001908152602001600020905060008160040154146108b1576040517f08c379a00000000000000000000000000000000000000000000000000000000081526004016108a890613e7e565b60405180910390fd5b60018160040181905550848160010190805190602001906108d392919061323c565b50838160020190805190602001906108ec92919061323c565b50858160030160006101000a81548173ffffffffffffffffffffffffffffffffffffffff021916908373ffffffffffffffffffffffffffffffffffffffff160217905550818160000181905550633b9aca00816006018190555060008160050160006101000a81548160ff0219169083151502179055508281600701908051906020019061097b92919061323c565b506004869080600181540180825580915050600190039060005260206000200160009091909190916101000a81548173ffffffffffffffffffffffffffffffffffffffff021916908373ffffffffffffffffffffffffffffffffffffffff16021790555080600001547ff5f39971dd62d9929e3a9feaa6bb77fe7c7da0001babff8a65a7e51ad0201c1986868985600401548660050160009054906101000a900460ff16876006015488600701604051610a3b9796959493929190613f94565b60405180910390a2505050505050565b6000600260009054906101000a900473ffffffffffffffffffffffffffffffffffffffff1673ffffffffffffffffffffffffffffffffffffffff163373ffffffffffffffffffffffffffffffffffffffff1614905090565b6060806000606060006060600080600960008a73ffffffffffffffffffffffffffffffffffffffff1673ffffffffffffffffffffffffffffffffffffffff1681526020019081526020016000206040518060e001604052908160008201548152602001600182018054610b1590613ecd565b80601f0160208091040260200160405190810160405280929190818152602001828054610b4190613ecd565b8015610b8e5780601f10610b6357610100808354040283529160200191610b8e565b820191906000526020600020905b815481529060010190602001808311610b7157829003601f168201915b50505050508152602001600282018054610ba790613ecd565b80601f0160208091040260200160405190810160405280929190818152602001828054610bd390613ecd565b8015610c205780601f10610bf557610100808354040283529160200191610c20565b820191906000526020600020905b815481529060010190602001808311610c0357829003601f168201915b50505050508152602001600382018054610c3990613ecd565b80601f0160208091040260200160405190810160405280929190818152602001828054610c6590613ecd565b8015610cb25780601f10610c8757610100808354040283529160200191610cb2565b820191906000526020600020905b815481529060010190602001808311610c9557829003601f168201915b50505050508152602001600482015481526020016005820160009054906101000a900473ffffffffffffffffffffffffffffffffffffffff1673ffffffffffffffffffffffffffffffffffffffff1673ffffffffffffffffffffffffffffffffffffffff168152602001600682018054610d2b90613ecd565b80601f0160208091040260200160405190810160405280929190818152602001828054610d5790613ecd565b8015610da45780601f10610d7957610100808354040283529160200191610da4565b820191906000526020600020905b815481529060010190602001808311610d8757829003601f168201915b5050505050815250509050806020015181604001518260000151836060015184608001518560c001518660a00151975097509750975097509750975050919395979092949650565b600260009054906101000a900473ffffffffffffffffffffffffffffffffffffffff1673ffffffffffffffffffffffffffffffffffffffff163373ffffffffffffffffffffffffffffffffffffffff1614610e7c576040517f08c379a0000000000000000000000000000000000000000000000000000000008152600401610e7390613cce565b60405180910390fd5b600280811115610e8f57610e8e613b3d565b5b600860009054906101000a900460ff166002811115610eb157610eb0613b3d565b5b14610ef1576040517f08c379a0000000000000000000000000000000000000000000000000000000008152600401610ee890614064565b60405180910390fd5b6000600860006101000a81548160ff02191690836002811115610f1757610f16613b3d565b5b021790555050565b60006002811115610f3357610f32613b3d565b5b600860009054906101000a900460ff166002811115610f5557610f54613b3d565b5b14610f95576040517f08c379a0000000000000000000000000000000000000000000000000000000008152600401610f8c90613da6565b60405180910390fd5b600280811115610fa857610fa7613b3d565b5b600860009054906101000a900460ff166002811115610fca57610fc9613b3d565b5b141561100b576040517f08c379a000000000000000000000000000000000000000000000000000000000815260040161100290613e12565b60405180910390fd5b6000600a60003373ffffffffffffffffffffffffffffffffffffffff1673ffffffffffffffffffffffffffffffffffffffff16815260200190815260200160002090508060050160009054906101000a900460ff16156110a0576040517f08c379a0000000000000000000000000000000000000000000000000000000008152600401611097906140d0565b60405180910390fd5b6000816004015414156110e8576040517f08c379a00000000000000000000000000000000000000000000000000000000081526004016110df90614162565b60405180910390fd5b60018160050160006101000a81548160ff0219169083151502179055508181600601819055506004339080600181540180825580915050600190039060005260206000200160009091909190916101000a81548173ffffffffffffffffffffffffffffffffffffffff021916908373ffffffffffffffffffffffffffffffffffffffff1602179055508060040154600960008573ffffffffffffffffffffffffffffffffffffffff1673ffffffffffffffffffffffffffffffffffffffff16815260200190815260200160002060040160008282546111c791906141b1565b92505081905550505050565b600260009054906101000a900473ffffffffffffffffffffffffffffffffffffffff1673ffffffffffffffffffffffffffffffffffffffff163373ffffffffffffffffffffffffffffffffffffffff1614611263576040517f08c379a000000000000000000000000000000000000000000000000000000000815260040161125a90613cce565b60405180910390fd5b6000600281111561127757611276613b3d565b5b600860009054906101000a900460ff16600281111561129957611298613b3d565b5b146112d9576040517f08c379a00000000000000000000000000000000000000000000000000000000081526004016112d090613da6565b60405180910390fd5b6002808111156112ec576112eb613b3d565b5b600860009054906101000a900460ff16600281111561130e5761130d613b3d565b5b141561134f576040517f08c379a000000000000000000000000000000000000000000000000000000000815260040161134690613e12565b60405180910390fd5b600073ffffffffffffffffffffffffffffffffffffffff168573ffffffffffffffffffffffffffffffffffffffff1614156113bf576040517f08c379a00000000000000000000000000000000000000000000000000000000081526004016113b690614253565b60405180910390fd5b6113c96001613218565b60006113d5600161322e565b90506000600960008873ffffffffffffffffffffffffffffffffffffffff1673ffffffffffffffffffffffffffffffffffffffff16815260200190815260200160002090508181600001819055508581600201908051906020019061143b92919061323c565b508481600101908051906020019061145492919061323c565b508381600301908051906020019061146d92919061323c565b5060008160040181905550868160050160006101000a81548173ffffffffffffffffffffffffffffffffffffffff021916908373ffffffffffffffffffffffffffffffffffffffff160217905550828160060190805190602001906114d392919061323c565b506003879080600181540180825580915050600190039060005260206000200160009091909190916101000a81548173ffffffffffffffffffffffffffffffffffffffff021916908373ffffffffffffffffffffffffffffffffffffffff16021790555080600001547f978d20e26392611c02bd1a6e72cc85fa19bd1024b23c12155f8183fbc90902e787878785600401548660050160009054906101000a900473ffffffffffffffffffffffffffffffffffffffff16876006016040516115a096959493929190614273565b60405180910390a250505050505050565b60065481565b60096020528060005260406000206000915090508060000154908060010180546115e090613ecd565b80601f016020809104026020016040519081016040528092919081815260200182805461160c90613ecd565b80156116595780601f1061162e57610100808354040283529160200191611659565b820191906000526020600020905b81548152906001019060200180831161163c57829003601f168201915b50505050509080600201805461166e90613ecd565b80601f016020809104026020016040519081016040528092919081815260200182805461169a90613ecd565b80156116e75780601f106116bc576101008083540402835291602001916116e7565b820191906000526020600020905b8154815290600101906020018083116116ca57829003601f168201915b5050505050908060030180546116fc90613ecd565b80601f016020809104026020016040519081016040528092919081815260200182805461172890613ecd565b80156117755780601f1061174a57610100808354040283529160200191611775565b820191906000526020600020905b81548152906001019060200180831161175857829003601f168201915b5050505050908060040154908060050160009054906101000a900473ffffffffffffffffffffffffffffffffffffffff16908060060180546117b690613ecd565b80601f01602080910402602001604051908101604052809291908181526020018280546117e290613ecd565b801561182f5780601f106118045761010080835404028352916020019161182f565b820191906000526020600020905b81548152906001019060200180831161181257829003601f168201915b5050505050905087565b60606000600480549050141561189a57600067ffffffffffffffff8111156118645761186361345c565b5b6040519080825280602002602001820160405280156118925781602001602082028036833780820191505090505b509050611924565b600480548060200260200160405190810160405280929190818152602001828054801561191c57602002820191906000526020600020905b8160009054906101000a900473ffffffffffffffffffffffffffffffffffffffff1673ffffffffffffffffffffffffffffffffffffffff16815260200190600101908083116118d2575b505050505090505b90565b600a60205280600052604060002060009150905080600001549080600101805461195090613ecd565b80601f016020809104026020016040519081016040528092919081815260200182805461197c90613ecd565b80156119c95780601f1061199e576101008083540402835291602001916119c9565b820191906000526020600020905b8154815290600101906020018083116119ac57829003601f168201915b5050505050908060020180546119de90613ecd565b80601f0160208091040260200160405190810160405280929190818152602001828054611a0a90613ecd565b8015611a575780601f10611a2c57610100808354040283529160200191611a57565b820191906000526020600020905b815481529060010190602001808311611a3a57829003601f168201915b5050505050908060030160009054906101000a900473ffffffffffffffffffffffffffffffffffffffff16908060040154908060050160009054906101000a900460ff1690806006015490806007018054611ab190613ecd565b80601f0160208091040260200160405190810160405280929190818152602001828054611add90613ecd565b8015611b2a5780601f10611aff57610100808354040283529160200191611b2a565b820191906000526020600020905b815481529060010190602001808311611b0d57829003601f168201915b5050505050905088565b6000600380549050905090565b600060608060006060600080600a60008973ffffffffffffffffffffffffffffffffffffffff1673ffffffffffffffffffffffffffffffffffffffff16815260200190815260200160002060000154600a60008a73ffffffffffffffffffffffffffffffffffffffff1673ffffffffffffffffffffffffffffffffffffffff168152602001908152602001600020600101600a60008b73ffffffffffffffffffffffffffffffffffffffff1673ffffffffffffffffffffffffffffffffffffffff168152602001908152602001600020600201600a60008c73ffffffffffffffffffffffffffffffffffffffff1673ffffffffffffffffffffffffffffffffffffffff16815260200190815260200160002060030160009054906101000a900473ffffffffffffffffffffffffffffffffffffffff16600a60008d73ffffffffffffffffffffffffffffffffffffffff1673ffffffffffffffffffffffffffffffffffffffff168152602001908152602001600020600701600a60008e73ffffffffffffffffffffffffffffffffffffffff1673ffffffffffffffffffffffffffffffffffffffff16815260200190815260200160002060040154600a60008f73ffffffffffffffffffffffffffffffffffffffff1673ffffffffffffffffffffffffffffffffffffffff16815260200190815260200160002060050160009054906101000a900460ff16858054611d5890613ecd565b80601f0160208091040260200160405190810160405280929190818152602001828054611d8490613ecd565b8015611dd15780601f10611da657610100808354040283529160200191611dd1565b820191906000526020600020905b815481529060010190602001808311611db457829003601f168201915b50505050509550848054611de490613ecd565b80601f0160208091040260200160405190810160405280929190818152602001828054611e1090613ecd565b8015611e5d5780601f10611e3257610100808354040283529160200191611e5d565b820191906000526020600020905b815481529060010190602001808311611e4057829003601f168201915b50505050509450828054611e7090613ecd565b80601f0160208091040260200160405190810160405280929190818152602001828054611e9c90613ecd565b8015611ee95780601f10611ebe57610100808354040283529160200191611ee9565b820191906000526020600020905b815481529060010190602001808311611ecc57829003601f168201915b505050505092509650965096509650965096509650919395979092949650565b600860009054906101000a900460ff1681565b600060608060016002811115611f3557611f34613b3d565b5b600860009054906101000a900460ff166002811115611f5757611f56613b3d565b5b14611f97576040517f08c379a0000000000000000000000000000000000000000000000000000000008152600401611f8e90614362565b60405180910390fd5b60008060005b6003805490508110156123175760006009600060038481548110611fc457611fc3614382565b5b9060005260206000200160009054906101000a900473ffffffffffffffffffffffffffffffffffffffff1673ffffffffffffffffffffffffffffffffffffffff1673ffffffffffffffffffffffffffffffffffffffff1681526020019081526020016000206040518060e00160405290816000820154815260200160018201805461204e90613ecd565b80601f016020809104026020016040519081016040528092919081815260200182805461207a90613ecd565b80156120c75780601f1061209c576101008083540402835291602001916120c7565b820191906000526020600020905b8154815290600101906020018083116120aa57829003601f168201915b505050505081526020016002820180546120e090613ecd565b80601f016020809104026020016040519081016040528092919081815260200182805461210c90613ecd565b80156121595780601f1061212e57610100808354040283529160200191612159565b820191906000526020600020905b81548152906001019060200180831161213c57829003601f168201915b5050505050815260200160038201805461217290613ecd565b80601f016020809104026020016040519081016040528092919081815260200182805461219e90613ecd565b80156121eb5780601f106121c0576101008083540402835291602001916121eb565b820191906000526020600020905b8154815290600101906020018083116121ce57829003601f168201915b50505050508152602001600482015481526020016005820160009054906101000a900473ffffffffffffffffffffffffffffffffffffffff1673ffffffffffffffffffffffffffffffffffffffff1673ffffffffffffffffffffffffffffffffffffffff16815260200160068201805461226490613ecd565b80601f016020809104026020016040519081016040528092919081815260200182805461229090613ecd565b80156122dd5780601f106122b2576101008083540402835291602001916122dd565b820191906000526020600020905b8154815290600101906020018083116122c057829003601f168201915b5050505050815250509050838160800151111561230357806080015193508060a0015192505b50808061230f906143b1565b915050611f9d565b506000600960008373ffffffffffffffffffffffffffffffffffffffff1673ffffffffffffffffffffffffffffffffffffffff1681526020019081526020016000206040518060e00160405290816000820154815260200160018201805461237e90613ecd565b80601f01602080910402602001604051908101604052809291908181526020018280546123aa90613ecd565b80156123f75780601f106123cc576101008083540402835291602001916123f7565b820191906000526020600020905b8154815290600101906020018083116123da57829003601f168201915b5050505050815260200160028201805461241090613ecd565b80601f016020809104026020016040519081016040528092919081815260200182805461243c90613ecd565b80156124895780601f1061245e57610100808354040283529160200191612489565b820191906000526020600020905b81548152906001019060200180831161246c57829003601f168201915b505050505081526020016003820180546124a290613ecd565b80601f01602080910402602001604051908101604052809291908181526020018280546124ce90613ecd565b801561251b5780601f106124f05761010080835404028352916020019161251b565b820191906000526020600020905b8154815290600101906020018083116124fe57829003601f168201915b50505050508152602001600482015481526020016005820160009054906101000a900473ffffffffffffffffffffffffffffffffffffffff1673ffffffffffffffffffffffffffffffffffffffff1673ffffffffffffffffffffffffffffffffffffffff16815260200160068201805461259490613ecd565b80601f01602080910402602001604051908101604052809291908181526020018280546125c090613ecd565b801561260d5780601f106125e25761010080835404028352916020019161260d565b820191906000526020600020905b8154815290600101906020018083116125f057829003601f168201915b5050505050815250509050806000015181604001518260c00151955095509550505050909192565b600260009054906101000a900473ffffffffffffffffffffffffffffffffffffffff1681565b6003818154811061266b57600080fd5b906000526020600020016000915054906101000a900473ffffffffffffffffffffffffffffffffffffffff1681565b600481815481106126aa57600080fd5b906000526020600020016000915054906101000a900473ffffffffffffffffffffffffffffffffffffffff1681565b6000600480549050905090565b60006060806002808111156126fe576126fd613b3d565b5b600860009054906101000a900460ff1660028111156127205761271f613b3d565b5b14612760576040517f08c379a00000000000000000000000000000000000000000000000000000000081526004016127579061446c565b60405180910390fd5b60008060005b600380549050811015612ae0576000600960006003848154811061278d5761278c614382565b5b9060005260206000200160009054906101000a900473ffffffffffffffffffffffffffffffffffffffff1673ffffffffffffffffffffffffffffffffffffffff1673ffffffffffffffffffffffffffffffffffffffff1681526020019081526020016000206040518060e00160405290816000820154815260200160018201805461281790613ecd565b80601f016020809104026020016040519081016040528092919081815260200182805461284390613ecd565b80156128905780601f1061286557610100808354040283529160200191612890565b820191906000526020600020905b81548152906001019060200180831161287357829003601f168201915b505050505081526020016002820180546128a990613ecd565b80601f01602080910402602001604051908101604052809291908181526020018280546128d590613ecd565b80156129225780601f106128f757610100808354040283529160200191612922565b820191906000526020600020905b81548152906001019060200180831161290557829003601f168201915b5050505050815260200160038201805461293b90613ecd565b80601f016020809104026020016040519081016040528092919081815260200182805461296790613ecd565b80156129b45780601f10612989576101008083540402835291602001916129b4565b820191906000526020600020905b81548152906001019060200180831161299757829003601f168201915b50505050508152602001600482015481526020016005820160009054906101000a900473ffffffffffffffffffffffffffffffffffffffff1673ffffffffffffffffffffffffffffffffffffffff1673ffffffffffffffffffffffffffffffffffffffff168152602001600682018054612a2d90613ecd565b80601f0160208091040260200160405190810160405280929190818152602001828054612a5990613ecd565b8015612aa65780601f10612a7b57610100808354040283529160200191612aa6565b820191906000526020600020905b815481529060010190602001808311612a8957829003601f168201915b50505050508152505090508381608001511115612acc57806080015193508060a0015192505b508080612ad8906143b1565b915050612766565b506000600960008373ffffffffffffffffffffffffffffffffffffffff1673ffffffffffffffffffffffffffffffffffffffff1681526020019081526020016000206040518060e001604052908160008201548152602001600182018054612b4790613ecd565b80601f0160208091040260200160405190810160405280929190818152602001828054612b7390613ecd565b8015612bc05780601f10612b9557610100808354040283529160200191612bc0565b820191906000526020600020905b815481529060010190602001808311612ba357829003601f168201915b50505050508152602001600282018054612bd990613ecd565b80601f0160208091040260200160405190810160405280929190818152602001828054612c0590613ecd565b8015612c525780601f10612c2757610100808354040283529160200191612c52565b820191906000526020600020905b815481529060010190602001808311612c3557829003601f168201915b50505050508152602001600382018054612c6b90613ecd565b80601f0160208091040260200160405190810160405280929190818152602001828054612c9790613ecd565b8015612ce45780601f10612cb957610100808354040283529160200191612ce4565b820191906000526020600020905b815481529060010190602001808311612cc757829003601f168201915b50505050508152602001600482015481526020016005820160009054906101000a900473ffffffffffffffffffffffffffffffffffffffff1673ffffffffffffffffffffffffffffffffffffffff1673ffffffffffffffffffffffffffffffffffffffff168152602001600682018054612d5d90613ecd565b80601f0160208091040260200160405190810160405280929190818152602001828054612d8990613ecd565b8015612dd65780601f10612dab57610100808354040283529160200191612dd6565b820191906000526020600020905b815481529060010190602001808311612db957829003601f168201915b5050505050815250509050806000015181604001518260c00151955095509550505050909192565b3373ffffffffffffffffffffffffffffffffffffffff16600260009054906101000a900473ffffffffffffffffffffffffffffffffffffffff1673ffffffffffffffffffffffffffffffffffffffff1614612e8e576040517f08c379a0000000000000000000000000000000000000000000000000000000008152600401612e85906144fe565b60405180910390fd5b600073ffffffffffffffffffffffffffffffffffffffff168173ffffffffffffffffffffffffffffffffffffffff161415612efe576040517f08c379a0000000000000000000000000000000000000000000000000000000008152600401612ef59061456a565b60405180910390fd5b80600260006101000a81548173ffffffffffffffffffffffffffffffffffffffff021916908373ffffffffffffffffffffffffffffffffffffffff1602179055507f7ce7ec0b50378fb6c0186ffb5f48325f6593fcb4ca4386f21861af3129188f5c81604051612f6e9190613c14565b60405180910390a150565b600260009054906101000a900473ffffffffffffffffffffffffffffffffffffffff1673ffffffffffffffffffffffffffffffffffffffff163373ffffffffffffffffffffffffffffffffffffffff1614613009576040517f08c379a000000000000000000000000000000000000000000000000000000000815260040161300090613cce565b60405180910390fd5b6000600281111561301d5761301c613b3d565b5b600860009054906101000a900460ff16600281111561303f5761303e613b3d565b5b1461307f576040517f08c379a000000000000000000000000000000000000000000000000000000000815260040161307690613da6565b60405180910390fd5b60028081111561309257613091613b3d565b5b600860009054906101000a900460ff1660028111156130b4576130b3613b3d565b5b14156130f5576040517f08c379a00000000000000000000000000000000000000000000000000000000081526004016130ec90613e12565b60405180910390fd5b6001600860006101000a81548160ff0219169083600281111561311b5761311a613b3d565b5b02179055504260068190555050565b60606000600380549050141561318b57600067ffffffffffffffff8111156131555761315461345c565b5b6040519080825280602002602001820160405280156131835781602001602082028036833780820191505090505b509050613215565b600380548060200260200160405190810160405280929190818152602001828054801561320d57602002820191906000526020600020905b8160009054906101000a900473ffffffffffffffffffffffffffffffffffffffff1673ffffffffffffffffffffffffffffffffffffffff16815260200190600101908083116131c3575b505050505090505b90565b6001816000016000828254019250508190555050565b600081600001549050919050565b82805461324890613ecd565b90600052602060002090601f01602090048101928261326a57600085556132b1565b82601f1061328357805160ff19168380011785556132b1565b828001600101855582156132b1579182015b828111156132b0578251825591602001919060010190613295565b5b5090506132be91906132c2565b5090565b5b808211156132db5760008160009055506001016132c3565b5090565b6000604051905090565b600080fd5b600080fd5b600073ffffffffffffffffffffffffffffffffffffffff82169050919050565b600061331e826132f3565b9050919050565b61332e81613313565b811461333957600080fd5b50565b60008135905061334b81613325565b92915050565b600060208284031215613367576133666132e9565b5b60006133758482850161333c565b91505092915050565b60008115159050919050565b6133938161337e565b82525050565b60006020820190506133ae600083018461338a565b92915050565b6133bd8161337e565b81146133c857600080fd5b50565b6000813590506133da816133b4565b92915050565b6000602082840312156133f6576133f56132e9565b5b6000613404848285016133cb565b91505092915050565b6000819050919050565b6134208161340d565b82525050565b600060208201905061343b6000830184613417565b92915050565b600080fd5b600080fd5b6000601f19601f8301169050919050565b7f4e487b7100000000000000000000000000000000000000000000000000000000600052604160045260246000fd5b6134948261344b565b810181811067ffffffffffffffff821117156134b3576134b261345c565b5b80604052505050565b60006134c66132df565b90506134d2828261348b565b919050565b600067ffffffffffffffff8211156134f2576134f161345c565b5b6134fb8261344b565b9050602081019050919050565b82818337600083830152505050565b600061352a613525846134d7565b6134bc565b90508281526020810184848401111561354657613545613446565b5b613551848285613508565b509392505050565b600082601f83011261356e5761356d613441565b5b813561357e848260208601613517565b91505092915050565b600080600080608085870312156135a1576135a06132e9565b5b60006135af8782880161333c565b945050602085013567ffffffffffffffff8111156135d0576135cf6132ee565b5b6135dc87828801613559565b935050604085013567ffffffffffffffff8111156135fd576135fc6132ee565b5b61360987828801613559565b925050606085013567ffffffffffffffff81111561362a576136296132ee565b5b61363687828801613559565b91505092959194509250565b600081519050919050565b600082825260208201905092915050565b60005b8381101561367c578082015181840152602081019050613661565b8381111561368b576000848401525b50505050565b600061369c82613642565b6136a6818561364d565b93506136b681856020860161365e565b6136bf8161344b565b840191505092915050565b6136d381613313565b82525050565b600060e08201905081810360008301526136f3818a613691565b905081810360208301526137078189613691565b90506137166040830188613417565b81810360608301526137288187613691565b90506137376080830186613417565b81810360a08301526137498185613691565b905061375860c08301846136ca565b98975050505050505050565b61376d8161340d565b811461377857600080fd5b50565b60008135905061378a81613764565b92915050565b600080604083850312156137a7576137a66132e9565b5b60006137b58582860161333c565b92505060206137c68582860161377b565b9150509250929050565b600080600080600060a086880312156137ec576137eb6132e9565b5b60006137fa8882890161333c565b955050602086013567ffffffffffffffff81111561381b5761381a6132ee565b5b61382788828901613559565b945050604086013567ffffffffffffffff811115613848576138476132ee565b5b61385488828901613559565b935050606086013567ffffffffffffffff811115613875576138746132ee565b5b61388188828901613559565b925050608086013567ffffffffffffffff8111156138a2576138a16132ee565b5b6138ae88828901613559565b9150509295509295909350565b600060e0820190506138d0600083018a613417565b81810360208301526138e28189613691565b905081810360408301526138f68188613691565b9050818103606083015261390a8187613691565b90506139196080830186613417565b61392660a08301856136ca565b81810360c08301526139388184613691565b905098975050505050505050565b600081519050919050565b600082825260208201905092915050565b6000819050602082019050919050565b61397b81613313565b82525050565b600061398d8383613972565b60208301905092915050565b6000602082019050919050565b60006139b182613946565b6139bb8185613951565b93506139c683613962565b8060005b838110156139f75781516139de8882613981565b97506139e983613999565b9250506001810190506139ca565b5085935050505092915050565b60006020820190508181036000830152613a1e81846139a6565b905092915050565b600061010082019050613a3c600083018b613417565b8181036020830152613a4e818a613691565b90508181036040830152613a628189613691565b9050613a7160608301886136ca565b613a7e6080830187613417565b613a8b60a083018661338a565b613a9860c0830185613417565b81810360e0830152613aaa8184613691565b90509998505050505050505050565b600060e082019050613ace600083018a613417565b8181036020830152613ae08189613691565b90508181036040830152613af48188613691565b9050613b0360608301876136ca565b8181036080830152613b158186613691565b9050613b2460a0830185613417565b613b3160c083018461338a565b98975050505050505050565b7f4e487b7100000000000000000000000000000000000000000000000000000000600052602160045260246000fd5b60038110613b7d57613b7c613b3d565b5b50565b6000819050613b8e82613b6c565b919050565b6000613b9e82613b80565b9050919050565b613bae81613b93565b82525050565b6000602082019050613bc96000830184613ba5565b92915050565b6000606082019050613be46000830186613417565b8181036020830152613bf68185613691565b90508181036040830152613c0a8184613691565b9050949350505050565b6000602082019050613c2960008301846136ca565b92915050565b600060208284031215613c4557613c446132e9565b5b6000613c538482850161377b565b91505092915050565b7f4f6e6c792074686520636f6e747261637420617574686f72697a65722063616e60008201527f2063616c6c20746869732066756e6374696f6e2e000000000000000000000000602082015250565b6000613cb860348361364d565b9150613cc382613c5c565b604082019050919050565b60006020820190508181036000830152613ce781613cab565b9050919050565b7f456c656374696f6e20686173206e6f7420737461727465642100000000000000600082015250565b6000613d2460198361364d565b9150613d2f82613cee565b602082019050919050565b60006020820190508181036000830152613d5381613d17565b9050919050565b7f456c656374696f6e2068617320616c726561647920737461727465642e000000600082015250565b6000613d90601d8361364d565b9150613d9b82613d5a565b602082019050919050565b60006020820190508181036000830152613dbf81613d83565b9050919050565b7f456c656374696f6e2068617320616c726561647920656e646564000000000000600082015250565b6000613dfc601a8361364d565b9150613e0782613dc6565b602082019050919050565b60006020820190508181036000830152613e2b81613def565b9050919050565b7f54686973206163636f756e7420616c7265616479206578697374730000000000600082015250565b6000613e68601b8361364d565b9150613e7382613e32565b602082019050919050565b60006020820190508181036000830152613e9781613e5b565b9050919050565b7f4e487b7100000000000000000000000000000000000000000000000000000000600052602260045260246000fd5b60006002820490506001821680613ee557607f821691505b60208210811415613ef957613ef8613e9e565b5b50919050565b60008190508160005260206000209050919050565b60008154613f2181613ecd565b613f2b818661364d565b94506001821660008114613f465760018114613f5857613f8b565b60ff1983168652602086019350613f8b565b613f6185613eff565b60005b83811015613f8357815481890152600182019150602081019050613f64565b808801955050505b50505092915050565b600060e0820190508181036000830152613fae818a613691565b90508181036020830152613fc28189613691565b9050613fd160408301886136ca565b613fde6060830187613417565b613feb608083018661338a565b613ff860a0830185613417565b81810360c083015261400a8184613f14565b905098975050505050505050565b7f456c656374696f6e20686173206e6f7420656e6465642e000000000000000000600082015250565b600061404e60178361364d565b915061405982614018565b602082019050919050565b6000602082019050818103600083015261407d81614041565b9050919050565b7f596f752063616e277420766f74652074776963652e0000000000000000000000600082015250565b60006140ba60158361364d565b91506140c582614084565b602082019050919050565b600060208201905081810360008301526140e9816140ad565b9050919050565b7f596f7572206163636f756e742069736e27742072656769737465726564206f7260008201527f20617574686f72697a65642e0000000000000000000000000000000000000000602082015250565b600061414c602c8361364d565b9150614157826140f0565b604082019050919050565b6000602082019050818103600083015261417b8161413f565b9050919050565b7f4e487b7100000000000000000000000000000000000000000000000000000000600052601160045260246000fd5b60006141bc8261340d565b91506141c78361340d565b9250827fffffffffffffffffffffffffffffffffffffffffffffffffffffffffffffffff038211156141fc576141fb614182565b5b828201905092915050565b7f43616e64696461746520616464726573732063616e6e6f74206265207a65726f600082015250565b600061423d60208361364d565b915061424882614207565b602082019050919050565b6000602082019050818103600083015261426c81614230565b9050919050565b600060c082019050818103600083015261428d8189613691565b905081810360208301526142a18188613691565b905081810360408301526142b58187613691565b90506142c46060830186613417565b6142d160808301856136ca565b81810360a08301526142e38184613f14565b9050979650505050505050565b7f456c656374696f6e20686173206e6f742073746172746564206f72206861732060008201527f656e6465642e0000000000000000000000000000000000000000000000000000602082015250565b600061434c60268361364d565b9150614357826142f0565b604082019050919050565b6000602082019050818103600083015261437b8161433f565b9050919050565b7f4e487b7100000000000000000000000000000000000000000000000000000000600052603260045260246000fd5b60006143bc8261340d565b91507fffffffffffffffffffffffffffffffffffffffffffffffffffffffffffffffff8214156143ef576143ee614182565b5b600182019050919050565b7f506c656173652c20776169742074696c6c2074686520656e64206f662074686560008201527f20656c656374696f6e0000000000000000000000000000000000000000000000602082015250565b600061445660298361364d565b9150614461826143fa565b604082019050919050565b6000602082019050818103600083015261448581614449565b9050919050565b7f596f7520617265206e6f7420616c6c6f77656420746f20706572666f726d207460008201527f686973206f7065726174696f6e00000000000000000000000000000000000000602082015250565b60006144e8602d8361364d565b91506144f38261448c565b604082019050919050565b60006020820190508181036000830152614517816144db565b9050919050565b7f496e76616c696420416464726573730000000000000000000000000000000000600082015250565b6000614554600f8361364d565b915061455f8261451e565b602082019050919050565b6000602082019050818103600083015261458381614547565b905091905056fea2646970667358221220146ee84a4473ec842faaef8fc7bce3e879687a09c85d4849d22b19b5cfa4be4064736f6c63430008090033",
  "linkReferences": {},
  "deployedLinkReferences": {}
}