{
  "_format": "hh-sol-artifact-1",
  "contractName": "Devapp",
  "sourceName": "contracts/DevappContract.sol",
  "abi": [
    {
      "inputs": [],
      "stateMutability": "nonpayable",
      "type": "constructor"
    },
    {
      "anonymous": false,
      "inputs": [
        {
          "indexed": false,
          "internalType": "uint256",
          "name": "timestamp",
          "type": "uint256"
        }
      ],
      "name": "Action",
      "type": "event"
    },
    {
      "anonymous": false,
      "inputs": [
        {
          "indexed": true,
          "internalType": "uint256",
          "name": "id",
          "type": "uint256"
        },
        {
          "indexed": false,
          "internalType": "string",
          "name": "age",
          "type": "string"
        },
        {
          "indexed": false,
          "internalType": "string",
          "name": "name",
          "type": "string"
        },
        {
          "indexed": false,
          "internalType": "string",
          "name": "image",
          "type": "string"
        },
        {
          "indexed": false,
          "internalType": "uint256",
          "name": "voteCount",
          "type": "uint256"
        },
        {
          "indexed": false,
          "internalType": "address",
          "name": "addr",
          "type": "address"
        },
        {
          "indexed": false,
          "internalType": "string",
          "name": "ipfs",
          "type": "string"
        }
      ],
      "name": "CandidateCreated",
      "type": "event"
    },
    {
      "anonymous": false,
      "inputs": [
        {
          "indexed": true,
          "internalType": "uint256",
          "name": "id",
          "type": "uint256"
        },
        {
          "indexed": false,
          "internalType": "string",
          "name": "name",
          "type": "string"
        },
        {
          "indexed": false,
          "internalType": "string",
          "name": "image",
          "type": "string"
        },
        {
          "indexed": false,
          "internalType": "address",
          "name": "addr",
          "type": "address"
        },
        {
          "indexed": false,
          "internalType": "uint256",
          "name": "voteCredits",
          "type": "uint256"
        },
        {
          "indexed": false,
          "internalType": "bool",
          "name": "voted",
          "type": "bool"
        },
        {
          "indexed": false,
          "internalType": "uint256",
          "name": "voteIndex",
          "type": "uint256"
        },
        {
          "indexed": false,
          "internalType": "string",
          "name": "ipfs",
          "type": "string"
        }
      ],
      "name": "VoterCreated",
      "type": "event"
    },
    {
      "inputs": [],
      "name": "ELECTION_DURATION",
      "outputs": [
        {
          "internalType": "uint256",
          "name": "",
          "type": "uint256"
        }
      ],
      "stateMutability": "view",
      "type": "function"
    },
    {
      "inputs": [],
      "name": "authorizer",
      "outputs": [
        {
          "internalType": "address",
          "name": "",
          "type": "address"
        }
      ],
      "stateMutability": "view",
      "type": "function"
    },
    {
      "inputs": [
        {
          "internalType": "uint256",
          "name": "",
          "type": "uint256"
        }
      ],
      "name": "candidateAddresses",
      "outputs": [
        {
          "internalType": "address",
          "name": "",
          "type": "address"
        }
      ],
      "stateMutability": "view",
      "type": "function"
    },
    {
      "inputs": [
        {
          "internalType": "address",
          "name": "",
          "type": "address"
        }
      ],
      "name": "candidates",
      "outputs": [
        {
          "internalType": "uint256",
          "name": "id",
          "type": "uint256"
        },
        {
          "internalType": "string",
          "name": "age",
          "type": "string"
        },
        {
          "internalType": "string",
          "name": "name",
          "type": "string"
        },
        {
          "internalType": "string",
          "name": "image",
          "type": "string"
        },
        {
          "internalType": "uint256",
          "name": "voteCount",
          "type": "uint256"
        },
        {
          "internalType": "address",
          "name": "addr",
          "type": "address"
        },
        {
          "internalType": "string",
          "name": "ipfs",
          "type": "string"
        }
      ],
      "stateMutability": "view",
      "type": "function"
    },
    {
      "inputs": [
        {
          "internalType": "bool",
          "name": "",
          "type": "bool"
        }
      ],
      "name": "commenceElection",
      "outputs": [],
      "stateMutability": "nonpayable",
      "type": "function"
    },
    {
      "inputs": [
        {
          "internalType": "address",
          "name": "_addr",
          "type": "address"
        },
        {
          "internalType": "string",
          "name": "_name",
          "type": "string"
        },
        {
          "internalType": "string",
          "name": "_age",
          "type": "string"
        },
        {
          "internalType": "string",
          "name": "_image",
          "type": "string"
        },
        {
          "internalType": "string",
          "name": "_ipfs",
          "type": "string"
        }
      ],
      "name": "createCandidate",
      "outputs": [],
      "stateMutability": "nonpayable",
      "type": "function"
    },
    {
      "inputs": [
        {
          "internalType": "address",
          "name": "_addr",
          "type": "address"
        },
        {
          "internalType": "string",
          "name": "_name",
          "type": "string"
        },
        {
          "internalType": "string",
          "name": "_image",
          "type": "string"
        },
        {
          "internalType": "string",
          "name": "_ipfs",
          "type": "string"
        }
      ],
      "name": "createVoters",
      "outputs": [],
      "stateMutability": "nonpayable",
      "type": "function"
    },
    {
      "inputs": [],
      "name": "electionEnds",
      "outputs": [],
      "stateMutability": "nonpayable",
      "type": "function"
    },
    {
      "inputs": [],
      "name": "ended",
      "outputs": [
        {
          "internalType": "bool",
          "name": "",
          "type": "bool"
        }
      ],
      "stateMutability": "view",
      "type": "function"
    },
    {
      "inputs": [],
      "name": "getCandidateAddress",
      "outputs": [
        {
          "internalType": "address[]",
          "name": "",
          "type": "address[]"
        }
      ],
      "stateMutability": "view",
      "type": "function"
    },
    {
      "inputs": [],
      "name": "getCandidateAddressesLength",
      "outputs": [
        {
          "internalType": "uint256",
          "name": "",
          "type": "uint256"
        }
      ],
      "stateMutability": "view",
      "type": "function"
    },
    {
      "inputs": [
        {
          "internalType": "address",
          "name": "_address",
          "type": "address"
        }
      ],
      "name": "getCandidateData",
      "outputs": [
        {
          "internalType": "string",
          "name": "",
          "type": "string"
        },
        {
          "internalType": "string",
          "name": "",
          "type": "string"
        },
        {
          "internalType": "uint256",
          "name": "",
          "type": "uint256"
        },
        {
          "internalType": "string",
          "name": "",
          "type": "string"
        },
        {
          "internalType": "uint256",
          "name": "",
          "type": "uint256"
        },
        {
          "internalType": "string",
          "name": "",
          "type": "string"
        },
        {
          "internalType": "address",
          "name": "",
          "type": "address"
        }
      ],
      "stateMutability": "view",
      "type": "function"
    },
    {
      "inputs": [
        {
          "internalType": "address",
          "name": "_addr",
          "type": "address"
        }
      ],
      "name": "getVoterDetails",
      "outputs": [
        {
          "internalType": "uint256",
          "name": "",
          "type": "uint256"
        },
        {
          "internalType": "string",
          "name": "",
          "type": "string"
        },
        {
          "internalType": "string",
          "name": "",
          "type": "string"
        },
        {
          "internalType": "address",
          "name": "",
          "type": "address"
        },
        {
          "internalType": "string",
          "name": "",
          "type": "string"
        },
        {
          "internalType": "uint256",
          "name": "",
          "type": "uint256"
        },
        {
          "internalType": "bool",
          "name": "",
          "type": "bool"
        }
      ],
      "stateMutability": "view",
      "type": "function"
    },
    {
      "inputs": [],
      "name": "getVotersLength",
      "outputs": [
        {
          "internalType": "uint256",
          "name": "",
          "type": "uint256"
        }
      ],
      "stateMutability": "view",
      "type": "function"
    },
    {
      "inputs": [],
      "name": "get_voter_list",
      "outputs": [
        {
          "internalType": "address[]",
          "name": "",
          "type": "address[]"
        }
      ],
      "stateMutability": "view",
      "type": "function"
    },
    {
      "inputs": [
        {
          "internalType": "address",
          "name": "",
          "type": "address"
        }
      ],
      "name": "hasVoted",
      "outputs": [
        {
          "internalType": "bool",
          "name": "",
          "type": "bool"
        }
      ],
      "stateMutability": "view",
      "type": "function"
    },
    {
      "inputs": [],
      "name": "startTime",
      "outputs": [
        {
          "internalType": "uint256",
          "name": "",
          "type": "uint256"
        }
      ],
      "stateMutability": "view",
      "type": "function"
    },
    {
      "inputs": [],
      "name": "started",
      "outputs": [
        {
          "internalType": "bool",
          "name": "",
          "type": "bool"
        }
      ],
      "stateMutability": "view",
      "type": "function"
    },
    {
      "inputs": [],
      "name": "state",
      "outputs": [
        {
          "internalType": "enum Devapp.ElectionState",
          "name": "",
          "type": "uint8"
        }
      ],
      "stateMutability": "view",
      "type": "function"
    },
    {
      "inputs": [],
      "name": "totalVotes",
      "outputs": [
        {
          "internalType": "uint256",
          "name": "",
          "type": "uint256"
        }
      ],
      "stateMutability": "view",
      "type": "function"
    },
    {
      "inputs": [
        {
          "internalType": "address",
          "name": "_candidateAddr",
          "type": "address"
        },
        {
          "internalType": "uint256",
          "name": "_candidateUniqueId",
          "type": "uint256"
        }
      ],
      "name": "voteBooth",
      "outputs": [],
      "stateMutability": "nonpayable",
      "type": "function"
    },
    {
      "inputs": [
        {
          "internalType": "uint256",
          "name": "",
          "type": "uint256"
        }
      ],
      "name": "voterAddresses",
      "outputs": [
        {
          "internalType": "address",
          "name": "",
          "type": "address"
        }
      ],
      "stateMutability": "view",
      "type": "function"
    },
    {
      "inputs": [
        {
          "internalType": "address",
          "name": "",
          "type": "address"
        }
      ],
      "name": "voters",
      "outputs": [
        {
          "internalType": "uint256",
          "name": "id",
          "type": "uint256"
        },
        {
          "internalType": "string",
          "name": "name",
          "type": "string"
        },
        {
          "internalType": "string",
          "name": "image",
          "type": "string"
        },
        {
          "internalType": "address",
          "name": "addr",
          "type": "address"
        },
        {
          "internalType": "uint256",
          "name": "voteCredits",
          "type": "uint256"
        },
        {
          "internalType": "bool",
          "name": "voted",
          "type": "bool"
        },
        {
          "internalType": "uint256",
          "name": "voteIndex",
          "type": "uint256"
        },
        {
          "internalType": "string",
          "name": "ipfs",
          "type": "string"
        }
      ],
      "stateMutability": "view",
      "type": "function"
    }
  ],
  "bytecode": "0x60806040526000600760026101000a81548160ff021916908360028111156200002d576200002c620000b5565b5b02179055503480156200003f57600080fd5b5033600260006101000a81548173ffffffffffffffffffffffffffffffffffffffff021916908373ffffffffffffffffffffffffffffffffffffffff1602179055506000600760026101000a81548160ff02191690836002811115620000aa57620000a9620000b5565b5b0217905550620000e4565b7f4e487b7100000000000000000000000000000000000000000000000000000000600052602160045260246000fd5b612ffc80620000f46000396000f3fe608060405234801561001057600080fd5b506004361061014d5760003560e01c80638ef0c4d2116100c3578063d55d73c51161007c578063d55d73c5146103bd578063dd0e2373146103ed578063de2237d31461041d578063f76413ff1461043b578063fc3f507814610457578063fdebb490146104755761014d565b80638ef0c4d2146102d8578063a3ec138d146102f6578063b8417f0e1461032d578063ba71bef01461034b578063c19d93fb14610381578063d09edf311461039f5761014d565b80632a466ac7116101155780632a466ac7146101f85780635e8f17471461022e5780637203a7a51461024c5780637657bec91461026857806378e97925146102845780638ab66a90146102a25761014d565b806309eef43e146101525780630d15fd771461018257806312fa6feb146101a05780631923c3ef146101be5780631f2698ab146101da575b600080fd5b61016c60048036038101906101679190612110565b61047f565b6040516101799190612158565b60405180910390f35b61018a61049f565b604051610197919061218c565b60405180910390f35b6101a86104a5565b6040516101b59190612158565b60405180910390f35b6101d860048036038101906101d391906122ed565b6104b8565b005b6101e2610870565b6040516101ef9190612158565b60405180910390f35b610212600480360381019061020d9190612110565b610883565b604051610225979695949392919061243f565b60405180910390f35b610236610bcc565b604051610243919061218c565b60405180910390f35b610266600480360381019061026191906124f6565b610bd1565b005b610282600480360381019061027d9190612536565b610e85565b005b61028c611263565b604051610299919061218c565b60405180910390f35b6102bc60048036038101906102b79190612110565b611269565b6040516102cf9796959493929190612621565b60405180910390f35b6102e06114eb565b6040516102ed919061276a565b60405180910390f35b610310600480360381019061030b9190612110565b6115d9565b60405161032498979695949392919061278c565b60405180910390f35b6103356117e6565b604051610342919061218c565b60405180910390f35b61036560048036038101906103609190612110565b6117f3565b604051610378979695949392919061281f565b60405180910390f35b610389611bbb565b604051610396919061291a565b60405180910390f35b6103a7611bce565b6040516103b49190612935565b60405180910390f35b6103d760048036038101906103d29190612950565b611bf4565b6040516103e49190612935565b60405180910390f35b61040760048036038101906104029190612950565b611c33565b6040516104149190612935565b60405180910390f35b610425611c72565b604051610432919061218c565b60405180910390f35b610455600480360381019061045091906129a9565b611c7f565b005b61045f611e30565b60405161046c919061276a565b60405180910390f35b61047d611f1e565b005b600a6020528060005260406000206000915054906101000a900460ff1681565b60055481565b600760009054906101000a900460ff1681565b600260009054906101000a900473ffffffffffffffffffffffffffffffffffffffff1673ffffffffffffffffffffffffffffffffffffffff163373ffffffffffffffffffffffffffffffffffffffff1614610548576040517f08c379a000000000000000000000000000000000000000000000000000000000815260040161053f90612a48565b60405180910390fd5b6000600281111561055c5761055b6128a3565b5b600760029054906101000a900460ff16600281111561057e5761057d6128a3565b5b146105be576040517f08c379a00000000000000000000000000000000000000000000000000000000081526004016105b590612ab4565b60405180910390fd5b6002808111156105d1576105d06128a3565b5b600760029054906101000a900460ff1660028111156105f3576105f26128a3565b5b1415610634576040517f08c379a000000000000000000000000000000000000000000000000000000000815260040161062b90612b20565b60405180910390fd5b61063e6000611fd7565b600061064a6000611fed565b90506000600960008773ffffffffffffffffffffffffffffffffffffffff1673ffffffffffffffffffffffffffffffffffffffff168152602001908152602001600020905060008160040154146106d6576040517f08c379a00000000000000000000000000000000000000000000000000000000081526004016106cd90612b8c565b60405180910390fd5b60018160040181905550848160010190805190602001906106f8929190611ffb565b5083816002019080519060200190610711929190611ffb565b50858160030160006101000a81548173ffffffffffffffffffffffffffffffffffffffff021916908373ffffffffffffffffffffffffffffffffffffffff160217905550818160000181905550633b9aca00816006018190555060008160050160006101000a81548160ff021916908315150217905550828160070190805190602001906107a0929190611ffb565b506004869080600181540180825580915050600190039060005260206000200160009091909190916101000a81548173ffffffffffffffffffffffffffffffffffffffff021916908373ffffffffffffffffffffffffffffffffffffffff16021790555080600001547ff5f39971dd62d9929e3a9feaa6bb77fe7c7da0001babff8a65a7e51ad0201c1986868985600401548660050160009054906101000a900460ff168760060154886007016040516108609796959493929190612ca2565b60405180910390a2505050505050565b600760019054906101000a900460ff1681565b6060806000606060006060600080600860008a73ffffffffffffffffffffffffffffffffffffffff1673ffffffffffffffffffffffffffffffffffffffff1681526020019081526020016000206040518060e0016040529081600082015481526020016001820180546108f590612bdb565b80601f016020809104026020016040519081016040528092919081815260200182805461092190612bdb565b801561096e5780601f106109435761010080835404028352916020019161096e565b820191906000526020600020905b81548152906001019060200180831161095157829003601f168201915b5050505050815260200160028201805461098790612bdb565b80601f01602080910402602001604051908101604052809291908181526020018280546109b390612bdb565b8015610a005780601f106109d557610100808354040283529160200191610a00565b820191906000526020600020905b8154815290600101906020018083116109e357829003601f168201915b50505050508152602001600382018054610a1990612bdb565b80601f0160208091040260200160405190810160405280929190818152602001828054610a4590612bdb565b8015610a925780601f10610a6757610100808354040283529160200191610a92565b820191906000526020600020905b815481529060010190602001808311610a7557829003601f168201915b50505050508152602001600482015481526020016005820160009054906101000a900473ffffffffffffffffffffffffffffffffffffffff1673ffffffffffffffffffffffffffffffffffffffff1673ffffffffffffffffffffffffffffffffffffffff168152602001600682018054610b0b90612bdb565b80601f0160208091040260200160405190810160405280929190818152602001828054610b3790612bdb565b8015610b845780601f10610b5957610100808354040283529160200191610b84565b820191906000526020600020905b815481529060010190602001808311610b6757829003601f168201915b5050505050815250509050806020015181604001518260000151836060015184608001518560c001518660a00151975097509750975097509750975050919395979092949650565b607881565b60006002811115610be557610be46128a3565b5b600760029054906101000a900460ff166002811115610c0757610c066128a3565b5b14610c47576040517f08c379a0000000000000000000000000000000000000000000000000000000008152600401610c3e90612ab4565b60405180910390fd5b600280811115610c5a57610c596128a3565b5b600760029054906101000a900460ff166002811115610c7c57610c7b6128a3565b5b1415610cbd576040517f08c379a0000000000000000000000000000000000000000000000000000000008152600401610cb490612b20565b60405180910390fd5b6000600960003373ffffffffffffffffffffffffffffffffffffffff1673ffffffffffffffffffffffffffffffffffffffff16815260200190815260200160002090508060050160009054906101000a900460ff1615610d52576040517f08c379a0000000000000000000000000000000000000000000000000000000008152600401610d4990612d72565b60405180910390fd5b600081600401541415610d9a576040517f08c379a0000000000000000000000000000000000000000000000000000000008152600401610d9190612e04565b60405180910390fd5b60018160050160006101000a81548160ff0219169083151502179055508181600601819055506004339080600181540180825580915050600190039060005260206000200160009091909190916101000a81548173ffffffffffffffffffffffffffffffffffffffff021916908373ffffffffffffffffffffffffffffffffffffffff1602179055508060040154600860008573ffffffffffffffffffffffffffffffffffffffff1673ffffffffffffffffffffffffffffffffffffffff1681526020019081526020016000206004016000828254610e799190612e53565b92505081905550505050565b600260009054906101000a900473ffffffffffffffffffffffffffffffffffffffff1673ffffffffffffffffffffffffffffffffffffffff163373ffffffffffffffffffffffffffffffffffffffff1614610f15576040517f08c379a0000000000000000000000000000000000000000000000000000000008152600401610f0c90612a48565b60405180910390fd5b60006002811115610f2957610f286128a3565b5b600760029054906101000a900460ff166002811115610f4b57610f4a6128a3565b5b14610f8b576040517f08c379a0000000000000000000000000000000000000000000000000000000008152600401610f8290612ab4565b60405180910390fd5b600280811115610f9e57610f9d6128a3565b5b600760029054906101000a900460ff166002811115610fc057610fbf6128a3565b5b1415611001576040517f08c379a0000000000000000000000000000000000000000000000000000000008152600401610ff890612b20565b60405180910390fd5b600073ffffffffffffffffffffffffffffffffffffffff168573ffffffffffffffffffffffffffffffffffffffff161415611071576040517f08c379a000000000000000000000000000000000000000000000000000000000815260040161106890612ef5565b60405180910390fd5b61107b6001611fd7565b60006110876001611fed565b90506000600860008873ffffffffffffffffffffffffffffffffffffffff1673ffffffffffffffffffffffffffffffffffffffff1681526020019081526020016000209050818160000181905550858160020190805190602001906110ed929190611ffb565b5084816001019080519060200190611106929190611ffb565b508381600301908051906020019061111f929190611ffb565b5060008160040181905550868160050160006101000a81548173ffffffffffffffffffffffffffffffffffffffff021916908373ffffffffffffffffffffffffffffffffffffffff16021790555082816006019080519060200190611185929190611ffb565b506003879080600181540180825580915050600190039060005260206000200160009091909190916101000a81548173ffffffffffffffffffffffffffffffffffffffff021916908373ffffffffffffffffffffffffffffffffffffffff16021790555080600001547f978d20e26392611c02bd1a6e72cc85fa19bd1024b23c12155f8183fbc90902e787878785600401548660050160009054906101000a900473ffffffffffffffffffffffffffffffffffffffff168760060160405161125296959493929190612f15565b60405180910390a250505050505050565b60065481565b600860205280600052604060002060009150905080600001549080600101805461129290612bdb565b80601f01602080910402602001604051908101604052809291908181526020018280546112be90612bdb565b801561130b5780601f106112e05761010080835404028352916020019161130b565b820191906000526020600020905b8154815290600101906020018083116112ee57829003601f168201915b50505050509080600201805461132090612bdb565b80601f016020809104026020016040519081016040528092919081815260200182805461134c90612bdb565b80156113995780601f1061136e57610100808354040283529160200191611399565b820191906000526020600020905b81548152906001019060200180831161137c57829003601f168201915b5050505050908060030180546113ae90612bdb565b80601f01602080910402602001604051908101604052809291908181526020018280546113da90612bdb565b80156114275780601f106113fc57610100808354040283529160200191611427565b820191906000526020600020905b81548152906001019060200180831161140a57829003601f168201915b5050505050908060040154908060050160009054906101000a900473ffffffffffffffffffffffffffffffffffffffff169080600601805461146890612bdb565b80601f016020809104026020016040519081016040528092919081815260200182805461149490612bdb565b80156114e15780601f106114b6576101008083540402835291602001916114e1565b820191906000526020600020905b8154815290600101906020018083116114c457829003601f168201915b5050505050905087565b60606000600480549050141561154c57600067ffffffffffffffff811115611516576115156121c2565b5b6040519080825280602002602001820160405280156115445781602001602082028036833780820191505090505b5090506115d6565b60048054806020026020016040519081016040528092919081815260200182805480156115ce57602002820191906000526020600020905b8160009054906101000a900473ffffffffffffffffffffffffffffffffffffffff1673ffffffffffffffffffffffffffffffffffffffff1681526020019060010190808311611584575b505050505090505b90565b600960205280600052604060002060009150905080600001549080600101805461160290612bdb565b80601f016020809104026020016040519081016040528092919081815260200182805461162e90612bdb565b801561167b5780601f106116505761010080835404028352916020019161167b565b820191906000526020600020905b81548152906001019060200180831161165e57829003601f168201915b50505050509080600201805461169090612bdb565b80601f01602080910402602001604051908101604052809291908181526020018280546116bc90612bdb565b80156117095780601f106116de57610100808354040283529160200191611709565b820191906000526020600020905b8154815290600101906020018083116116ec57829003601f168201915b5050505050908060030160009054906101000a900473ffffffffffffffffffffffffffffffffffffffff16908060040154908060050160009054906101000a900460ff169080600601549080600701805461176390612bdb565b80601f016020809104026020016040519081016040528092919081815260200182805461178f90612bdb565b80156117dc5780601f106117b1576101008083540402835291602001916117dc565b820191906000526020600020905b8154815290600101906020018083116117bf57829003601f168201915b5050505050905088565b6000600380549050905090565b600060608060006060600080600960008973ffffffffffffffffffffffffffffffffffffffff1673ffffffffffffffffffffffffffffffffffffffff16815260200190815260200160002060000154600960008a73ffffffffffffffffffffffffffffffffffffffff1673ffffffffffffffffffffffffffffffffffffffff168152602001908152602001600020600101600960008b73ffffffffffffffffffffffffffffffffffffffff1673ffffffffffffffffffffffffffffffffffffffff168152602001908152602001600020600201600960008c73ffffffffffffffffffffffffffffffffffffffff1673ffffffffffffffffffffffffffffffffffffffff16815260200190815260200160002060030160009054906101000a900473ffffffffffffffffffffffffffffffffffffffff16600960008d73ffffffffffffffffffffffffffffffffffffffff1673ffffffffffffffffffffffffffffffffffffffff168152602001908152602001600020600701600960008e73ffffffffffffffffffffffffffffffffffffffff1673ffffffffffffffffffffffffffffffffffffffff16815260200190815260200160002060040154600960008f73ffffffffffffffffffffffffffffffffffffffff1673ffffffffffffffffffffffffffffffffffffffff16815260200190815260200160002060050160009054906101000a900460ff16858054611a0a90612bdb565b80601f0160208091040260200160405190810160405280929190818152602001828054611a3690612bdb565b8015611a835780601f10611a5857610100808354040283529160200191611a83565b820191906000526020600020905b815481529060010190602001808311611a6657829003601f168201915b50505050509550848054611a9690612bdb565b80601f0160208091040260200160405190810160405280929190818152602001828054611ac290612bdb565b8015611b0f5780601f10611ae457610100808354040283529160200191611b0f565b820191906000526020600020905b815481529060010190602001808311611af257829003601f168201915b50505050509450828054611b2290612bdb565b80601f0160208091040260200160405190810160405280929190818152602001828054611b4e90612bdb565b8015611b9b5780601f10611b7057610100808354040283529160200191611b9b565b820191906000526020600020905b815481529060010190602001808311611b7e57829003601f168201915b505050505092509650965096509650965096509650919395979092949650565b600760029054906101000a900460ff1681565b600260009054906101000a900473ffffffffffffffffffffffffffffffffffffffff1681565b60038181548110611c0457600080fd5b906000526020600020016000915054906101000a900473ffffffffffffffffffffffffffffffffffffffff1681565b60048181548110611c4357600080fd5b906000526020600020016000915054906101000a900473ffffffffffffffffffffffffffffffffffffffff1681565b6000600480549050905090565b600260009054906101000a900473ffffffffffffffffffffffffffffffffffffffff1673ffffffffffffffffffffffffffffffffffffffff163373ffffffffffffffffffffffffffffffffffffffff1614611d0f576040517f08c379a0000000000000000000000000000000000000000000000000000000008152600401611d0690612a48565b60405180910390fd5b60006002811115611d2357611d226128a3565b5b600760029054906101000a900460ff166002811115611d4557611d446128a3565b5b14611d85576040517f08c379a0000000000000000000000000000000000000000000000000000000008152600401611d7c90612ab4565b60405180910390fd5b600280811115611d9857611d976128a3565b5b600760029054906101000a900460ff166002811115611dba57611db96128a3565b5b1415611dfb576040517f08c379a0000000000000000000000000000000000000000000000000000000008152600401611df290612b20565b60405180910390fd5b6001600760026101000a81548160ff02191690836002811115611e2157611e206128a3565b5b02179055504260068190555050565b606060006003805490501415611e9157600067ffffffffffffffff811115611e5b57611e5a6121c2565b5b604051908082528060200260200182016040528015611e895781602001602082028036833780820191505090505b509050611f1b565b6003805480602002602001604051908101604052809291908181526020018280548015611f1357602002820191906000526020600020905b8160009054906101000a900473ffffffffffffffffffffffffffffffffffffffff1673ffffffffffffffffffffffffffffffffffffffff1681526020019060010190808311611ec9575b505050505090505b90565b60016002811115611f3257611f316128a3565b5b600760029054906101000a900460ff166002811115611f5457611f536128a3565b5b14611f5e57600080fd5b600060065442611f6e9190612f92565b90506078811115611f7e57600080fd5b6002600760026101000a81548160ff02191690836002811115611fa457611fa36128a3565b5b02179055506000600760026101000a81548160ff02191690836002811115611fcf57611fce6128a3565b5b021790555050565b6001816000016000828254019250508190555050565b600081600001549050919050565b82805461200790612bdb565b90600052602060002090601f0160209004810192826120295760008555612070565b82601f1061204257805160ff1916838001178555612070565b82800160010185558215612070579182015b8281111561206f578251825591602001919060010190612054565b5b50905061207d9190612081565b5090565b5b8082111561209a576000816000905550600101612082565b5090565b6000604051905090565b600080fd5b600080fd5b600073ffffffffffffffffffffffffffffffffffffffff82169050919050565b60006120dd826120b2565b9050919050565b6120ed816120d2565b81146120f857600080fd5b50565b60008135905061210a816120e4565b92915050565b600060208284031215612126576121256120a8565b5b6000612134848285016120fb565b91505092915050565b60008115159050919050565b6121528161213d565b82525050565b600060208201905061216d6000830184612149565b92915050565b6000819050919050565b61218681612173565b82525050565b60006020820190506121a1600083018461217d565b92915050565b600080fd5b600080fd5b6000601f19601f8301169050919050565b7f4e487b7100000000000000000000000000000000000000000000000000000000600052604160045260246000fd5b6121fa826121b1565b810181811067ffffffffffffffff82111715612219576122186121c2565b5b80604052505050565b600061222c61209e565b905061223882826121f1565b919050565b600067ffffffffffffffff821115612258576122576121c2565b5b612261826121b1565b9050602081019050919050565b82818337600083830152505050565b600061229061228b8461223d565b612222565b9050828152602081018484840111156122ac576122ab6121ac565b5b6122b784828561226e565b509392505050565b600082601f8301126122d4576122d36121a7565b5b81356122e484826020860161227d565b91505092915050565b60008060008060808587031215612307576123066120a8565b5b6000612315878288016120fb565b945050602085013567ffffffffffffffff811115612336576123356120ad565b5b612342878288016122bf565b935050604085013567ffffffffffffffff811115612363576123626120ad565b5b61236f878288016122bf565b925050606085013567ffffffffffffffff8111156123905761238f6120ad565b5b61239c878288016122bf565b91505092959194509250565b600081519050919050565b600082825260208201905092915050565b60005b838110156123e25780820151818401526020810190506123c7565b838111156123f1576000848401525b50505050565b6000612402826123a8565b61240c81856123b3565b935061241c8185602086016123c4565b612425816121b1565b840191505092915050565b612439816120d2565b82525050565b600060e0820190508181036000830152612459818a6123f7565b9050818103602083015261246d81896123f7565b905061247c604083018861217d565b818103606083015261248e81876123f7565b905061249d608083018661217d565b81810360a08301526124af81856123f7565b90506124be60c0830184612430565b98975050505050505050565b6124d381612173565b81146124de57600080fd5b50565b6000813590506124f0816124ca565b92915050565b6000806040838503121561250d5761250c6120a8565b5b600061251b858286016120fb565b925050602061252c858286016124e1565b9150509250929050565b600080600080600060a08688031215612552576125516120a8565b5b6000612560888289016120fb565b955050602086013567ffffffffffffffff811115612581576125806120ad565b5b61258d888289016122bf565b945050604086013567ffffffffffffffff8111156125ae576125ad6120ad565b5b6125ba888289016122bf565b935050606086013567ffffffffffffffff8111156125db576125da6120ad565b5b6125e7888289016122bf565b925050608086013567ffffffffffffffff811115612608576126076120ad565b5b612614888289016122bf565b9150509295509295909350565b600060e082019050612636600083018a61217d565b818103602083015261264881896123f7565b9050818103604083015261265c81886123f7565b9050818103606083015261267081876123f7565b905061267f608083018661217d565b61268c60a0830185612430565b81810360c083015261269e81846123f7565b905098975050505050505050565b600081519050919050565b600082825260208201905092915050565b6000819050602082019050919050565b6126e1816120d2565b82525050565b60006126f383836126d8565b60208301905092915050565b6000602082019050919050565b6000612717826126ac565b61272181856126b7565b935061272c836126c8565b8060005b8381101561275d57815161274488826126e7565b975061274f836126ff565b925050600181019050612730565b5085935050505092915050565b60006020820190508181036000830152612784818461270c565b905092915050565b6000610100820190506127a2600083018b61217d565b81810360208301526127b4818a6123f7565b905081810360408301526127c881896123f7565b90506127d76060830188612430565b6127e4608083018761217d565b6127f160a0830186612149565b6127fe60c083018561217d565b81810360e083015261281081846123f7565b90509998505050505050505050565b600060e082019050612834600083018a61217d565b818103602083015261284681896123f7565b9050818103604083015261285a81886123f7565b90506128696060830187612430565b818103608083015261287b81866123f7565b905061288a60a083018561217d565b61289760c0830184612149565b98975050505050505050565b7f4e487b7100000000000000000000000000000000000000000000000000000000600052602160045260246000fd5b600381106128e3576128e26128a3565b5b50565b60008190506128f4826128d2565b919050565b6000612904826128e6565b9050919050565b612914816128f9565b82525050565b600060208201905061292f600083018461290b565b92915050565b600060208201905061294a6000830184612430565b92915050565b600060208284031215612966576129656120a8565b5b6000612974848285016124e1565b91505092915050565b6129868161213d565b811461299157600080fd5b50565b6000813590506129a38161297d565b92915050565b6000602082840312156129bf576129be6120a8565b5b60006129cd84828501612994565b91505092915050565b7f4f6e6c792074686520636f6e747261637420617574686f72697a65722063616e60008201527f2063616c6c20746869732066756e6374696f6e2e000000000000000000000000602082015250565b6000612a326034836123b3565b9150612a3d826129d6565b604082019050919050565b60006020820190508181036000830152612a6181612a25565b9050919050565b7f456c656374696f6e2068617320616c726561647920737461727465642e000000600082015250565b6000612a9e601d836123b3565b9150612aa982612a68565b602082019050919050565b60006020820190508181036000830152612acd81612a91565b9050919050565b7f456c656374696f6e2068617320616c726561647920656e646564000000000000600082015250565b6000612b0a601a836123b3565b9150612b1582612ad4565b602082019050919050565b60006020820190508181036000830152612b3981612afd565b9050919050565b7f54686973206163636f756e7420616c7265616479206578697374730000000000600082015250565b6000612b76601b836123b3565b9150612b8182612b40565b602082019050919050565b60006020820190508181036000830152612ba581612b69565b9050919050565b7f4e487b7100000000000000000000000000000000000000000000000000000000600052602260045260246000fd5b60006002820490506001821680612bf357607f821691505b60208210811415612c0757612c06612bac565b5b50919050565b60008190508160005260206000209050919050565b60008154612c2f81612bdb565b612c3981866123b3565b94506001821660008114612c545760018114612c6657612c99565b60ff1983168652602086019350612c99565b612c6f85612c0d565b60005b83811015612c9157815481890152600182019150602081019050612c72565b808801955050505b50505092915050565b600060e0820190508181036000830152612cbc818a6123f7565b90508181036020830152612cd081896123f7565b9050612cdf6040830188612430565b612cec606083018761217d565b612cf96080830186612149565b612d0660a083018561217d565b81810360c0830152612d188184612c22565b905098975050505050505050565b7f596f752063616e277420766f74652074776963652e0000000000000000000000600082015250565b6000612d5c6015836123b3565b9150612d6782612d26565b602082019050919050565b60006020820190508181036000830152612d8b81612d4f565b9050919050565b7f596f7572206163636f756e742069736e27742072656769737465726564206f7260008201527f20617574686f72697a65642e0000000000000000000000000000000000000000602082015250565b6000612dee602c836123b3565b9150612df982612d92565b604082019050919050565b60006020820190508181036000830152612e1d81612de1565b9050919050565b7f4e487b7100000000000000000000000000000000000000000000000000000000600052601160045260246000fd5b6000612e5e82612173565b9150612e6983612173565b9250827fffffffffffffffffffffffffffffffffffffffffffffffffffffffffffffffff03821115612e9e57612e9d612e24565b5b828201905092915050565b7f43616e64696461746520616464726573732063616e6e6f74206265207a65726f600082015250565b6000612edf6020836123b3565b9150612eea82612ea9565b602082019050919050565b60006020820190508181036000830152612f0e81612ed2565b9050919050565b600060c0820190508181036000830152612f2f81896123f7565b90508181036020830152612f4381886123f7565b90508181036040830152612f5781876123f7565b9050612f66606083018661217d565b612f736080830185612430565b81810360a0830152612f858184612c22565b9050979650505050505050565b6000612f9d82612173565b9150612fa883612173565b925082821015612fbb57612fba612e24565b5b82820390509291505056fea2646970667358221220169e8dc72917aa54c6ed0e60a45ca4329cccab70ff242ba697ba75c76bf4d6cb64736f6c63430008090033",
  "linkReferences": {},
  "deployedLinkReferences": {}
}