{
  "_format": "hh-sol-artifact-1",
  "contractName": "Devapp",
  "sourceName": "contracts/DevappContract.sol",
  "abi": [
    {
      "inputs": [],
      "stateMutability": "nonpayable",
      "type": "constructor"
    },
    {
      "anonymous": false,
      "inputs": [
        {
          "indexed": false,
          "internalType": "uint256",
          "name": "timestamp",
          "type": "uint256"
        }
      ],
      "name": "Action",
      "type": "event"
    },
    {
      "anonymous": false,
      "inputs": [
        {
          "indexed": true,
          "internalType": "uint256",
          "name": "id",
          "type": "uint256"
        },
        {
          "indexed": false,
          "internalType": "string",
          "name": "age",
          "type": "string"
        },
        {
          "indexed": false,
          "internalType": "string",
          "name": "name",
          "type": "string"
        },
        {
          "indexed": false,
          "internalType": "string",
          "name": "image",
          "type": "string"
        },
        {
          "indexed": false,
          "internalType": "uint256",
          "name": "voteCount",
          "type": "uint256"
        },
        {
          "indexed": false,
          "internalType": "address",
          "name": "addr",
          "type": "address"
        },
        {
          "indexed": false,
          "internalType": "string",
          "name": "ipfs",
          "type": "string"
        }
      ],
      "name": "CandidateCreated",
      "type": "event"
    },
    {
      "anonymous": false,
      "inputs": [
        {
          "indexed": true,
          "internalType": "uint256",
          "name": "id",
          "type": "uint256"
        },
        {
          "indexed": false,
          "internalType": "string",
          "name": "name",
          "type": "string"
        },
        {
          "indexed": false,
          "internalType": "string",
          "name": "image",
          "type": "string"
        },
        {
          "indexed": false,
          "internalType": "address",
          "name": "addr",
          "type": "address"
        },
        {
          "indexed": false,
          "internalType": "uint256",
          "name": "voteCredits",
          "type": "uint256"
        },
        {
          "indexed": false,
          "internalType": "bool",
          "name": "voted",
          "type": "bool"
        },
        {
          "indexed": false,
          "internalType": "uint256",
          "name": "voteIndex",
          "type": "uint256"
        },
        {
          "indexed": false,
          "internalType": "string",
          "name": "ipfs",
          "type": "string"
        }
      ],
      "name": "VoterCreated",
      "type": "event"
    },
    {
      "inputs": [],
      "name": "ELECTION_DURATION",
      "outputs": [
        {
          "internalType": "uint256",
          "name": "",
          "type": "uint256"
        }
      ],
      "stateMutability": "view",
      "type": "function"
    },
    {
      "inputs": [],
      "name": "authorizer",
      "outputs": [
        {
          "internalType": "address",
          "name": "",
          "type": "address"
        }
      ],
      "stateMutability": "view",
      "type": "function"
    },
    {
      "inputs": [
        {
          "internalType": "uint256",
          "name": "",
          "type": "uint256"
        }
      ],
      "name": "candidateAddresses",
      "outputs": [
        {
          "internalType": "address",
          "name": "",
          "type": "address"
        }
      ],
      "stateMutability": "view",
      "type": "function"
    },
    {
      "inputs": [
        {
          "internalType": "address",
          "name": "",
          "type": "address"
        }
      ],
      "name": "candidates",
      "outputs": [
        {
          "internalType": "uint256",
          "name": "id",
          "type": "uint256"
        },
        {
          "internalType": "string",
          "name": "age",
          "type": "string"
        },
        {
          "internalType": "string",
          "name": "name",
          "type": "string"
        },
        {
          "internalType": "string",
          "name": "image",
          "type": "string"
        },
        {
          "internalType": "uint256",
          "name": "voteCount",
          "type": "uint256"
        },
        {
          "internalType": "address",
          "name": "addr",
          "type": "address"
        },
        {
          "internalType": "string",
          "name": "ipfs",
          "type": "string"
        }
      ],
      "stateMutability": "view",
      "type": "function"
    },
    {
      "inputs": [
        {
          "internalType": "bool",
          "name": "",
          "type": "bool"
        }
      ],
      "name": "commenceElection",
      "outputs": [],
      "stateMutability": "nonpayable",
      "type": "function"
    },
    {
      "inputs": [
        {
          "internalType": "address",
          "name": "_addr",
          "type": "address"
        },
        {
          "internalType": "string",
          "name": "_name",
          "type": "string"
        },
        {
          "internalType": "string",
          "name": "_age",
          "type": "string"
        },
        {
          "internalType": "string",
          "name": "_image",
          "type": "string"
        },
        {
          "internalType": "string",
          "name": "_ipfs",
          "type": "string"
        }
      ],
      "name": "createCandidate",
      "outputs": [],
      "stateMutability": "nonpayable",
      "type": "function"
    },
    {
      "inputs": [
        {
          "internalType": "address",
          "name": "_addr",
          "type": "address"
        },
        {
          "internalType": "string",
          "name": "_name",
          "type": "string"
        },
        {
          "internalType": "string",
          "name": "_image",
          "type": "string"
        },
        {
          "internalType": "string",
          "name": "_ipfs",
          "type": "string"
        }
      ],
      "name": "createVoters",
      "outputs": [],
      "stateMutability": "nonpayable",
      "type": "function"
    },
    {
      "inputs": [],
      "name": "electionEnds",
      "outputs": [],
      "stateMutability": "nonpayable",
      "type": "function"
    },
    {
      "inputs": [],
      "name": "ended",
      "outputs": [
        {
          "internalType": "bool",
          "name": "",
          "type": "bool"
        }
      ],
      "stateMutability": "view",
      "type": "function"
    },
    {
      "inputs": [],
      "name": "getAdmin",
      "outputs": [
        {
          "internalType": "address",
          "name": "",
          "type": "address"
        }
      ],
      "stateMutability": "view",
      "type": "function"
    },
    {
      "inputs": [],
      "name": "getCandidateAddress",
      "outputs": [
        {
          "internalType": "address[]",
          "name": "",
          "type": "address[]"
        }
      ],
      "stateMutability": "view",
      "type": "function"
    },
    {
      "inputs": [],
      "name": "getCandidateAddressesLength",
      "outputs": [
        {
          "internalType": "uint256",
          "name": "",
          "type": "uint256"
        }
      ],
      "stateMutability": "view",
      "type": "function"
    },
    {
      "inputs": [
        {
          "internalType": "address",
          "name": "_address",
          "type": "address"
        }
      ],
      "name": "getCandidateData",
      "outputs": [
        {
          "internalType": "string",
          "name": "",
          "type": "string"
        },
        {
          "internalType": "string",
          "name": "",
          "type": "string"
        },
        {
          "internalType": "uint256",
          "name": "",
          "type": "uint256"
        },
        {
          "internalType": "string",
          "name": "",
          "type": "string"
        },
        {
          "internalType": "uint256",
          "name": "",
          "type": "uint256"
        },
        {
          "internalType": "string",
          "name": "",
          "type": "string"
        },
        {
          "internalType": "address",
          "name": "",
          "type": "address"
        }
      ],
      "stateMutability": "view",
      "type": "function"
    },
    {
      "inputs": [
        {
          "internalType": "address",
          "name": "_addr",
          "type": "address"
        }
      ],
      "name": "getVoterDetails",
      "outputs": [
        {
          "internalType": "uint256",
          "name": "",
          "type": "uint256"
        },
        {
          "internalType": "string",
          "name": "",
          "type": "string"
        },
        {
          "internalType": "string",
          "name": "",
          "type": "string"
        },
        {
          "internalType": "address",
          "name": "",
          "type": "address"
        },
        {
          "internalType": "string",
          "name": "",
          "type": "string"
        },
        {
          "internalType": "uint256",
          "name": "",
          "type": "uint256"
        },
        {
          "internalType": "bool",
          "name": "",
          "type": "bool"
        }
      ],
      "stateMutability": "view",
      "type": "function"
    },
    {
      "inputs": [],
      "name": "getVotersLength",
      "outputs": [
        {
          "internalType": "uint256",
          "name": "",
          "type": "uint256"
        }
      ],
      "stateMutability": "view",
      "type": "function"
    },
    {
      "inputs": [],
      "name": "get_voter_list",
      "outputs": [
        {
          "internalType": "address[]",
          "name": "",
          "type": "address[]"
        }
      ],
      "stateMutability": "view",
      "type": "function"
    },
    {
      "inputs": [
        {
          "internalType": "address",
          "name": "",
          "type": "address"
        }
      ],
      "name": "hasVoted",
      "outputs": [
        {
          "internalType": "bool",
          "name": "",
          "type": "bool"
        }
      ],
      "stateMutability": "view",
      "type": "function"
    },
    {
      "inputs": [],
      "name": "startTime",
      "outputs": [
        {
          "internalType": "uint256",
          "name": "",
          "type": "uint256"
        }
      ],
      "stateMutability": "view",
      "type": "function"
    },
    {
      "inputs": [],
      "name": "started",
      "outputs": [
        {
          "internalType": "bool",
          "name": "",
          "type": "bool"
        }
      ],
      "stateMutability": "view",
      "type": "function"
    },
    {
      "inputs": [],
      "name": "state",
      "outputs": [
        {
          "internalType": "enum Devapp.ElectionState",
          "name": "",
          "type": "uint8"
        }
      ],
      "stateMutability": "view",
      "type": "function"
    },
    {
      "inputs": [],
      "name": "totalVotes",
      "outputs": [
        {
          "internalType": "uint256",
          "name": "",
          "type": "uint256"
        }
      ],
      "stateMutability": "view",
      "type": "function"
    },
    {
      "inputs": [
        {
          "internalType": "address",
          "name": "_candidateAddr",
          "type": "address"
        },
        {
          "internalType": "uint256",
          "name": "_candidateUniqueId",
          "type": "uint256"
        }
      ],
      "name": "voteBooth",
      "outputs": [],
      "stateMutability": "nonpayable",
      "type": "function"
    },
    {
      "inputs": [
        {
          "internalType": "uint256",
          "name": "",
          "type": "uint256"
        }
      ],
      "name": "voterAddresses",
      "outputs": [
        {
          "internalType": "address",
          "name": "",
          "type": "address"
        }
      ],
      "stateMutability": "view",
      "type": "function"
    },
    {
      "inputs": [
        {
          "internalType": "address",
          "name": "",
          "type": "address"
        }
      ],
      "name": "voters",
      "outputs": [
        {
          "internalType": "uint256",
          "name": "id",
          "type": "uint256"
        },
        {
          "internalType": "string",
          "name": "name",
          "type": "string"
        },
        {
          "internalType": "string",
          "name": "image",
          "type": "string"
        },
        {
          "internalType": "address",
          "name": "addr",
          "type": "address"
        },
        {
          "internalType": "uint256",
          "name": "voteCredits",
          "type": "uint256"
        },
        {
          "internalType": "bool",
          "name": "voted",
          "type": "bool"
        },
        {
          "internalType": "uint256",
          "name": "voteIndex",
          "type": "uint256"
        },
        {
          "internalType": "string",
          "name": "ipfs",
          "type": "string"
        }
      ],
      "stateMutability": "view",
      "type": "function"
    }
  ],
  "bytecode": "0x60806040526000600760026101000a81548160ff021916908360028111156200002d576200002c620000b5565b5b02179055503480156200003f57600080fd5b5033600260006101000a81548173ffffffffffffffffffffffffffffffffffffffff021916908373ffffffffffffffffffffffffffffffffffffffff1602179055506000600760026101000a81548160ff02191690836002811115620000aa57620000a9620000b5565b5b0217905550620000e4565b7f4e487b7100000000000000000000000000000000000000000000000000000000600052602160045260246000fd5b61304f80620000f46000396000f3fe608060405234801561001057600080fd5b50600436106101585760003560e01c80638ef0c4d2116100c3578063d55d73c51161007c578063d55d73c5146103e6578063dd0e237314610416578063de2237d314610446578063f76413ff14610464578063fc3f507814610480578063fdebb4901461049e57610158565b80638ef0c4d214610301578063a3ec138d1461031f578063b8417f0e14610356578063ba71bef014610374578063c19d93fb146103aa578063d09edf31146103c857610158565b80635e8f1747116101155780635e8f1747146102395780636e9960c3146102575780637203a7a5146102755780637657bec91461029157806378e97925146102ad5780638ab66a90146102cb57610158565b806309eef43e1461015d5780630d15fd771461018d57806312fa6feb146101ab5780631923c3ef146101c95780631f2698ab146101e55780632a466ac714610203575b600080fd5b61017760048036038101906101729190612163565b6104a8565b60405161018491906121ab565b60405180910390f35b6101956104c8565b6040516101a291906121df565b60405180910390f35b6101b36104ce565b6040516101c091906121ab565b60405180910390f35b6101e360048036038101906101de9190612340565b6104e1565b005b6101ed610899565b6040516101fa91906121ab565b60405180910390f35b61021d60048036038101906102189190612163565b6108ac565b6040516102309796959493929190612492565b60405180910390f35b610241610bf5565b60405161024e91906121df565b60405180910390f35b61025f610bfa565b60405161026c919061251d565b60405180910390f35b61028f600480360381019061028a9190612564565b610c24565b005b6102ab60048036038101906102a691906125a4565b610ed8565b005b6102b56112b6565b6040516102c291906121df565b60405180910390f35b6102e560048036038101906102e09190612163565b6112bc565b6040516102f8979695949392919061268f565b60405180910390f35b61030961153e565b60405161031691906127d8565b60405180910390f35b61033960048036038101906103349190612163565b61162c565b60405161034d9897969594939291906127fa565b60405180910390f35b61035e611839565b60405161036b91906121df565b60405180910390f35b61038e60048036038101906103899190612163565b611846565b6040516103a1979695949392919061288d565b60405180910390f35b6103b2611c0e565b6040516103bf9190612988565b60405180910390f35b6103d0611c21565b6040516103dd919061251d565b60405180910390f35b61040060048036038101906103fb91906129a3565b611c47565b60405161040d919061251d565b60405180910390f35b610430600480360381019061042b91906129a3565b611c86565b60405161043d919061251d565b60405180910390f35b61044e611cc5565b60405161045b91906121df565b60405180910390f35b61047e600480360381019061047991906129fc565b611cd2565b005b610488611e83565b60405161049591906127d8565b60405180910390f35b6104a6611f71565b005b600a6020528060005260406000206000915054906101000a900460ff1681565b60055481565b600760009054906101000a900460ff1681565b600260009054906101000a900473ffffffffffffffffffffffffffffffffffffffff1673ffffffffffffffffffffffffffffffffffffffff163373ffffffffffffffffffffffffffffffffffffffff1614610571576040517f08c379a000000000000000000000000000000000000000000000000000000000815260040161056890612a9b565b60405180910390fd5b6000600281111561058557610584612911565b5b600760029054906101000a900460ff1660028111156105a7576105a6612911565b5b146105e7576040517f08c379a00000000000000000000000000000000000000000000000000000000081526004016105de90612b07565b60405180910390fd5b6002808111156105fa576105f9612911565b5b600760029054906101000a900460ff16600281111561061c5761061b612911565b5b141561065d576040517f08c379a000000000000000000000000000000000000000000000000000000000815260040161065490612b73565b60405180910390fd5b610667600061202a565b60006106736000612040565b90506000600960008773ffffffffffffffffffffffffffffffffffffffff1673ffffffffffffffffffffffffffffffffffffffff168152602001908152602001600020905060008160040154146106ff576040517f08c379a00000000000000000000000000000000000000000000000000000000081526004016106f690612bdf565b60405180910390fd5b600181600401819055508481600101908051906020019061072192919061204e565b508381600201908051906020019061073a92919061204e565b50858160030160006101000a81548173ffffffffffffffffffffffffffffffffffffffff021916908373ffffffffffffffffffffffffffffffffffffffff160217905550818160000181905550633b9aca00816006018190555060008160050160006101000a81548160ff021916908315150217905550828160070190805190602001906107c992919061204e565b506004869080600181540180825580915050600190039060005260206000200160009091909190916101000a81548173ffffffffffffffffffffffffffffffffffffffff021916908373ffffffffffffffffffffffffffffffffffffffff16021790555080600001547ff5f39971dd62d9929e3a9feaa6bb77fe7c7da0001babff8a65a7e51ad0201c1986868985600401548660050160009054906101000a900460ff168760060154886007016040516108899796959493929190612cf5565b60405180910390a2505050505050565b600760019054906101000a900460ff1681565b6060806000606060006060600080600860008a73ffffffffffffffffffffffffffffffffffffffff1673ffffffffffffffffffffffffffffffffffffffff1681526020019081526020016000206040518060e00160405290816000820154815260200160018201805461091e90612c2e565b80601f016020809104026020016040519081016040528092919081815260200182805461094a90612c2e565b80156109975780601f1061096c57610100808354040283529160200191610997565b820191906000526020600020905b81548152906001019060200180831161097a57829003601f168201915b505050505081526020016002820180546109b090612c2e565b80601f01602080910402602001604051908101604052809291908181526020018280546109dc90612c2e565b8015610a295780601f106109fe57610100808354040283529160200191610a29565b820191906000526020600020905b815481529060010190602001808311610a0c57829003601f168201915b50505050508152602001600382018054610a4290612c2e565b80601f0160208091040260200160405190810160405280929190818152602001828054610a6e90612c2e565b8015610abb5780601f10610a9057610100808354040283529160200191610abb565b820191906000526020600020905b815481529060010190602001808311610a9e57829003601f168201915b50505050508152602001600482015481526020016005820160009054906101000a900473ffffffffffffffffffffffffffffffffffffffff1673ffffffffffffffffffffffffffffffffffffffff1673ffffffffffffffffffffffffffffffffffffffff168152602001600682018054610b3490612c2e565b80601f0160208091040260200160405190810160405280929190818152602001828054610b6090612c2e565b8015610bad5780601f10610b8257610100808354040283529160200191610bad565b820191906000526020600020905b815481529060010190602001808311610b9057829003601f168201915b5050505050815250509050806020015181604001518260000151836060015184608001518560c001518660a00151975097509750975097509750975050919395979092949650565b607881565b6000600260009054906101000a900473ffffffffffffffffffffffffffffffffffffffff16905090565b60006002811115610c3857610c37612911565b5b600760029054906101000a900460ff166002811115610c5a57610c59612911565b5b14610c9a576040517f08c379a0000000000000000000000000000000000000000000000000000000008152600401610c9190612b07565b60405180910390fd5b600280811115610cad57610cac612911565b5b600760029054906101000a900460ff166002811115610ccf57610cce612911565b5b1415610d10576040517f08c379a0000000000000000000000000000000000000000000000000000000008152600401610d0790612b73565b60405180910390fd5b6000600960003373ffffffffffffffffffffffffffffffffffffffff1673ffffffffffffffffffffffffffffffffffffffff16815260200190815260200160002090508060050160009054906101000a900460ff1615610da5576040517f08c379a0000000000000000000000000000000000000000000000000000000008152600401610d9c90612dc5565b60405180910390fd5b600081600401541415610ded576040517f08c379a0000000000000000000000000000000000000000000000000000000008152600401610de490612e57565b60405180910390fd5b60018160050160006101000a81548160ff0219169083151502179055508181600601819055506004339080600181540180825580915050600190039060005260206000200160009091909190916101000a81548173ffffffffffffffffffffffffffffffffffffffff021916908373ffffffffffffffffffffffffffffffffffffffff1602179055508060040154600860008573ffffffffffffffffffffffffffffffffffffffff1673ffffffffffffffffffffffffffffffffffffffff1681526020019081526020016000206004016000828254610ecc9190612ea6565b92505081905550505050565b600260009054906101000a900473ffffffffffffffffffffffffffffffffffffffff1673ffffffffffffffffffffffffffffffffffffffff163373ffffffffffffffffffffffffffffffffffffffff1614610f68576040517f08c379a0000000000000000000000000000000000000000000000000000000008152600401610f5f90612a9b565b60405180910390fd5b60006002811115610f7c57610f7b612911565b5b600760029054906101000a900460ff166002811115610f9e57610f9d612911565b5b14610fde576040517f08c379a0000000000000000000000000000000000000000000000000000000008152600401610fd590612b07565b60405180910390fd5b600280811115610ff157610ff0612911565b5b600760029054906101000a900460ff16600281111561101357611012612911565b5b1415611054576040517f08c379a000000000000000000000000000000000000000000000000000000000815260040161104b90612b73565b60405180910390fd5b600073ffffffffffffffffffffffffffffffffffffffff168573ffffffffffffffffffffffffffffffffffffffff1614156110c4576040517f08c379a00000000000000000000000000000000000000000000000000000000081526004016110bb90612f48565b60405180910390fd5b6110ce600161202a565b60006110da6001612040565b90506000600860008873ffffffffffffffffffffffffffffffffffffffff1673ffffffffffffffffffffffffffffffffffffffff16815260200190815260200160002090508181600001819055508581600201908051906020019061114092919061204e565b508481600101908051906020019061115992919061204e565b508381600301908051906020019061117292919061204e565b5060008160040181905550868160050160006101000a81548173ffffffffffffffffffffffffffffffffffffffff021916908373ffffffffffffffffffffffffffffffffffffffff160217905550828160060190805190602001906111d892919061204e565b506003879080600181540180825580915050600190039060005260206000200160009091909190916101000a81548173ffffffffffffffffffffffffffffffffffffffff021916908373ffffffffffffffffffffffffffffffffffffffff16021790555080600001547f978d20e26392611c02bd1a6e72cc85fa19bd1024b23c12155f8183fbc90902e787878785600401548660050160009054906101000a900473ffffffffffffffffffffffffffffffffffffffff16876006016040516112a596959493929190612f68565b60405180910390a250505050505050565b60065481565b60086020528060005260406000206000915090508060000154908060010180546112e590612c2e565b80601f016020809104026020016040519081016040528092919081815260200182805461131190612c2e565b801561135e5780601f106113335761010080835404028352916020019161135e565b820191906000526020600020905b81548152906001019060200180831161134157829003601f168201915b50505050509080600201805461137390612c2e565b80601f016020809104026020016040519081016040528092919081815260200182805461139f90612c2e565b80156113ec5780601f106113c1576101008083540402835291602001916113ec565b820191906000526020600020905b8154815290600101906020018083116113cf57829003601f168201915b50505050509080600301805461140190612c2e565b80601f016020809104026020016040519081016040528092919081815260200182805461142d90612c2e565b801561147a5780601f1061144f5761010080835404028352916020019161147a565b820191906000526020600020905b81548152906001019060200180831161145d57829003601f168201915b5050505050908060040154908060050160009054906101000a900473ffffffffffffffffffffffffffffffffffffffff16908060060180546114bb90612c2e565b80601f01602080910402602001604051908101604052809291908181526020018280546114e790612c2e565b80156115345780601f1061150957610100808354040283529160200191611534565b820191906000526020600020905b81548152906001019060200180831161151757829003601f168201915b5050505050905087565b60606000600480549050141561159f57600067ffffffffffffffff81111561156957611568612215565b5b6040519080825280602002602001820160405280156115975781602001602082028036833780820191505090505b509050611629565b600480548060200260200160405190810160405280929190818152602001828054801561162157602002820191906000526020600020905b8160009054906101000a900473ffffffffffffffffffffffffffffffffffffffff1673ffffffffffffffffffffffffffffffffffffffff16815260200190600101908083116115d7575b505050505090505b90565b600960205280600052604060002060009150905080600001549080600101805461165590612c2e565b80601f016020809104026020016040519081016040528092919081815260200182805461168190612c2e565b80156116ce5780601f106116a3576101008083540402835291602001916116ce565b820191906000526020600020905b8154815290600101906020018083116116b157829003601f168201915b5050505050908060020180546116e390612c2e565b80601f016020809104026020016040519081016040528092919081815260200182805461170f90612c2e565b801561175c5780601f106117315761010080835404028352916020019161175c565b820191906000526020600020905b81548152906001019060200180831161173f57829003601f168201915b5050505050908060030160009054906101000a900473ffffffffffffffffffffffffffffffffffffffff16908060040154908060050160009054906101000a900460ff16908060060154908060070180546117b690612c2e565b80601f01602080910402602001604051908101604052809291908181526020018280546117e290612c2e565b801561182f5780601f106118045761010080835404028352916020019161182f565b820191906000526020600020905b81548152906001019060200180831161181257829003601f168201915b5050505050905088565b6000600380549050905090565b600060608060006060600080600960008973ffffffffffffffffffffffffffffffffffffffff1673ffffffffffffffffffffffffffffffffffffffff16815260200190815260200160002060000154600960008a73ffffffffffffffffffffffffffffffffffffffff1673ffffffffffffffffffffffffffffffffffffffff168152602001908152602001600020600101600960008b73ffffffffffffffffffffffffffffffffffffffff1673ffffffffffffffffffffffffffffffffffffffff168152602001908152602001600020600201600960008c73ffffffffffffffffffffffffffffffffffffffff1673ffffffffffffffffffffffffffffffffffffffff16815260200190815260200160002060030160009054906101000a900473ffffffffffffffffffffffffffffffffffffffff16600960008d73ffffffffffffffffffffffffffffffffffffffff1673ffffffffffffffffffffffffffffffffffffffff168152602001908152602001600020600701600960008e73ffffffffffffffffffffffffffffffffffffffff1673ffffffffffffffffffffffffffffffffffffffff16815260200190815260200160002060040154600960008f73ffffffffffffffffffffffffffffffffffffffff1673ffffffffffffffffffffffffffffffffffffffff16815260200190815260200160002060050160009054906101000a900460ff16858054611a5d90612c2e565b80601f0160208091040260200160405190810160405280929190818152602001828054611a8990612c2e565b8015611ad65780601f10611aab57610100808354040283529160200191611ad6565b820191906000526020600020905b815481529060010190602001808311611ab957829003601f168201915b50505050509550848054611ae990612c2e565b80601f0160208091040260200160405190810160405280929190818152602001828054611b1590612c2e565b8015611b625780601f10611b3757610100808354040283529160200191611b62565b820191906000526020600020905b815481529060010190602001808311611b4557829003601f168201915b50505050509450828054611b7590612c2e565b80601f0160208091040260200160405190810160405280929190818152602001828054611ba190612c2e565b8015611bee5780601f10611bc357610100808354040283529160200191611bee565b820191906000526020600020905b815481529060010190602001808311611bd157829003601f168201915b505050505092509650965096509650965096509650919395979092949650565b600760029054906101000a900460ff1681565b600260009054906101000a900473ffffffffffffffffffffffffffffffffffffffff1681565b60038181548110611c5757600080fd5b906000526020600020016000915054906101000a900473ffffffffffffffffffffffffffffffffffffffff1681565b60048181548110611c9657600080fd5b906000526020600020016000915054906101000a900473ffffffffffffffffffffffffffffffffffffffff1681565b6000600480549050905090565b600260009054906101000a900473ffffffffffffffffffffffffffffffffffffffff1673ffffffffffffffffffffffffffffffffffffffff163373ffffffffffffffffffffffffffffffffffffffff1614611d62576040517f08c379a0000000000000000000000000000000000000000000000000000000008152600401611d5990612a9b565b60405180910390fd5b60006002811115611d7657611d75612911565b5b600760029054906101000a900460ff166002811115611d9857611d97612911565b5b14611dd8576040517f08c379a0000000000000000000000000000000000000000000000000000000008152600401611dcf90612b07565b60405180910390fd5b600280811115611deb57611dea612911565b5b600760029054906101000a900460ff166002811115611e0d57611e0c612911565b5b1415611e4e576040517f08c379a0000000000000000000000000000000000000000000000000000000008152600401611e4590612b73565b60405180910390fd5b6001600760026101000a81548160ff02191690836002811115611e7457611e73612911565b5b02179055504260068190555050565b606060006003805490501415611ee457600067ffffffffffffffff811115611eae57611ead612215565b5b604051908082528060200260200182016040528015611edc5781602001602082028036833780820191505090505b509050611f6e565b6003805480602002602001604051908101604052809291908181526020018280548015611f6657602002820191906000526020600020905b8160009054906101000a900473ffffffffffffffffffffffffffffffffffffffff1673ffffffffffffffffffffffffffffffffffffffff1681526020019060010190808311611f1c575b505050505090505b90565b60016002811115611f8557611f84612911565b5b600760029054906101000a900460ff166002811115611fa757611fa6612911565b5b14611fb157600080fd5b600060065442611fc19190612fe5565b90506078811115611fd157600080fd5b6002600760026101000a81548160ff02191690836002811115611ff757611ff6612911565b5b02179055506000600760026101000a81548160ff0219169083600281111561202257612021612911565b5b021790555050565b6001816000016000828254019250508190555050565b600081600001549050919050565b82805461205a90612c2e565b90600052602060002090601f01602090048101928261207c57600085556120c3565b82601f1061209557805160ff19168380011785556120c3565b828001600101855582156120c3579182015b828111156120c25782518255916020019190600101906120a7565b5b5090506120d091906120d4565b5090565b5b808211156120ed5760008160009055506001016120d5565b5090565b6000604051905090565b600080fd5b600080fd5b600073ffffffffffffffffffffffffffffffffffffffff82169050919050565b600061213082612105565b9050919050565b61214081612125565b811461214b57600080fd5b50565b60008135905061215d81612137565b92915050565b600060208284031215612179576121786120fb565b5b60006121878482850161214e565b91505092915050565b60008115159050919050565b6121a581612190565b82525050565b60006020820190506121c0600083018461219c565b92915050565b6000819050919050565b6121d9816121c6565b82525050565b60006020820190506121f460008301846121d0565b92915050565b600080fd5b600080fd5b6000601f19601f8301169050919050565b7f4e487b7100000000000000000000000000000000000000000000000000000000600052604160045260246000fd5b61224d82612204565b810181811067ffffffffffffffff8211171561226c5761226b612215565b5b80604052505050565b600061227f6120f1565b905061228b8282612244565b919050565b600067ffffffffffffffff8211156122ab576122aa612215565b5b6122b482612204565b9050602081019050919050565b82818337600083830152505050565b60006122e36122de84612290565b612275565b9050828152602081018484840111156122ff576122fe6121ff565b5b61230a8482856122c1565b509392505050565b600082601f830112612327576123266121fa565b5b81356123378482602086016122d0565b91505092915050565b6000806000806080858703121561235a576123596120fb565b5b60006123688782880161214e565b945050602085013567ffffffffffffffff81111561238957612388612100565b5b61239587828801612312565b935050604085013567ffffffffffffffff8111156123b6576123b5612100565b5b6123c287828801612312565b925050606085013567ffffffffffffffff8111156123e3576123e2612100565b5b6123ef87828801612312565b91505092959194509250565b600081519050919050565b600082825260208201905092915050565b60005b8381101561243557808201518184015260208101905061241a565b83811115612444576000848401525b50505050565b6000612455826123fb565b61245f8185612406565b935061246f818560208601612417565b61247881612204565b840191505092915050565b61248c81612125565b82525050565b600060e08201905081810360008301526124ac818a61244a565b905081810360208301526124c0818961244a565b90506124cf60408301886121d0565b81810360608301526124e1818761244a565b90506124f060808301866121d0565b81810360a0830152612502818561244a565b905061251160c0830184612483565b98975050505050505050565b60006020820190506125326000830184612483565b92915050565b612541816121c6565b811461254c57600080fd5b50565b60008135905061255e81612538565b92915050565b6000806040838503121561257b5761257a6120fb565b5b60006125898582860161214e565b925050602061259a8582860161254f565b9150509250929050565b600080600080600060a086880312156125c0576125bf6120fb565b5b60006125ce8882890161214e565b955050602086013567ffffffffffffffff8111156125ef576125ee612100565b5b6125fb88828901612312565b945050604086013567ffffffffffffffff81111561261c5761261b612100565b5b61262888828901612312565b935050606086013567ffffffffffffffff81111561264957612648612100565b5b61265588828901612312565b925050608086013567ffffffffffffffff81111561267657612675612100565b5b61268288828901612312565b9150509295509295909350565b600060e0820190506126a4600083018a6121d0565b81810360208301526126b6818961244a565b905081810360408301526126ca818861244a565b905081810360608301526126de818761244a565b90506126ed60808301866121d0565b6126fa60a0830185612483565b81810360c083015261270c818461244a565b905098975050505050505050565b600081519050919050565b600082825260208201905092915050565b6000819050602082019050919050565b61274f81612125565b82525050565b60006127618383612746565b60208301905092915050565b6000602082019050919050565b60006127858261271a565b61278f8185612725565b935061279a83612736565b8060005b838110156127cb5781516127b28882612755565b97506127bd8361276d565b92505060018101905061279e565b5085935050505092915050565b600060208201905081810360008301526127f2818461277a565b905092915050565b600061010082019050612810600083018b6121d0565b8181036020830152612822818a61244a565b90508181036040830152612836818961244a565b90506128456060830188612483565b61285260808301876121d0565b61285f60a083018661219c565b61286c60c08301856121d0565b81810360e083015261287e818461244a565b90509998505050505050505050565b600060e0820190506128a2600083018a6121d0565b81810360208301526128b4818961244a565b905081810360408301526128c8818861244a565b90506128d76060830187612483565b81810360808301526128e9818661244a565b90506128f860a08301856121d0565b61290560c083018461219c565b98975050505050505050565b7f4e487b7100000000000000000000000000000000000000000000000000000000600052602160045260246000fd5b6003811061295157612950612911565b5b50565b600081905061296282612940565b919050565b600061297282612954565b9050919050565b61298281612967565b82525050565b600060208201905061299d6000830184612979565b92915050565b6000602082840312156129b9576129b86120fb565b5b60006129c78482850161254f565b91505092915050565b6129d981612190565b81146129e457600080fd5b50565b6000813590506129f6816129d0565b92915050565b600060208284031215612a1257612a116120fb565b5b6000612a20848285016129e7565b91505092915050565b7f4f6e6c792074686520636f6e747261637420617574686f72697a65722063616e60008201527f2063616c6c20746869732066756e6374696f6e2e000000000000000000000000602082015250565b6000612a85603483612406565b9150612a9082612a29565b604082019050919050565b60006020820190508181036000830152612ab481612a78565b9050919050565b7f456c656374696f6e2068617320616c726561647920737461727465642e000000600082015250565b6000612af1601d83612406565b9150612afc82612abb565b602082019050919050565b60006020820190508181036000830152612b2081612ae4565b9050919050565b7f456c656374696f6e2068617320616c726561647920656e646564000000000000600082015250565b6000612b5d601a83612406565b9150612b6882612b27565b602082019050919050565b60006020820190508181036000830152612b8c81612b50565b9050919050565b7f54686973206163636f756e7420616c7265616479206578697374730000000000600082015250565b6000612bc9601b83612406565b9150612bd482612b93565b602082019050919050565b60006020820190508181036000830152612bf881612bbc565b9050919050565b7f4e487b7100000000000000000000000000000000000000000000000000000000600052602260045260246000fd5b60006002820490506001821680612c4657607f821691505b60208210811415612c5a57612c59612bff565b5b50919050565b60008190508160005260206000209050919050565b60008154612c8281612c2e565b612c8c8186612406565b94506001821660008114612ca75760018114612cb957612cec565b60ff1983168652602086019350612cec565b612cc285612c60565b60005b83811015612ce457815481890152600182019150602081019050612cc5565b808801955050505b50505092915050565b600060e0820190508181036000830152612d0f818a61244a565b90508181036020830152612d23818961244a565b9050612d326040830188612483565b612d3f60608301876121d0565b612d4c608083018661219c565b612d5960a08301856121d0565b81810360c0830152612d6b8184612c75565b905098975050505050505050565b7f596f752063616e277420766f74652074776963652e0000000000000000000000600082015250565b6000612daf601583612406565b9150612dba82612d79565b602082019050919050565b60006020820190508181036000830152612dde81612da2565b9050919050565b7f596f7572206163636f756e742069736e27742072656769737465726564206f7260008201527f20617574686f72697a65642e0000000000000000000000000000000000000000602082015250565b6000612e41602c83612406565b9150612e4c82612de5565b604082019050919050565b60006020820190508181036000830152612e7081612e34565b9050919050565b7f4e487b7100000000000000000000000000000000000000000000000000000000600052601160045260246000fd5b6000612eb1826121c6565b9150612ebc836121c6565b9250827fffffffffffffffffffffffffffffffffffffffffffffffffffffffffffffffff03821115612ef157612ef0612e77565b5b828201905092915050565b7f43616e64696461746520616464726573732063616e6e6f74206265207a65726f600082015250565b6000612f32602083612406565b9150612f3d82612efc565b602082019050919050565b60006020820190508181036000830152612f6181612f25565b9050919050565b600060c0820190508181036000830152612f82818961244a565b90508181036020830152612f96818861244a565b90508181036040830152612faa818761244a565b9050612fb960608301866121d0565b612fc66080830185612483565b81810360a0830152612fd88184612c75565b9050979650505050505050565b6000612ff0826121c6565b9150612ffb836121c6565b92508282101561300e5761300d612e77565b5b82820390509291505056fea2646970667358221220d9a7abb6b8b96ff7a6c3f3070e2f4a344cf7c23e5a9a2d4fbab72bcda6fc362b64736f6c63430008090033",
  "linkReferences": {},
  "deployedLinkReferences": {}
}