{
  "_format": "hh-sol-artifact-1",
  "contractName": "Devapp",
  "sourceName": "contracts/DevappContract.sol",
  "abi": [
    {
      "inputs": [],
      "stateMutability": "nonpayable",
      "type": "constructor"
    },
    {
      "anonymous": false,
      "inputs": [
        {
          "indexed": false,
          "internalType": "uint256",
          "name": "timestamp",
          "type": "uint256"
        }
      ],
      "name": "Action",
      "type": "event"
    },
    {
      "anonymous": false,
      "inputs": [
        {
          "indexed": true,
          "internalType": "uint256",
          "name": "id",
          "type": "uint256"
        },
        {
          "indexed": false,
          "internalType": "string",
          "name": "age",
          "type": "string"
        },
        {
          "indexed": false,
          "internalType": "string",
          "name": "name",
          "type": "string"
        },
        {
          "indexed": false,
          "internalType": "string",
          "name": "image",
          "type": "string"
        },
        {
          "indexed": false,
          "internalType": "uint256",
          "name": "voteCount",
          "type": "uint256"
        },
        {
          "indexed": false,
          "internalType": "address",
          "name": "addr",
          "type": "address"
        },
        {
          "indexed": false,
          "internalType": "string",
          "name": "ipfs",
          "type": "string"
        }
      ],
      "name": "CandidateCreated",
      "type": "event"
    },
    {
      "anonymous": false,
      "inputs": [
        {
          "indexed": true,
          "internalType": "uint256",
          "name": "id",
          "type": "uint256"
        },
        {
          "indexed": false,
          "internalType": "string",
          "name": "name",
          "type": "string"
        },
        {
          "indexed": false,
          "internalType": "string",
          "name": "image",
          "type": "string"
        },
        {
          "indexed": false,
          "internalType": "address",
          "name": "addr",
          "type": "address"
        },
        {
          "indexed": false,
          "internalType": "uint256",
          "name": "voteCredits",
          "type": "uint256"
        },
        {
          "indexed": false,
          "internalType": "bool",
          "name": "voted",
          "type": "bool"
        },
        {
          "indexed": false,
          "internalType": "uint256",
          "name": "voteIndex",
          "type": "uint256"
        },
        {
          "indexed": false,
          "internalType": "string",
          "name": "ipfs",
          "type": "string"
        }
      ],
      "name": "VoterCreated",
      "type": "event"
    },
    {
      "inputs": [],
      "name": "authorizer",
      "outputs": [
        {
          "internalType": "address",
          "name": "",
          "type": "address"
        }
      ],
      "stateMutability": "view",
      "type": "function"
    },
    {
      "inputs": [
        {
          "internalType": "uint256",
          "name": "",
          "type": "uint256"
        }
      ],
      "name": "candidateAddresses",
      "outputs": [
        {
          "internalType": "address",
          "name": "",
          "type": "address"
        }
      ],
      "stateMutability": "view",
      "type": "function"
    },
    {
      "inputs": [
        {
          "internalType": "address",
          "name": "",
          "type": "address"
        }
      ],
      "name": "candidates",
      "outputs": [
        {
          "internalType": "uint256",
          "name": "id",
          "type": "uint256"
        },
        {
          "internalType": "string",
          "name": "age",
          "type": "string"
        },
        {
          "internalType": "string",
          "name": "name",
          "type": "string"
        },
        {
          "internalType": "string",
          "name": "image",
          "type": "string"
        },
        {
          "internalType": "uint256",
          "name": "voteCount",
          "type": "uint256"
        },
        {
          "internalType": "address",
          "name": "addr",
          "type": "address"
        },
        {
          "internalType": "string",
          "name": "ipfs",
          "type": "string"
        }
      ],
      "stateMutability": "view",
      "type": "function"
    },
    {
      "inputs": [
        {
          "internalType": "bool",
          "name": "",
          "type": "bool"
        }
      ],
      "name": "commenceElection",
      "outputs": [],
      "stateMutability": "nonpayable",
      "type": "function"
    },
    {
      "inputs": [
        {
          "internalType": "address",
          "name": "_addr",
          "type": "address"
        },
        {
          "internalType": "string",
          "name": "_name",
          "type": "string"
        },
        {
          "internalType": "string",
          "name": "_age",
          "type": "string"
        },
        {
          "internalType": "string",
          "name": "_image",
          "type": "string"
        },
        {
          "internalType": "string",
          "name": "_ipfs",
          "type": "string"
        }
      ],
      "name": "createCandidate",
      "outputs": [],
      "stateMutability": "nonpayable",
      "type": "function"
    },
    {
      "inputs": [
        {
          "internalType": "address",
          "name": "_addr",
          "type": "address"
        },
        {
          "internalType": "string",
          "name": "_name",
          "type": "string"
        },
        {
          "internalType": "string",
          "name": "_image",
          "type": "string"
        },
        {
          "internalType": "string",
          "name": "_ipfs",
          "type": "string"
        }
      ],
      "name": "createVoters",
      "outputs": [],
      "stateMutability": "nonpayable",
      "type": "function"
    },
    {
      "inputs": [
        {
          "internalType": "bool",
          "name": "",
          "type": "bool"
        }
      ],
      "name": "endElection",
      "outputs": [],
      "stateMutability": "nonpayable",
      "type": "function"
    },
    {
      "inputs": [],
      "name": "ended",
      "outputs": [
        {
          "internalType": "uint256",
          "name": "",
          "type": "uint256"
        }
      ],
      "stateMutability": "view",
      "type": "function"
    },
    {
      "inputs": [],
      "name": "getAdmin",
      "outputs": [
        {
          "internalType": "address",
          "name": "",
          "type": "address"
        }
      ],
      "stateMutability": "view",
      "type": "function"
    },
    {
      "inputs": [],
      "name": "getCandidateAddress",
      "outputs": [
        {
          "internalType": "address[]",
          "name": "",
          "type": "address[]"
        }
      ],
      "stateMutability": "view",
      "type": "function"
    },
    {
      "inputs": [],
      "name": "getCandidateAddressesLength",
      "outputs": [
        {
          "internalType": "uint256",
          "name": "",
          "type": "uint256"
        }
      ],
      "stateMutability": "view",
      "type": "function"
    },
    {
      "inputs": [
        {
          "internalType": "address",
          "name": "_address",
          "type": "address"
        }
      ],
      "name": "getCandidateData",
      "outputs": [
        {
          "internalType": "string",
          "name": "",
          "type": "string"
        },
        {
          "internalType": "string",
          "name": "",
          "type": "string"
        },
        {
          "internalType": "uint256",
          "name": "",
          "type": "uint256"
        },
        {
          "internalType": "string",
          "name": "",
          "type": "string"
        },
        {
          "internalType": "uint256",
          "name": "",
          "type": "uint256"
        },
        {
          "internalType": "string",
          "name": "",
          "type": "string"
        },
        {
          "internalType": "address",
          "name": "",
          "type": "address"
        }
      ],
      "stateMutability": "view",
      "type": "function"
    },
    {
      "inputs": [
        {
          "internalType": "address",
          "name": "_addr",
          "type": "address"
        }
      ],
      "name": "getVoterDetails",
      "outputs": [
        {
          "internalType": "uint256",
          "name": "",
          "type": "uint256"
        },
        {
          "internalType": "string",
          "name": "",
          "type": "string"
        },
        {
          "internalType": "string",
          "name": "",
          "type": "string"
        },
        {
          "internalType": "address",
          "name": "",
          "type": "address"
        },
        {
          "internalType": "string",
          "name": "",
          "type": "string"
        },
        {
          "internalType": "uint256",
          "name": "",
          "type": "uint256"
        },
        {
          "internalType": "bool",
          "name": "",
          "type": "bool"
        }
      ],
      "stateMutability": "view",
      "type": "function"
    },
    {
      "inputs": [],
      "name": "getVotersLength",
      "outputs": [
        {
          "internalType": "uint256",
          "name": "",
          "type": "uint256"
        }
      ],
      "stateMutability": "view",
      "type": "function"
    },
    {
      "inputs": [],
      "name": "get_voter_list",
      "outputs": [
        {
          "internalType": "address[]",
          "name": "",
          "type": "address[]"
        }
      ],
      "stateMutability": "view",
      "type": "function"
    },
    {
      "inputs": [
        {
          "internalType": "address",
          "name": "",
          "type": "address"
        }
      ],
      "name": "hasVoted",
      "outputs": [
        {
          "internalType": "bool",
          "name": "",
          "type": "bool"
        }
      ],
      "stateMutability": "view",
      "type": "function"
    },
    {
      "inputs": [
        {
          "internalType": "bool",
          "name": "",
          "type": "bool"
        }
      ],
      "name": "resetElection",
      "outputs": [],
      "stateMutability": "nonpayable",
      "type": "function"
    },
    {
      "inputs": [],
      "name": "startTime",
      "outputs": [
        {
          "internalType": "uint256",
          "name": "",
          "type": "uint256"
        }
      ],
      "stateMutability": "view",
      "type": "function"
    },
    {
      "inputs": [],
      "name": "state",
      "outputs": [
        {
          "internalType": "enum Devapp.ElectionState",
          "name": "",
          "type": "uint8"
        }
      ],
      "stateMutability": "view",
      "type": "function"
    },
    {
      "inputs": [],
      "name": "totalVotes",
      "outputs": [
        {
          "internalType": "uint256",
          "name": "",
          "type": "uint256"
        }
      ],
      "stateMutability": "view",
      "type": "function"
    },
    {
      "inputs": [
        {
          "internalType": "address",
          "name": "_candidateAddr",
          "type": "address"
        },
        {
          "internalType": "uint256",
          "name": "_candidateUniqueId",
          "type": "uint256"
        }
      ],
      "name": "voteBooth",
      "outputs": [],
      "stateMutability": "nonpayable",
      "type": "function"
    },
    {
      "inputs": [
        {
          "internalType": "uint256",
          "name": "",
          "type": "uint256"
        }
      ],
      "name": "voterAddresses",
      "outputs": [
        {
          "internalType": "address",
          "name": "",
          "type": "address"
        }
      ],
      "stateMutability": "view",
      "type": "function"
    },
    {
      "inputs": [
        {
          "internalType": "address",
          "name": "",
          "type": "address"
        }
      ],
      "name": "voters",
      "outputs": [
        {
          "internalType": "uint256",
          "name": "id",
          "type": "uint256"
        },
        {
          "internalType": "string",
          "name": "name",
          "type": "string"
        },
        {
          "internalType": "string",
          "name": "image",
          "type": "string"
        },
        {
          "internalType": "address",
          "name": "addr",
          "type": "address"
        },
        {
          "internalType": "uint256",
          "name": "voteCredits",
          "type": "uint256"
        },
        {
          "internalType": "bool",
          "name": "voted",
          "type": "bool"
        },
        {
          "internalType": "uint256",
          "name": "voteIndex",
          "type": "uint256"
        },
        {
          "internalType": "string",
          "name": "ipfs",
          "type": "string"
        }
      ],
      "stateMutability": "view",
      "type": "function"
    }
  ],
  "bytecode": "0x60806040526000600860006101000a81548160ff021916908360028111156200002d576200002c620000c9565b5b02179055503480156200003f57600080fd5b5073a1b94ef0f24d7f4fd02285efcb9202e6c6ec655b600260006101000a81548173ffffffffffffffffffffffffffffffffffffffff021916908373ffffffffffffffffffffffffffffffffffffffff1602179055506000600860006101000a81548160ff02191690836002811115620000be57620000bd620000c9565b5b0217905550620000f8565b7f4e487b7100000000000000000000000000000000000000000000000000000000600052602160045260246000fd5b61329280620001086000396000f3fe608060405234801561001057600080fd5b506004361061014d5760003560e01c80638ab66a90116100c3578063d09edf311161007c578063d09edf31146103b9578063d55d73c5146103d7578063dd0e237314610407578063de2237d314610437578063f76413ff14610455578063fc3f5078146104715761014d565b80638ab66a90146102bc5780638ef0c4d2146102f2578063a3ec138d14610310578063b8417f0e14610347578063ba71bef014610365578063c19d93fb1461039b5761014d565b80632a466ac7116101155780632a466ac7146101f65780635cf753a61461022c5780636e9960c3146102485780637203a7a5146102665780637657bec91461028257806378e979251461029e5761014d565b806309eef43e146101525780630c84b4b8146101825780630d15fd771461019e57806312fa6feb146101bc5780631923c3ef146101da575b600080fd5b61016c60048036038101906101679190612302565b61048f565b604051610179919061234a565b60405180910390f35b61019c60048036038101906101979190612391565b6104af565b005b6101a66105ea565b6040516101b391906123d7565b60405180910390f35b6101c46105f0565b6040516101d191906123d7565b60405180910390f35b6101f460048036038101906101ef9190612538565b6105f6565b005b610210600480360381019061020b9190612302565b6109ae565b604051610223979695949392919061268a565b60405180910390f35b61024660048036038101906102419190612391565b610cf7565b005b610250610e2a565b60405161025d9190612715565b60405180910390f35b610280600480360381019061027b919061275c565b610e54565b005b61029c6004803603810190610297919061279c565b611130565b005b6102a661150e565b6040516102b391906123d7565b60405180910390f35b6102d660048036038101906102d19190612302565b611514565b6040516102e99796959493929190612887565b60405180910390f35b6102fa611796565b60405161030791906129d0565b60405180910390f35b61032a60048036038101906103259190612302565b611884565b60405161033e9897969594939291906129f2565b60405180910390f35b61034f611a91565b60405161035c91906123d7565b60405180910390f35b61037f600480360381019061037a9190612302565b611a9e565b6040516103929796959493929190612a85565b60405180910390f35b6103a3611e66565b6040516103b09190612b80565b60405180910390f35b6103c1611e79565b6040516103ce9190612715565b60405180910390f35b6103f160048036038101906103ec9190612b9b565b611e9f565b6040516103fe9190612715565b60405180910390f35b610421600480360381019061041c9190612b9b565b611ede565b60405161042e9190612715565b60405180910390f35b61043f611f1d565b60405161044c91906123d7565b60405180910390f35b61046f600480360381019061046a9190612391565b611f2a565b005b6104796120db565b60405161048691906129d0565b60405180910390f35b600b6020528060005260406000206000915054906101000a900460ff1681565b600260009054906101000a900473ffffffffffffffffffffffffffffffffffffffff1673ffffffffffffffffffffffffffffffffffffffff163373ffffffffffffffffffffffffffffffffffffffff161461053f576040517f08c379a000000000000000000000000000000000000000000000000000000000815260040161053690612c3a565b60405180910390fd5b6001600281111561055357610552612b09565b5b600860009054906101000a900460ff16600281111561057557610574612b09565b5b146105b5576040517f08c379a00000000000000000000000000000000000000000000000000000000081526004016105ac90612ca6565b60405180910390fd5b6002600860006101000a81548160ff021916908360028111156105db576105da612b09565b5b02179055504260078190555050565b60055481565b60075481565b600260009054906101000a900473ffffffffffffffffffffffffffffffffffffffff1673ffffffffffffffffffffffffffffffffffffffff163373ffffffffffffffffffffffffffffffffffffffff1614610686576040517f08c379a000000000000000000000000000000000000000000000000000000000815260040161067d90612c3a565b60405180910390fd5b6000600281111561069a57610699612b09565b5b600860009054906101000a900460ff1660028111156106bc576106bb612b09565b5b146106fc576040517f08c379a00000000000000000000000000000000000000000000000000000000081526004016106f390612d12565b60405180910390fd5b60028081111561070f5761070e612b09565b5b600860009054906101000a900460ff16600281111561073157610730612b09565b5b1415610772576040517f08c379a000000000000000000000000000000000000000000000000000000000815260040161076990612d7e565b60405180910390fd5b61077c60006121c9565b600061078860006121df565b90506000600a60008773ffffffffffffffffffffffffffffffffffffffff1673ffffffffffffffffffffffffffffffffffffffff16815260200190815260200160002090506000816004015414610814576040517f08c379a000000000000000000000000000000000000000000000000000000000815260040161080b90612dea565b60405180910390fd5b60018160040181905550848160010190805190602001906108369291906121ed565b508381600201908051906020019061084f9291906121ed565b50858160030160006101000a81548173ffffffffffffffffffffffffffffffffffffffff021916908373ffffffffffffffffffffffffffffffffffffffff160217905550818160000181905550633b9aca00816006018190555060008160050160006101000a81548160ff021916908315150217905550828160070190805190602001906108de9291906121ed565b506004869080600181540180825580915050600190039060005260206000200160009091909190916101000a81548173ffffffffffffffffffffffffffffffffffffffff021916908373ffffffffffffffffffffffffffffffffffffffff16021790555080600001547ff5f39971dd62d9929e3a9feaa6bb77fe7c7da0001babff8a65a7e51ad0201c1986868985600401548660050160009054906101000a900460ff1687600601548860070160405161099e9796959493929190612f00565b60405180910390a2505050505050565b6060806000606060006060600080600960008a73ffffffffffffffffffffffffffffffffffffffff1673ffffffffffffffffffffffffffffffffffffffff1681526020019081526020016000206040518060e001604052908160008201548152602001600182018054610a2090612e39565b80601f0160208091040260200160405190810160405280929190818152602001828054610a4c90612e39565b8015610a995780601f10610a6e57610100808354040283529160200191610a99565b820191906000526020600020905b815481529060010190602001808311610a7c57829003601f168201915b50505050508152602001600282018054610ab290612e39565b80601f0160208091040260200160405190810160405280929190818152602001828054610ade90612e39565b8015610b2b5780601f10610b0057610100808354040283529160200191610b2b565b820191906000526020600020905b815481529060010190602001808311610b0e57829003601f168201915b50505050508152602001600382018054610b4490612e39565b80601f0160208091040260200160405190810160405280929190818152602001828054610b7090612e39565b8015610bbd5780601f10610b9257610100808354040283529160200191610bbd565b820191906000526020600020905b815481529060010190602001808311610ba057829003601f168201915b50505050508152602001600482015481526020016005820160009054906101000a900473ffffffffffffffffffffffffffffffffffffffff1673ffffffffffffffffffffffffffffffffffffffff1673ffffffffffffffffffffffffffffffffffffffff168152602001600682018054610c3690612e39565b80601f0160208091040260200160405190810160405280929190818152602001828054610c6290612e39565b8015610caf5780601f10610c8457610100808354040283529160200191610caf565b820191906000526020600020905b815481529060010190602001808311610c9257829003601f168201915b5050505050815250509050806020015181604001518260000151836060015184608001518560c001518660a00151975097509750975097509750975050919395979092949650565b600260009054906101000a900473ffffffffffffffffffffffffffffffffffffffff1673ffffffffffffffffffffffffffffffffffffffff163373ffffffffffffffffffffffffffffffffffffffff1614610d87576040517f08c379a0000000000000000000000000000000000000000000000000000000008152600401610d7e90612c3a565b60405180910390fd5b600280811115610d9a57610d99612b09565b5b600860009054906101000a900460ff166002811115610dbc57610dbb612b09565b5b14610dfc576040517f08c379a0000000000000000000000000000000000000000000000000000000008152600401610df390612fd0565b60405180910390fd5b6000600860006101000a81548160ff02191690836002811115610e2257610e21612b09565b5b021790555050565b6000600260009054906101000a900473ffffffffffffffffffffffffffffffffffffffff16905090565b60006002811115610e6857610e67612b09565b5b600860009054906101000a900460ff166002811115610e8a57610e89612b09565b5b14610eca576040517f08c379a0000000000000000000000000000000000000000000000000000000008152600401610ec190612d12565b60405180910390fd5b600280811115610edd57610edc612b09565b5b600860009054906101000a900460ff166002811115610eff57610efe612b09565b5b1415610f40576040517f08c379a0000000000000000000000000000000000000000000000000000000008152600401610f3790612d7e565b60405180910390fd5b6000600a600073a1b94ef0f24d7f4fd02285efcb9202e6c6ec655b73ffffffffffffffffffffffffffffffffffffffff1673ffffffffffffffffffffffffffffffffffffffff16815260200190815260200160002090508060050160009054906101000a900460ff1615610fe9576040517f08c379a0000000000000000000000000000000000000000000000000000000008152600401610fe09061303c565b60405180910390fd5b600081600401541415611031576040517f08c379a0000000000000000000000000000000000000000000000000000000008152600401611028906130ce565b60405180910390fd5b60018160050160006101000a81548160ff021916908315150217905550818160060181905550600473a1b94ef0f24d7f4fd02285efcb9202e6c6ec655b9080600181540180825580915050600190039060005260206000200160009091909190916101000a81548173ffffffffffffffffffffffffffffffffffffffff021916908373ffffffffffffffffffffffffffffffffffffffff1602179055508060040154600960008573ffffffffffffffffffffffffffffffffffffffff1673ffffffffffffffffffffffffffffffffffffffff1681526020019081526020016000206004016000828254611124919061311d565b92505081905550505050565b600260009054906101000a900473ffffffffffffffffffffffffffffffffffffffff1673ffffffffffffffffffffffffffffffffffffffff163373ffffffffffffffffffffffffffffffffffffffff16146111c0576040517f08c379a00000000000000000000000000000000000000000000000000000000081526004016111b790612c3a565b60405180910390fd5b600060028111156111d4576111d3612b09565b5b600860009054906101000a900460ff1660028111156111f6576111f5612b09565b5b14611236576040517f08c379a000000000000000000000000000000000000000000000000000000000815260040161122d90612d12565b60405180910390fd5b60028081111561124957611248612b09565b5b600860009054906101000a900460ff16600281111561126b5761126a612b09565b5b14156112ac576040517f08c379a00000000000000000000000000000000000000000000000000000000081526004016112a390612d7e565b60405180910390fd5b600073ffffffffffffffffffffffffffffffffffffffff168573ffffffffffffffffffffffffffffffffffffffff16141561131c576040517f08c379a0000000000000000000000000000000000000000000000000000000008152600401611313906131bf565b60405180910390fd5b61132660016121c9565b600061133260016121df565b90506000600960008873ffffffffffffffffffffffffffffffffffffffff1673ffffffffffffffffffffffffffffffffffffffff1681526020019081526020016000209050818160000181905550858160020190805190602001906113989291906121ed565b50848160010190805190602001906113b19291906121ed565b50838160030190805190602001906113ca9291906121ed565b5060008160040181905550868160050160006101000a81548173ffffffffffffffffffffffffffffffffffffffff021916908373ffffffffffffffffffffffffffffffffffffffff160217905550828160060190805190602001906114309291906121ed565b506003879080600181540180825580915050600190039060005260206000200160009091909190916101000a81548173ffffffffffffffffffffffffffffffffffffffff021916908373ffffffffffffffffffffffffffffffffffffffff16021790555080600001547f978d20e26392611c02bd1a6e72cc85fa19bd1024b23c12155f8183fbc90902e787878785600401548660050160009054906101000a900473ffffffffffffffffffffffffffffffffffffffff16876006016040516114fd969594939291906131df565b60405180910390a250505050505050565b60065481565b600960205280600052604060002060009150905080600001549080600101805461153d90612e39565b80601f016020809104026020016040519081016040528092919081815260200182805461156990612e39565b80156115b65780601f1061158b576101008083540402835291602001916115b6565b820191906000526020600020905b81548152906001019060200180831161159957829003601f168201915b5050505050908060020180546115cb90612e39565b80601f01602080910402602001604051908101604052809291908181526020018280546115f790612e39565b80156116445780601f1061161957610100808354040283529160200191611644565b820191906000526020600020905b81548152906001019060200180831161162757829003601f168201915b50505050509080600301805461165990612e39565b80601f016020809104026020016040519081016040528092919081815260200182805461168590612e39565b80156116d25780601f106116a7576101008083540402835291602001916116d2565b820191906000526020600020905b8154815290600101906020018083116116b557829003601f168201915b5050505050908060040154908060050160009054906101000a900473ffffffffffffffffffffffffffffffffffffffff169080600601805461171390612e39565b80601f016020809104026020016040519081016040528092919081815260200182805461173f90612e39565b801561178c5780601f106117615761010080835404028352916020019161178c565b820191906000526020600020905b81548152906001019060200180831161176f57829003601f168201915b5050505050905087565b6060600060048054905014156117f757600067ffffffffffffffff8111156117c1576117c061240d565b5b6040519080825280602002602001820160405280156117ef5781602001602082028036833780820191505090505b509050611881565b600480548060200260200160405190810160405280929190818152602001828054801561187957602002820191906000526020600020905b8160009054906101000a900473ffffffffffffffffffffffffffffffffffffffff1673ffffffffffffffffffffffffffffffffffffffff168152602001906001019080831161182f575b505050505090505b90565b600a6020528060005260406000206000915090508060000154908060010180546118ad90612e39565b80601f01602080910402602001604051908101604052809291908181526020018280546118d990612e39565b80156119265780601f106118fb57610100808354040283529160200191611926565b820191906000526020600020905b81548152906001019060200180831161190957829003601f168201915b50505050509080600201805461193b90612e39565b80601f016020809104026020016040519081016040528092919081815260200182805461196790612e39565b80156119b45780601f10611989576101008083540402835291602001916119b4565b820191906000526020600020905b81548152906001019060200180831161199757829003601f168201915b5050505050908060030160009054906101000a900473ffffffffffffffffffffffffffffffffffffffff16908060040154908060050160009054906101000a900460ff1690806006015490806007018054611a0e90612e39565b80601f0160208091040260200160405190810160405280929190818152602001828054611a3a90612e39565b8015611a875780601f10611a5c57610100808354040283529160200191611a87565b820191906000526020600020905b815481529060010190602001808311611a6a57829003601f168201915b5050505050905088565b6000600380549050905090565b600060608060006060600080600a60008973ffffffffffffffffffffffffffffffffffffffff1673ffffffffffffffffffffffffffffffffffffffff16815260200190815260200160002060000154600a60008a73ffffffffffffffffffffffffffffffffffffffff1673ffffffffffffffffffffffffffffffffffffffff168152602001908152602001600020600101600a60008b73ffffffffffffffffffffffffffffffffffffffff1673ffffffffffffffffffffffffffffffffffffffff168152602001908152602001600020600201600a60008c73ffffffffffffffffffffffffffffffffffffffff1673ffffffffffffffffffffffffffffffffffffffff16815260200190815260200160002060030160009054906101000a900473ffffffffffffffffffffffffffffffffffffffff16600a60008d73ffffffffffffffffffffffffffffffffffffffff1673ffffffffffffffffffffffffffffffffffffffff168152602001908152602001600020600701600a60008e73ffffffffffffffffffffffffffffffffffffffff1673ffffffffffffffffffffffffffffffffffffffff16815260200190815260200160002060040154600a60008f73ffffffffffffffffffffffffffffffffffffffff1673ffffffffffffffffffffffffffffffffffffffff16815260200190815260200160002060050160009054906101000a900460ff16858054611cb590612e39565b80601f0160208091040260200160405190810160405280929190818152602001828054611ce190612e39565b8015611d2e5780601f10611d0357610100808354040283529160200191611d2e565b820191906000526020600020905b815481529060010190602001808311611d1157829003601f168201915b50505050509550848054611d4190612e39565b80601f0160208091040260200160405190810160405280929190818152602001828054611d6d90612e39565b8015611dba5780601f10611d8f57610100808354040283529160200191611dba565b820191906000526020600020905b815481529060010190602001808311611d9d57829003601f168201915b50505050509450828054611dcd90612e39565b80601f0160208091040260200160405190810160405280929190818152602001828054611df990612e39565b8015611e465780601f10611e1b57610100808354040283529160200191611e46565b820191906000526020600020905b815481529060010190602001808311611e2957829003601f168201915b505050505092509650965096509650965096509650919395979092949650565b600860009054906101000a900460ff1681565b600260009054906101000a900473ffffffffffffffffffffffffffffffffffffffff1681565b60038181548110611eaf57600080fd5b906000526020600020016000915054906101000a900473ffffffffffffffffffffffffffffffffffffffff1681565b60048181548110611eee57600080fd5b906000526020600020016000915054906101000a900473ffffffffffffffffffffffffffffffffffffffff1681565b6000600480549050905090565b600260009054906101000a900473ffffffffffffffffffffffffffffffffffffffff1673ffffffffffffffffffffffffffffffffffffffff163373ffffffffffffffffffffffffffffffffffffffff1614611fba576040517f08c379a0000000000000000000000000000000000000000000000000000000008152600401611fb190612c3a565b60405180910390fd5b60006002811115611fce57611fcd612b09565b5b600860009054906101000a900460ff166002811115611ff057611fef612b09565b5b14612030576040517f08c379a000000000000000000000000000000000000000000000000000000000815260040161202790612d12565b60405180910390fd5b60028081111561204357612042612b09565b5b600860009054906101000a900460ff16600281111561206557612064612b09565b5b14156120a6576040517f08c379a000000000000000000000000000000000000000000000000000000000815260040161209d90612d7e565b60405180910390fd5b6001600860006101000a81548160ff021916908360028111156120cc576120cb612b09565b5b02179055504260068190555050565b60606000600380549050141561213c57600067ffffffffffffffff8111156121065761210561240d565b5b6040519080825280602002602001820160405280156121345781602001602082028036833780820191505090505b5090506121c6565b60038054806020026020016040519081016040528092919081815260200182805480156121be57602002820191906000526020600020905b8160009054906101000a900473ffffffffffffffffffffffffffffffffffffffff1673ffffffffffffffffffffffffffffffffffffffff1681526020019060010190808311612174575b505050505090505b90565b6001816000016000828254019250508190555050565b600081600001549050919050565b8280546121f990612e39565b90600052602060002090601f01602090048101928261221b5760008555612262565b82601f1061223457805160ff1916838001178555612262565b82800160010185558215612262579182015b82811115612261578251825591602001919060010190612246565b5b50905061226f9190612273565b5090565b5b8082111561228c576000816000905550600101612274565b5090565b6000604051905090565b600080fd5b600080fd5b600073ffffffffffffffffffffffffffffffffffffffff82169050919050565b60006122cf826122a4565b9050919050565b6122df816122c4565b81146122ea57600080fd5b50565b6000813590506122fc816122d6565b92915050565b6000602082840312156123185761231761229a565b5b6000612326848285016122ed565b91505092915050565b60008115159050919050565b6123448161232f565b82525050565b600060208201905061235f600083018461233b565b92915050565b61236e8161232f565b811461237957600080fd5b50565b60008135905061238b81612365565b92915050565b6000602082840312156123a7576123a661229a565b5b60006123b58482850161237c565b91505092915050565b6000819050919050565b6123d1816123be565b82525050565b60006020820190506123ec60008301846123c8565b92915050565b600080fd5b600080fd5b6000601f19601f8301169050919050565b7f4e487b7100000000000000000000000000000000000000000000000000000000600052604160045260246000fd5b612445826123fc565b810181811067ffffffffffffffff821117156124645761246361240d565b5b80604052505050565b6000612477612290565b9050612483828261243c565b919050565b600067ffffffffffffffff8211156124a3576124a261240d565b5b6124ac826123fc565b9050602081019050919050565b82818337600083830152505050565b60006124db6124d684612488565b61246d565b9050828152602081018484840111156124f7576124f66123f7565b5b6125028482856124b9565b509392505050565b600082601f83011261251f5761251e6123f2565b5b813561252f8482602086016124c8565b91505092915050565b600080600080608085870312156125525761255161229a565b5b6000612560878288016122ed565b945050602085013567ffffffffffffffff8111156125815761258061229f565b5b61258d8782880161250a565b935050604085013567ffffffffffffffff8111156125ae576125ad61229f565b5b6125ba8782880161250a565b925050606085013567ffffffffffffffff8111156125db576125da61229f565b5b6125e78782880161250a565b91505092959194509250565b600081519050919050565b600082825260208201905092915050565b60005b8381101561262d578082015181840152602081019050612612565b8381111561263c576000848401525b50505050565b600061264d826125f3565b61265781856125fe565b935061266781856020860161260f565b612670816123fc565b840191505092915050565b612684816122c4565b82525050565b600060e08201905081810360008301526126a4818a612642565b905081810360208301526126b88189612642565b90506126c760408301886123c8565b81810360608301526126d98187612642565b90506126e860808301866123c8565b81810360a08301526126fa8185612642565b905061270960c083018461267b565b98975050505050505050565b600060208201905061272a600083018461267b565b92915050565b612739816123be565b811461274457600080fd5b50565b60008135905061275681612730565b92915050565b600080604083850312156127735761277261229a565b5b6000612781858286016122ed565b925050602061279285828601612747565b9150509250929050565b600080600080600060a086880312156127b8576127b761229a565b5b60006127c6888289016122ed565b955050602086013567ffffffffffffffff8111156127e7576127e661229f565b5b6127f38882890161250a565b945050604086013567ffffffffffffffff8111156128145761281361229f565b5b6128208882890161250a565b935050606086013567ffffffffffffffff8111156128415761284061229f565b5b61284d8882890161250a565b925050608086013567ffffffffffffffff81111561286e5761286d61229f565b5b61287a8882890161250a565b9150509295509295909350565b600060e08201905061289c600083018a6123c8565b81810360208301526128ae8189612642565b905081810360408301526128c28188612642565b905081810360608301526128d68187612642565b90506128e560808301866123c8565b6128f260a083018561267b565b81810360c08301526129048184612642565b905098975050505050505050565b600081519050919050565b600082825260208201905092915050565b6000819050602082019050919050565b612947816122c4565b82525050565b6000612959838361293e565b60208301905092915050565b6000602082019050919050565b600061297d82612912565b612987818561291d565b93506129928361292e565b8060005b838110156129c35781516129aa888261294d565b97506129b583612965565b925050600181019050612996565b5085935050505092915050565b600060208201905081810360008301526129ea8184612972565b905092915050565b600061010082019050612a08600083018b6123c8565b8181036020830152612a1a818a612642565b90508181036040830152612a2e8189612642565b9050612a3d606083018861267b565b612a4a60808301876123c8565b612a5760a083018661233b565b612a6460c08301856123c8565b81810360e0830152612a768184612642565b90509998505050505050505050565b600060e082019050612a9a600083018a6123c8565b8181036020830152612aac8189612642565b90508181036040830152612ac08188612642565b9050612acf606083018761267b565b8181036080830152612ae18186612642565b9050612af060a08301856123c8565b612afd60c083018461233b565b98975050505050505050565b7f4e487b7100000000000000000000000000000000000000000000000000000000600052602160045260246000fd5b60038110612b4957612b48612b09565b5b50565b6000819050612b5a82612b38565b919050565b6000612b6a82612b4c565b9050919050565b612b7a81612b5f565b82525050565b6000602082019050612b956000830184612b71565b92915050565b600060208284031215612bb157612bb061229a565b5b6000612bbf84828501612747565b91505092915050565b7f4f6e6c792074686520636f6e747261637420617574686f72697a65722063616e60008201527f2063616c6c20746869732066756e6374696f6e2e000000000000000000000000602082015250565b6000612c246034836125fe565b9150612c2f82612bc8565b604082019050919050565b60006020820190508181036000830152612c5381612c17565b9050919050565b7f456c656374696f6e20686173206e6f7420737461727465642100000000000000600082015250565b6000612c906019836125fe565b9150612c9b82612c5a565b602082019050919050565b60006020820190508181036000830152612cbf81612c83565b9050919050565b7f456c656374696f6e2068617320616c726561647920737461727465642e000000600082015250565b6000612cfc601d836125fe565b9150612d0782612cc6565b602082019050919050565b60006020820190508181036000830152612d2b81612cef565b9050919050565b7f456c656374696f6e2068617320616c726561647920656e646564000000000000600082015250565b6000612d68601a836125fe565b9150612d7382612d32565b602082019050919050565b60006020820190508181036000830152612d9781612d5b565b9050919050565b7f54686973206163636f756e7420616c7265616479206578697374730000000000600082015250565b6000612dd4601b836125fe565b9150612ddf82612d9e565b602082019050919050565b60006020820190508181036000830152612e0381612dc7565b9050919050565b7f4e487b7100000000000000000000000000000000000000000000000000000000600052602260045260246000fd5b60006002820490506001821680612e5157607f821691505b60208210811415612e6557612e64612e0a565b5b50919050565b60008190508160005260206000209050919050565b60008154612e8d81612e39565b612e9781866125fe565b94506001821660008114612eb25760018114612ec457612ef7565b60ff1983168652602086019350612ef7565b612ecd85612e6b565b60005b83811015612eef57815481890152600182019150602081019050612ed0565b808801955050505b50505092915050565b600060e0820190508181036000830152612f1a818a612642565b90508181036020830152612f2e8189612642565b9050612f3d604083018861267b565b612f4a60608301876123c8565b612f57608083018661233b565b612f6460a08301856123c8565b81810360c0830152612f768184612e80565b905098975050505050505050565b7f456c656374696f6e20686173206e6f7420656e6465642e000000000000000000600082015250565b6000612fba6017836125fe565b9150612fc582612f84565b602082019050919050565b60006020820190508181036000830152612fe981612fad565b9050919050565b7f596f752063616e277420766f74652074776963652e0000000000000000000000600082015250565b60006130266015836125fe565b915061303182612ff0565b602082019050919050565b6000602082019050818103600083015261305581613019565b9050919050565b7f596f7572206163636f756e742069736e27742072656769737465726564206f7260008201527f20617574686f72697a65642e0000000000000000000000000000000000000000602082015250565b60006130b8602c836125fe565b91506130c38261305c565b604082019050919050565b600060208201905081810360008301526130e7816130ab565b9050919050565b7f4e487b7100000000000000000000000000000000000000000000000000000000600052601160045260246000fd5b6000613128826123be565b9150613133836123be565b9250827fffffffffffffffffffffffffffffffffffffffffffffffffffffffffffffffff03821115613168576131676130ee565b5b828201905092915050565b7f43616e64696461746520616464726573732063616e6e6f74206265207a65726f600082015250565b60006131a96020836125fe565b91506131b482613173565b602082019050919050565b600060208201905081810360008301526131d88161319c565b9050919050565b600060c08201905081810360008301526131f98189612642565b9050818103602083015261320d8188612642565b905081810360408301526132218187612642565b905061323060608301866123c8565b61323d608083018561267b565b81810360a083015261324f8184612e80565b905097965050505050505056fea264697066735822122001312be8f8d42d618bbd57c8d990255877c2f0ecd4648e5f777ec84aef5859a764736f6c63430008090033",
  "linkReferences": {},
  "deployedLinkReferences": {}
}