{
  "_format": "hh-sol-artifact-1",
  "contractName": "Devapp",
  "sourceName": "contracts/DevappContract.sol",
  "abi": [
    {
      "inputs": [],
      "stateMutability": "nonpayable",
      "type": "constructor"
    },
    {
      "anonymous": false,
      "inputs": [
        {
          "indexed": true,
          "internalType": "uint256",
          "name": "id",
          "type": "uint256"
        },
        {
          "indexed": false,
          "internalType": "string",
          "name": "age",
          "type": "string"
        },
        {
          "indexed": false,
          "internalType": "string",
          "name": "name",
          "type": "string"
        },
        {
          "indexed": false,
          "internalType": "string",
          "name": "image",
          "type": "string"
        },
        {
          "indexed": false,
          "internalType": "uint256",
          "name": "voteCount",
          "type": "uint256"
        },
        {
          "indexed": false,
          "internalType": "address",
          "name": "addr",
          "type": "address"
        },
        {
          "indexed": false,
          "internalType": "string",
          "name": "ipfs",
          "type": "string"
        }
      ],
      "name": "CandidateCreated",
      "type": "event"
    },
    {
      "anonymous": false,
      "inputs": [
        {
          "indexed": true,
          "internalType": "uint256",
          "name": "id",
          "type": "uint256"
        },
        {
          "indexed": false,
          "internalType": "string",
          "name": "name",
          "type": "string"
        },
        {
          "indexed": false,
          "internalType": "string",
          "name": "image",
          "type": "string"
        },
        {
          "indexed": false,
          "internalType": "address",
          "name": "addr",
          "type": "address"
        },
        {
          "indexed": false,
          "internalType": "uint256",
          "name": "voteCredits",
          "type": "uint256"
        },
        {
          "indexed": false,
          "internalType": "bool",
          "name": "voted",
          "type": "bool"
        },
        {
          "indexed": false,
          "internalType": "uint256",
          "name": "voteIndex",
          "type": "uint256"
        },
        {
          "indexed": false,
          "internalType": "string",
          "name": "ipfs",
          "type": "string"
        }
      ],
      "name": "VoterCreated",
      "type": "event"
    },
    {
      "inputs": [],
      "name": "authorizer",
      "outputs": [
        {
          "internalType": "address",
          "name": "",
          "type": "address"
        }
      ],
      "stateMutability": "view",
      "type": "function"
    },
    {
      "inputs": [
        {
          "internalType": "uint256",
          "name": "",
          "type": "uint256"
        }
      ],
      "name": "candidateAddresses",
      "outputs": [
        {
          "internalType": "address",
          "name": "",
          "type": "address"
        }
      ],
      "stateMutability": "view",
      "type": "function"
    },
    {
      "inputs": [
        {
          "internalType": "address",
          "name": "",
          "type": "address"
        }
      ],
      "name": "candidates",
      "outputs": [
        {
          "internalType": "uint256",
          "name": "id",
          "type": "uint256"
        },
        {
          "internalType": "string",
          "name": "age",
          "type": "string"
        },
        {
          "internalType": "string",
          "name": "name",
          "type": "string"
        },
        {
          "internalType": "string",
          "name": "image",
          "type": "string"
        },
        {
          "internalType": "uint256",
          "name": "voteCount",
          "type": "uint256"
        },
        {
          "internalType": "address",
          "name": "addr",
          "type": "address"
        },
        {
          "internalType": "string",
          "name": "ipfs",
          "type": "string"
        }
      ],
      "stateMutability": "view",
      "type": "function"
    },
    {
      "inputs": [
        {
          "internalType": "bool",
          "name": "",
          "type": "bool"
        }
      ],
      "name": "commenceElection",
      "outputs": [],
      "stateMutability": "nonpayable",
      "type": "function"
    },
    {
      "inputs": [],
      "name": "countdown",
      "outputs": [
        {
          "internalType": "uint256",
          "name": "_lapse",
          "type": "uint256"
        }
      ],
      "stateMutability": "view",
      "type": "function"
    },
    {
      "inputs": [
        {
          "internalType": "address",
          "name": "_addr",
          "type": "address"
        },
        {
          "internalType": "string",
          "name": "_name",
          "type": "string"
        },
        {
          "internalType": "string",
          "name": "_age",
          "type": "string"
        },
        {
          "internalType": "string",
          "name": "_image",
          "type": "string"
        },
        {
          "internalType": "string",
          "name": "_ipfs",
          "type": "string"
        }
      ],
      "name": "createCandidate",
      "outputs": [],
      "stateMutability": "nonpayable",
      "type": "function"
    },
    {
      "inputs": [
        {
          "internalType": "address",
          "name": "_addr",
          "type": "address"
        },
        {
          "internalType": "string",
          "name": "_name",
          "type": "string"
        },
        {
          "internalType": "string",
          "name": "_image",
          "type": "string"
        },
        {
          "internalType": "string",
          "name": "_ipfs",
          "type": "string"
        }
      ],
      "name": "createVoters",
      "outputs": [],
      "stateMutability": "nonpayable",
      "type": "function"
    },
    {
      "inputs": [],
      "name": "electionEnds",
      "outputs": [
        {
          "internalType": "string",
          "name": "message",
          "type": "string"
        }
      ],
      "stateMutability": "view",
      "type": "function"
    },
    {
      "inputs": [],
      "name": "endTime",
      "outputs": [
        {
          "internalType": "uint256",
          "name": "",
          "type": "uint256"
        }
      ],
      "stateMutability": "view",
      "type": "function"
    },
    {
      "inputs": [],
      "name": "ended",
      "outputs": [
        {
          "internalType": "bool",
          "name": "",
          "type": "bool"
        }
      ],
      "stateMutability": "view",
      "type": "function"
    },
    {
      "inputs": [],
      "name": "getCandidateAddress",
      "outputs": [
        {
          "internalType": "address[]",
          "name": "",
          "type": "address[]"
        }
      ],
      "stateMutability": "view",
      "type": "function"
    },
    {
      "inputs": [],
      "name": "getCandidateAddressesLength",
      "outputs": [
        {
          "internalType": "uint256",
          "name": "",
          "type": "uint256"
        }
      ],
      "stateMutability": "view",
      "type": "function"
    },
    {
      "inputs": [
        {
          "internalType": "address",
          "name": "_address",
          "type": "address"
        }
      ],
      "name": "getCandidateData",
      "outputs": [
        {
          "internalType": "string",
          "name": "",
          "type": "string"
        },
        {
          "internalType": "string",
          "name": "",
          "type": "string"
        },
        {
          "internalType": "uint256",
          "name": "",
          "type": "uint256"
        },
        {
          "internalType": "string",
          "name": "",
          "type": "string"
        },
        {
          "internalType": "uint256",
          "name": "",
          "type": "uint256"
        },
        {
          "internalType": "string",
          "name": "",
          "type": "string"
        },
        {
          "internalType": "address",
          "name": "",
          "type": "address"
        }
      ],
      "stateMutability": "view",
      "type": "function"
    },
    {
      "inputs": [
        {
          "internalType": "address",
          "name": "_addr",
          "type": "address"
        }
      ],
      "name": "getVoterDetails",
      "outputs": [
        {
          "internalType": "uint256",
          "name": "",
          "type": "uint256"
        },
        {
          "internalType": "string",
          "name": "",
          "type": "string"
        },
        {
          "internalType": "string",
          "name": "",
          "type": "string"
        },
        {
          "internalType": "address",
          "name": "",
          "type": "address"
        },
        {
          "internalType": "string",
          "name": "",
          "type": "string"
        },
        {
          "internalType": "uint256",
          "name": "",
          "type": "uint256"
        },
        {
          "internalType": "bool",
          "name": "",
          "type": "bool"
        }
      ],
      "stateMutability": "view",
      "type": "function"
    },
    {
      "inputs": [],
      "name": "getVotersLength",
      "outputs": [
        {
          "internalType": "uint256",
          "name": "",
          "type": "uint256"
        }
      ],
      "stateMutability": "view",
      "type": "function"
    },
    {
      "inputs": [],
      "name": "get_voter_list",
      "outputs": [
        {
          "internalType": "address[]",
          "name": "",
          "type": "address[]"
        }
      ],
      "stateMutability": "view",
      "type": "function"
    },
    {
      "inputs": [
        {
          "internalType": "address",
          "name": "",
          "type": "address"
        }
      ],
      "name": "hasVoted",
      "outputs": [
        {
          "internalType": "bool",
          "name": "",
          "type": "bool"
        }
      ],
      "stateMutability": "view",
      "type": "function"
    },
    {
      "inputs": [],
      "name": "started",
      "outputs": [
        {
          "internalType": "bool",
          "name": "",
          "type": "bool"
        }
      ],
      "stateMutability": "view",
      "type": "function"
    },
    {
      "inputs": [],
      "name": "state",
      "outputs": [
        {
          "internalType": "enum Devapp.ElectionState",
          "name": "",
          "type": "uint8"
        }
      ],
      "stateMutability": "view",
      "type": "function"
    },
    {
      "inputs": [],
      "name": "totalVotes",
      "outputs": [
        {
          "internalType": "uint256",
          "name": "",
          "type": "uint256"
        }
      ],
      "stateMutability": "view",
      "type": "function"
    },
    {
      "inputs": [
        {
          "internalType": "address",
          "name": "_candidateAddr",
          "type": "address"
        },
        {
          "internalType": "uint256",
          "name": "_candidateUniqueId",
          "type": "uint256"
        }
      ],
      "name": "voteBooth",
      "outputs": [],
      "stateMutability": "nonpayable",
      "type": "function"
    },
    {
      "inputs": [
        {
          "internalType": "uint256",
          "name": "",
          "type": "uint256"
        }
      ],
      "name": "voterAddresses",
      "outputs": [
        {
          "internalType": "address",
          "name": "",
          "type": "address"
        }
      ],
      "stateMutability": "view",
      "type": "function"
    },
    {
      "inputs": [
        {
          "internalType": "address",
          "name": "",
          "type": "address"
        }
      ],
      "name": "voters",
      "outputs": [
        {
          "internalType": "uint256",
          "name": "id",
          "type": "uint256"
        },
        {
          "internalType": "string",
          "name": "name",
          "type": "string"
        },
        {
          "internalType": "string",
          "name": "image",
          "type": "string"
        },
        {
          "internalType": "address",
          "name": "addr",
          "type": "address"
        },
        {
          "internalType": "uint256",
          "name": "voteCredits",
          "type": "uint256"
        },
        {
          "internalType": "bool",
          "name": "voted",
          "type": "bool"
        },
        {
          "internalType": "uint256",
          "name": "voteIndex",
          "type": "uint256"
        },
        {
          "internalType": "string",
          "name": "ipfs",
          "type": "string"
        }
      ],
      "stateMutability": "view",
      "type": "function"
    }
  ],
  "bytecode": "0x60806040523480156200001157600080fd5b5033600260006101000a81548173ffffffffffffffffffffffffffffffffffffffff021916908373ffffffffffffffffffffffffffffffffffffffff1602179055506000600760026101000a81548160ff021916908360028111156200007c576200007b62000087565b5b0217905550620000b6565b7f4e487b7100000000000000000000000000000000000000000000000000000000600052602160045260246000fd5b612f1680620000c66000396000f3fe608060405234801561001057600080fd5b506004361061014d5760003560e01c8063a3ec138d116100c3578063d55d73c51161007c578063d55d73c5146103bd578063dd0e2373146103ed578063de2237d31461041d578063f76413ff1461043b578063fc3f507814610457578063fdebb490146104755761014d565b8063a3ec138d146102d8578063b8417f0e1461030f578063ba71bef01461032d578063c19d93fb14610363578063cba8887214610381578063d09edf311461039f5761014d565b80632a466ac7116101155780632a466ac7146101f85780633197cbb61461022e5780637203a7a51461024c5780637657bec9146102685780638ab66a90146102845780638ef0c4d2146102ba5761014d565b806309eef43e146101525780630d15fd771461018257806312fa6feb146101a05780631923c3ef146101be5780631f2698ab146101da575b600080fd5b61016c600480360381019061016791906120a8565b610493565b60405161017991906120f0565b60405180910390f35b61018a6104b3565b6040516101979190612124565b60405180910390f35b6101a86104b9565b6040516101b591906120f0565b60405180910390f35b6101d860048036038101906101d39190612285565b6104cc565b005b6101e2610884565b6040516101ef91906120f0565b60405180910390f35b610212600480360381019061020d91906120a8565b610897565b60405161022597969594939291906123d7565b60405180910390f35b610236610be0565b6040516102439190612124565b60405180910390f35b6102666004803603810190610261919061248e565b610be6565b005b610282600480360381019061027d91906124ce565b610f2a565b005b61029e600480360381019061029991906120a8565b611298565b6040516102b197969594939291906125b9565b60405180910390f35b6102c261151a565b6040516102cf9190612702565b60405180910390f35b6102f260048036038101906102ed91906120a8565b6115a8565b604051610306989796959493929190612724565b60405180910390f35b6103176117b5565b6040516103249190612124565b60405180910390f35b610347600480360381019061034291906120a8565b6117c2565b60405161035a97969594939291906127b7565b60405180910390f35b61036b611b8a565b60405161037891906128b2565b60405180910390f35b610389611b9d565b6040516103969190612124565b60405180910390f35b6103a7611be7565b6040516103b491906128cd565b60405180910390f35b6103d760048036038101906103d291906128e8565b611c0d565b6040516103e491906128cd565b60405180910390f35b610407600480360381019061040291906128e8565b611c4c565b60405161041491906128cd565b60405180910390f35b610425611c8b565b6040516104329190612124565b60405180910390f35b61045560048036038101906104509190612941565b611c98565b005b61045f611e55565b60405161046c9190612702565b60405180910390f35b61047d611ee3565b60405161048a919061296e565b60405180910390f35b600a6020528060005260406000206000915054906101000a900460ff1681565b60055481565b600760009054906101000a900460ff1681565b600260009054906101000a900473ffffffffffffffffffffffffffffffffffffffff1673ffffffffffffffffffffffffffffffffffffffff163373ffffffffffffffffffffffffffffffffffffffff161461055c576040517f08c379a000000000000000000000000000000000000000000000000000000000815260040161055390612a02565b60405180910390fd5b600060028111156105705761056f61283b565b5b600760029054906101000a900460ff1660028111156105925761059161283b565b5b146105d2576040517f08c379a00000000000000000000000000000000000000000000000000000000081526004016105c990612a6e565b60405180910390fd5b6002808111156105e5576105e461283b565b5b600760029054906101000a900460ff1660028111156106075761060661283b565b5b1415610648576040517f08c379a000000000000000000000000000000000000000000000000000000000815260040161063f90612ada565b60405180910390fd5b6106526000611f6f565b600061065e6000611f85565b90506000600960008773ffffffffffffffffffffffffffffffffffffffff1673ffffffffffffffffffffffffffffffffffffffff168152602001908152602001600020905060008160040154146106ea576040517f08c379a00000000000000000000000000000000000000000000000000000000081526004016106e190612b46565b60405180910390fd5b600181600401819055508481600101908051906020019061070c929190611f93565b5083816002019080519060200190610725929190611f93565b50858160030160006101000a81548173ffffffffffffffffffffffffffffffffffffffff021916908373ffffffffffffffffffffffffffffffffffffffff160217905550818160000181905550633b9aca00816006018190555060008160050160006101000a81548160ff021916908315150217905550828160070190805190602001906107b4929190611f93565b506004869080600181540180825580915050600190039060005260206000200160009091909190916101000a81548173ffffffffffffffffffffffffffffffffffffffff021916908373ffffffffffffffffffffffffffffffffffffffff16021790555080600001547ff5f39971dd62d9929e3a9feaa6bb77fe7c7da0001babff8a65a7e51ad0201c1986868985600401548660050160009054906101000a900460ff168760060154886007016040516108749796959493929190612c5c565b60405180910390a2505050505050565b600760019054906101000a900460ff1681565b6060806000606060006060600080600860008a73ffffffffffffffffffffffffffffffffffffffff1673ffffffffffffffffffffffffffffffffffffffff1681526020019081526020016000206040518060e00160405290816000820154815260200160018201805461090990612b95565b80601f016020809104026020016040519081016040528092919081815260200182805461093590612b95565b80156109825780601f1061095757610100808354040283529160200191610982565b820191906000526020600020905b81548152906001019060200180831161096557829003601f168201915b5050505050815260200160028201805461099b90612b95565b80601f01602080910402602001604051908101604052809291908181526020018280546109c790612b95565b8015610a145780601f106109e957610100808354040283529160200191610a14565b820191906000526020600020905b8154815290600101906020018083116109f757829003601f168201915b50505050508152602001600382018054610a2d90612b95565b80601f0160208091040260200160405190810160405280929190818152602001828054610a5990612b95565b8015610aa65780601f10610a7b57610100808354040283529160200191610aa6565b820191906000526020600020905b815481529060010190602001808311610a8957829003601f168201915b50505050508152602001600482015481526020016005820160009054906101000a900473ffffffffffffffffffffffffffffffffffffffff1673ffffffffffffffffffffffffffffffffffffffff1673ffffffffffffffffffffffffffffffffffffffff168152602001600682018054610b1f90612b95565b80601f0160208091040260200160405190810160405280929190818152602001828054610b4b90612b95565b8015610b985780601f10610b6d57610100808354040283529160200191610b98565b820191906000526020600020905b815481529060010190602001808311610b7b57829003601f168201915b5050505050815250509050806020015181604001518260000151836060015184608001518560c001518660a00151975097509750975097509750975050919395979092949650565b60065481565b600260009054906101000a900473ffffffffffffffffffffffffffffffffffffffff1673ffffffffffffffffffffffffffffffffffffffff163373ffffffffffffffffffffffffffffffffffffffff1614610c76576040517f08c379a0000000000000000000000000000000000000000000000000000000008152600401610c6d90612a02565b60405180910390fd5b60006002811115610c8a57610c8961283b565b5b600760029054906101000a900460ff166002811115610cac57610cab61283b565b5b14610cec576040517f08c379a0000000000000000000000000000000000000000000000000000000008152600401610ce390612a6e565b60405180910390fd5b600280811115610cff57610cfe61283b565b5b600760029054906101000a900460ff166002811115610d2157610d2061283b565b5b1415610d62576040517f08c379a0000000000000000000000000000000000000000000000000000000008152600401610d5990612ada565b60405180910390fd5b6000600960003373ffffffffffffffffffffffffffffffffffffffff1673ffffffffffffffffffffffffffffffffffffffff16815260200190815260200160002090508060050160009054906101000a900460ff1615610df7576040517f08c379a0000000000000000000000000000000000000000000000000000000008152600401610dee90612d2c565b60405180910390fd5b600081600401541415610e3f576040517f08c379a0000000000000000000000000000000000000000000000000000000008152600401610e3690612dbe565b60405180910390fd5b60018160050160006101000a81548160ff0219169083151502179055508181600601819055506004339080600181540180825580915050600190039060005260206000200160009091909190916101000a81548173ffffffffffffffffffffffffffffffffffffffff021916908373ffffffffffffffffffffffffffffffffffffffff1602179055508060040154600860008573ffffffffffffffffffffffffffffffffffffffff1673ffffffffffffffffffffffffffffffffffffffff1681526020019081526020016000206004016000828254610f1e9190612e0d565b92505081905550505050565b600260009054906101000a900473ffffffffffffffffffffffffffffffffffffffff1673ffffffffffffffffffffffffffffffffffffffff163373ffffffffffffffffffffffffffffffffffffffff1614610fba576040517f08c379a0000000000000000000000000000000000000000000000000000000008152600401610fb190612a02565b60405180910390fd5b60006002811115610fce57610fcd61283b565b5b600760029054906101000a900460ff166002811115610ff057610fef61283b565b5b14611030576040517f08c379a000000000000000000000000000000000000000000000000000000000815260040161102790612a6e565b60405180910390fd5b6002808111156110435761104261283b565b5b600760029054906101000a900460ff1660028111156110655761106461283b565b5b14156110a6576040517f08c379a000000000000000000000000000000000000000000000000000000000815260040161109d90612ada565b60405180910390fd5b6110b06001611f6f565b60006110bc6001611f85565b90506000600860008873ffffffffffffffffffffffffffffffffffffffff1673ffffffffffffffffffffffffffffffffffffffff168152602001908152602001600020905081816000018190555085816002019080519060200190611122929190611f93565b508481600101908051906020019061113b929190611f93565b5083816003019080519060200190611154929190611f93565b5060008160040181905550868160050160006101000a81548173ffffffffffffffffffffffffffffffffffffffff021916908373ffffffffffffffffffffffffffffffffffffffff160217905550828160060190805190602001906111ba929190611f93565b506003879080600181540180825580915050600190039060005260206000200160009091909190916101000a81548173ffffffffffffffffffffffffffffffffffffffff021916908373ffffffffffffffffffffffffffffffffffffffff16021790555080600001547f978d20e26392611c02bd1a6e72cc85fa19bd1024b23c12155f8183fbc90902e787878785600401548660050160009054906101000a900473ffffffffffffffffffffffffffffffffffffffff168760060160405161128796959493929190612e63565b60405180910390a250505050505050565b60086020528060005260406000206000915090508060000154908060010180546112c190612b95565b80601f01602080910402602001604051908101604052809291908181526020018280546112ed90612b95565b801561133a5780601f1061130f5761010080835404028352916020019161133a565b820191906000526020600020905b81548152906001019060200180831161131d57829003601f168201915b50505050509080600201805461134f90612b95565b80601f016020809104026020016040519081016040528092919081815260200182805461137b90612b95565b80156113c85780601f1061139d576101008083540402835291602001916113c8565b820191906000526020600020905b8154815290600101906020018083116113ab57829003601f168201915b5050505050908060030180546113dd90612b95565b80601f016020809104026020016040519081016040528092919081815260200182805461140990612b95565b80156114565780601f1061142b57610100808354040283529160200191611456565b820191906000526020600020905b81548152906001019060200180831161143957829003601f168201915b5050505050908060040154908060050160009054906101000a900473ffffffffffffffffffffffffffffffffffffffff169080600601805461149790612b95565b80601f01602080910402602001604051908101604052809291908181526020018280546114c390612b95565b80156115105780601f106114e557610100808354040283529160200191611510565b820191906000526020600020905b8154815290600101906020018083116114f357829003601f168201915b5050505050905087565b6060600480548060200260200160405190810160405280929190818152602001828054801561159e57602002820191906000526020600020905b8160009054906101000a900473ffffffffffffffffffffffffffffffffffffffff1673ffffffffffffffffffffffffffffffffffffffff1681526020019060010190808311611554575b5050505050905090565b60096020528060005260406000206000915090508060000154908060010180546115d190612b95565b80601f01602080910402602001604051908101604052809291908181526020018280546115fd90612b95565b801561164a5780601f1061161f5761010080835404028352916020019161164a565b820191906000526020600020905b81548152906001019060200180831161162d57829003601f168201915b50505050509080600201805461165f90612b95565b80601f016020809104026020016040519081016040528092919081815260200182805461168b90612b95565b80156116d85780601f106116ad576101008083540402835291602001916116d8565b820191906000526020600020905b8154815290600101906020018083116116bb57829003601f168201915b5050505050908060030160009054906101000a900473ffffffffffffffffffffffffffffffffffffffff16908060040154908060050160009054906101000a900460ff169080600601549080600701805461173290612b95565b80601f016020809104026020016040519081016040528092919081815260200182805461175e90612b95565b80156117ab5780601f10611780576101008083540402835291602001916117ab565b820191906000526020600020905b81548152906001019060200180831161178e57829003601f168201915b5050505050905088565b6000600380549050905090565b600060608060006060600080600960008973ffffffffffffffffffffffffffffffffffffffff1673ffffffffffffffffffffffffffffffffffffffff16815260200190815260200160002060000154600960008a73ffffffffffffffffffffffffffffffffffffffff1673ffffffffffffffffffffffffffffffffffffffff168152602001908152602001600020600101600960008b73ffffffffffffffffffffffffffffffffffffffff1673ffffffffffffffffffffffffffffffffffffffff168152602001908152602001600020600201600960008c73ffffffffffffffffffffffffffffffffffffffff1673ffffffffffffffffffffffffffffffffffffffff16815260200190815260200160002060030160009054906101000a900473ffffffffffffffffffffffffffffffffffffffff16600960008d73ffffffffffffffffffffffffffffffffffffffff1673ffffffffffffffffffffffffffffffffffffffff168152602001908152602001600020600701600960008e73ffffffffffffffffffffffffffffffffffffffff1673ffffffffffffffffffffffffffffffffffffffff16815260200190815260200160002060040154600960008f73ffffffffffffffffffffffffffffffffffffffff1673ffffffffffffffffffffffffffffffffffffffff16815260200190815260200160002060050160009054906101000a900460ff168580546119d990612b95565b80601f0160208091040260200160405190810160405280929190818152602001828054611a0590612b95565b8015611a525780601f10611a2757610100808354040283529160200191611a52565b820191906000526020600020905b815481529060010190602001808311611a3557829003601f168201915b50505050509550848054611a6590612b95565b80601f0160208091040260200160405190810160405280929190818152602001828054611a9190612b95565b8015611ade5780601f10611ab357610100808354040283529160200191611ade565b820191906000526020600020905b815481529060010190602001808311611ac157829003601f168201915b50505050509450828054611af190612b95565b80601f0160208091040260200160405190810160405280929190818152602001828054611b1d90612b95565b8015611b6a5780601f10611b3f57610100808354040283529160200191611b6a565b820191906000526020600020905b815481529060010190602001808311611b4d57829003601f168201915b505050505092509650965096509650965096509650919395979092949650565b600760029054906101000a900460ff1681565b600060016002811115611bb357611bb261283b565b5b600760029054906101000a900460ff166002811115611bd557611bd461283b565b5b14611bdf57600080fd5b6120d0905090565b600260009054906101000a900473ffffffffffffffffffffffffffffffffffffffff1681565b60038181548110611c1d57600080fd5b906000526020600020016000915054906101000a900473ffffffffffffffffffffffffffffffffffffffff1681565b60048181548110611c5c57600080fd5b906000526020600020016000915054906101000a900473ffffffffffffffffffffffffffffffffffffffff1681565b6000600480549050905090565b600260009054906101000a900473ffffffffffffffffffffffffffffffffffffffff1673ffffffffffffffffffffffffffffffffffffffff163373ffffffffffffffffffffffffffffffffffffffff1614611d28576040517f08c379a0000000000000000000000000000000000000000000000000000000008152600401611d1f90612a02565b60405180910390fd5b60006002811115611d3c57611d3b61283b565b5b600760029054906101000a900460ff166002811115611d5e57611d5d61283b565b5b14611d9e576040517f08c379a0000000000000000000000000000000000000000000000000000000008152600401611d9590612a6e565b60405180910390fd5b600280811115611db157611db061283b565b5b600760029054906101000a900460ff166002811115611dd357611dd261283b565b5b1415611e14576040517f08c379a0000000000000000000000000000000000000000000000000000000008152600401611e0b90612ada565b60405180910390fd5b6001600760026101000a81548160ff02191690836002811115611e3a57611e3961283b565b5b021790555060011515600760019054906101000a9050505050565b60606003805480602002602001604051908101604052809291908181526020018280548015611ed957602002820191906000526020600020905b8160009054906101000a900473ffffffffffffffffffffffffffffffffffffffff1673ffffffffffffffffffffffffffffffffffffffff1681526020019060010190808311611e8f575b5050505050905090565b60606040518060400160405280601681526020017f54686520656c656374696f6e2068617320656e64656400000000000000000000815250905060016002811115611f3157611f3061283b565b5b600760029054906101000a900460ff166002811115611f5357611f5261283b565b5b14611f5d57600080fd5b600654421015611f6c57600080fd5b90565b6001816000016000828254019250508190555050565b600081600001549050919050565b828054611f9f90612b95565b90600052602060002090601f016020900481019282611fc15760008555612008565b82601f10611fda57805160ff1916838001178555612008565b82800160010185558215612008579182015b82811115612007578251825591602001919060010190611fec565b5b5090506120159190612019565b5090565b5b8082111561203257600081600090555060010161201a565b5090565b6000604051905090565b600080fd5b600080fd5b600073ffffffffffffffffffffffffffffffffffffffff82169050919050565b60006120758261204a565b9050919050565b6120858161206a565b811461209057600080fd5b50565b6000813590506120a28161207c565b92915050565b6000602082840312156120be576120bd612040565b5b60006120cc84828501612093565b91505092915050565b60008115159050919050565b6120ea816120d5565b82525050565b600060208201905061210560008301846120e1565b92915050565b6000819050919050565b61211e8161210b565b82525050565b60006020820190506121396000830184612115565b92915050565b600080fd5b600080fd5b6000601f19601f8301169050919050565b7f4e487b7100000000000000000000000000000000000000000000000000000000600052604160045260246000fd5b61219282612149565b810181811067ffffffffffffffff821117156121b1576121b061215a565b5b80604052505050565b60006121c4612036565b90506121d08282612189565b919050565b600067ffffffffffffffff8211156121f0576121ef61215a565b5b6121f982612149565b9050602081019050919050565b82818337600083830152505050565b6000612228612223846121d5565b6121ba565b90508281526020810184848401111561224457612243612144565b5b61224f848285612206565b509392505050565b600082601f83011261226c5761226b61213f565b5b813561227c848260208601612215565b91505092915050565b6000806000806080858703121561229f5761229e612040565b5b60006122ad87828801612093565b945050602085013567ffffffffffffffff8111156122ce576122cd612045565b5b6122da87828801612257565b935050604085013567ffffffffffffffff8111156122fb576122fa612045565b5b61230787828801612257565b925050606085013567ffffffffffffffff81111561232857612327612045565b5b61233487828801612257565b91505092959194509250565b600081519050919050565b600082825260208201905092915050565b60005b8381101561237a57808201518184015260208101905061235f565b83811115612389576000848401525b50505050565b600061239a82612340565b6123a4818561234b565b93506123b481856020860161235c565b6123bd81612149565b840191505092915050565b6123d18161206a565b82525050565b600060e08201905081810360008301526123f1818a61238f565b90508181036020830152612405818961238f565b90506124146040830188612115565b8181036060830152612426818761238f565b90506124356080830186612115565b81810360a0830152612447818561238f565b905061245660c08301846123c8565b98975050505050505050565b61246b8161210b565b811461247657600080fd5b50565b60008135905061248881612462565b92915050565b600080604083850312156124a5576124a4612040565b5b60006124b385828601612093565b92505060206124c485828601612479565b9150509250929050565b600080600080600060a086880312156124ea576124e9612040565b5b60006124f888828901612093565b955050602086013567ffffffffffffffff81111561251957612518612045565b5b61252588828901612257565b945050604086013567ffffffffffffffff81111561254657612545612045565b5b61255288828901612257565b935050606086013567ffffffffffffffff81111561257357612572612045565b5b61257f88828901612257565b925050608086013567ffffffffffffffff8111156125a05761259f612045565b5b6125ac88828901612257565b9150509295509295909350565b600060e0820190506125ce600083018a612115565b81810360208301526125e0818961238f565b905081810360408301526125f4818861238f565b90508181036060830152612608818761238f565b90506126176080830186612115565b61262460a08301856123c8565b81810360c0830152612636818461238f565b905098975050505050505050565b600081519050919050565b600082825260208201905092915050565b6000819050602082019050919050565b6126798161206a565b82525050565b600061268b8383612670565b60208301905092915050565b6000602082019050919050565b60006126af82612644565b6126b9818561264f565b93506126c483612660565b8060005b838110156126f55781516126dc888261267f565b97506126e783612697565b9250506001810190506126c8565b5085935050505092915050565b6000602082019050818103600083015261271c81846126a4565b905092915050565b60006101008201905061273a600083018b612115565b818103602083015261274c818a61238f565b90508181036040830152612760818961238f565b905061276f60608301886123c8565b61277c6080830187612115565b61278960a08301866120e1565b61279660c0830185612115565b81810360e08301526127a8818461238f565b90509998505050505050505050565b600060e0820190506127cc600083018a612115565b81810360208301526127de818961238f565b905081810360408301526127f2818861238f565b905061280160608301876123c8565b8181036080830152612813818661238f565b905061282260a0830185612115565b61282f60c08301846120e1565b98975050505050505050565b7f4e487b7100000000000000000000000000000000000000000000000000000000600052602160045260246000fd5b6003811061287b5761287a61283b565b5b50565b600081905061288c8261286a565b919050565b600061289c8261287e565b9050919050565b6128ac81612891565b82525050565b60006020820190506128c760008301846128a3565b92915050565b60006020820190506128e260008301846123c8565b92915050565b6000602082840312156128fe576128fd612040565b5b600061290c84828501612479565b91505092915050565b61291e816120d5565b811461292957600080fd5b50565b60008135905061293b81612915565b92915050565b60006020828403121561295757612956612040565b5b60006129658482850161292c565b91505092915050565b60006020820190508181036000830152612988818461238f565b905092915050565b7f4f6e6c792074686520636f6e747261637420617574686f72697a65722063616e60008201527f2063616c6c20746869732066756e6374696f6e2e000000000000000000000000602082015250565b60006129ec60348361234b565b91506129f782612990565b604082019050919050565b60006020820190508181036000830152612a1b816129df565b9050919050565b7f456c656374696f6e2068617320616c726561647920737461727465642e000000600082015250565b6000612a58601d8361234b565b9150612a6382612a22565b602082019050919050565b60006020820190508181036000830152612a8781612a4b565b9050919050565b7f456c656374696f6e2068617320616c726561647920656e646564000000000000600082015250565b6000612ac4601a8361234b565b9150612acf82612a8e565b602082019050919050565b60006020820190508181036000830152612af381612ab7565b9050919050565b7f54686973206163636f756e7420616c7265616479206578697374730000000000600082015250565b6000612b30601b8361234b565b9150612b3b82612afa565b602082019050919050565b60006020820190508181036000830152612b5f81612b23565b9050919050565b7f4e487b7100000000000000000000000000000000000000000000000000000000600052602260045260246000fd5b60006002820490506001821680612bad57607f821691505b60208210811415612bc157612bc0612b66565b5b50919050565b60008190508160005260206000209050919050565b60008154612be981612b95565b612bf3818661234b565b94506001821660008114612c0e5760018114612c2057612c53565b60ff1983168652602086019350612c53565b612c2985612bc7565b60005b83811015612c4b57815481890152600182019150602081019050612c2c565b808801955050505b50505092915050565b600060e0820190508181036000830152612c76818a61238f565b90508181036020830152612c8a818961238f565b9050612c9960408301886123c8565b612ca66060830187612115565b612cb360808301866120e1565b612cc060a0830185612115565b81810360c0830152612cd28184612bdc565b905098975050505050505050565b7f596f752063616e277420766f74652074776963652e0000000000000000000000600082015250565b6000612d1660158361234b565b9150612d2182612ce0565b602082019050919050565b60006020820190508181036000830152612d4581612d09565b9050919050565b7f596f7572206163636f756e742069736e27742072656769737465726564206f7260008201527f20617574686f72697a65642e0000000000000000000000000000000000000000602082015250565b6000612da8602c8361234b565b9150612db382612d4c565b604082019050919050565b60006020820190508181036000830152612dd781612d9b565b9050919050565b7f4e487b7100000000000000000000000000000000000000000000000000000000600052601160045260246000fd5b6000612e188261210b565b9150612e238361210b565b9250827fffffffffffffffffffffffffffffffffffffffffffffffffffffffffffffffff03821115612e5857612e57612dde565b5b828201905092915050565b600060c0820190508181036000830152612e7d818961238f565b90508181036020830152612e91818861238f565b90508181036040830152612ea5818761238f565b9050612eb46060830186612115565b612ec160808301856123c8565b81810360a0830152612ed38184612bdc565b905097965050505050505056fea2646970667358221220d1cbf5b471b70d8898e0aa2a55bff19087e6e36a73febd8807065708e6c4c2c364736f6c63430008090033",
  "linkReferences": {},
  "deployedLinkReferences": {}
}