{
  "_format": "hh-sol-artifact-1",
  "contractName": "Devapp",
  "sourceName": "contracts/DevappContract.sol",
  "abi": [
    {
      "inputs": [],
      "stateMutability": "nonpayable",
      "type": "constructor"
    },
    {
      "anonymous": false,
      "inputs": [
        {
          "indexed": false,
          "internalType": "uint256",
          "name": "timestamp",
          "type": "uint256"
        }
      ],
      "name": "Action",
      "type": "event"
    },
    {
      "anonymous": false,
      "inputs": [
        {
          "indexed": true,
          "internalType": "uint256",
          "name": "id",
          "type": "uint256"
        },
        {
          "indexed": false,
          "internalType": "string",
          "name": "age",
          "type": "string"
        },
        {
          "indexed": false,
          "internalType": "string",
          "name": "name",
          "type": "string"
        },
        {
          "indexed": false,
          "internalType": "string",
          "name": "image",
          "type": "string"
        },
        {
          "indexed": false,
          "internalType": "uint256",
          "name": "voteCount",
          "type": "uint256"
        },
        {
          "indexed": false,
          "internalType": "address",
          "name": "addr",
          "type": "address"
        },
        {
          "indexed": false,
          "internalType": "string",
          "name": "ipfs",
          "type": "string"
        }
      ],
      "name": "CandidateCreated",
      "type": "event"
    },
    {
      "anonymous": false,
      "inputs": [
        {
          "indexed": true,
          "internalType": "uint256",
          "name": "id",
          "type": "uint256"
        },
        {
          "indexed": false,
          "internalType": "string",
          "name": "name",
          "type": "string"
        },
        {
          "indexed": false,
          "internalType": "string",
          "name": "image",
          "type": "string"
        },
        {
          "indexed": false,
          "internalType": "address",
          "name": "addr",
          "type": "address"
        },
        {
          "indexed": false,
          "internalType": "uint256",
          "name": "voteCredits",
          "type": "uint256"
        },
        {
          "indexed": false,
          "internalType": "bool",
          "name": "voted",
          "type": "bool"
        },
        {
          "indexed": false,
          "internalType": "uint256",
          "name": "voteIndex",
          "type": "uint256"
        },
        {
          "indexed": false,
          "internalType": "string",
          "name": "ipfs",
          "type": "string"
        }
      ],
      "name": "VoterCreated",
      "type": "event"
    },
    {
      "inputs": [],
      "name": "authorizer",
      "outputs": [
        {
          "internalType": "address",
          "name": "",
          "type": "address"
        }
      ],
      "stateMutability": "view",
      "type": "function"
    },
    {
      "inputs": [
        {
          "internalType": "uint256",
          "name": "",
          "type": "uint256"
        }
      ],
      "name": "candidateAddresses",
      "outputs": [
        {
          "internalType": "address",
          "name": "",
          "type": "address"
        }
      ],
      "stateMutability": "view",
      "type": "function"
    },
    {
      "inputs": [
        {
          "internalType": "address",
          "name": "",
          "type": "address"
        }
      ],
      "name": "candidates",
      "outputs": [
        {
          "internalType": "uint256",
          "name": "id",
          "type": "uint256"
        },
        {
          "internalType": "string",
          "name": "age",
          "type": "string"
        },
        {
          "internalType": "string",
          "name": "name",
          "type": "string"
        },
        {
          "internalType": "string",
          "name": "image",
          "type": "string"
        },
        {
          "internalType": "uint256",
          "name": "voteCount",
          "type": "uint256"
        },
        {
          "internalType": "address",
          "name": "addr",
          "type": "address"
        },
        {
          "internalType": "string",
          "name": "ipfs",
          "type": "string"
        }
      ],
      "stateMutability": "view",
      "type": "function"
    },
    {
      "inputs": [
        {
          "internalType": "bool",
          "name": "",
          "type": "bool"
        }
      ],
      "name": "commenceElection",
      "outputs": [],
      "stateMutability": "nonpayable",
      "type": "function"
    },
    {
      "inputs": [
        {
          "internalType": "address",
          "name": "_addr",
          "type": "address"
        },
        {
          "internalType": "string",
          "name": "_name",
          "type": "string"
        },
        {
          "internalType": "string",
          "name": "_age",
          "type": "string"
        },
        {
          "internalType": "string",
          "name": "_image",
          "type": "string"
        },
        {
          "internalType": "string",
          "name": "_ipfs",
          "type": "string"
        }
      ],
      "name": "createCandidate",
      "outputs": [],
      "stateMutability": "nonpayable",
      "type": "function"
    },
    {
      "inputs": [
        {
          "internalType": "address",
          "name": "_addr",
          "type": "address"
        },
        {
          "internalType": "string",
          "name": "_name",
          "type": "string"
        },
        {
          "internalType": "string",
          "name": "_image",
          "type": "string"
        },
        {
          "internalType": "string",
          "name": "_ipfs",
          "type": "string"
        }
      ],
      "name": "createVoters",
      "outputs": [],
      "stateMutability": "nonpayable",
      "type": "function"
    },
    {
      "inputs": [
        {
          "internalType": "bool",
          "name": "",
          "type": "bool"
        }
      ],
      "name": "endElection",
      "outputs": [],
      "stateMutability": "nonpayable",
      "type": "function"
    },
    {
      "inputs": [],
      "name": "ended",
      "outputs": [
        {
          "internalType": "uint256",
          "name": "",
          "type": "uint256"
        }
      ],
      "stateMutability": "view",
      "type": "function"
    },
    {
      "inputs": [],
      "name": "getAdmin",
      "outputs": [
        {
          "internalType": "address",
          "name": "",
          "type": "address"
        }
      ],
      "stateMutability": "view",
      "type": "function"
    },
    {
      "inputs": [],
      "name": "getCandidateAddress",
      "outputs": [
        {
          "internalType": "address[]",
          "name": "",
          "type": "address[]"
        }
      ],
      "stateMutability": "view",
      "type": "function"
    },
    {
      "inputs": [],
      "name": "getCandidateAddressesLength",
      "outputs": [
        {
          "internalType": "uint256",
          "name": "",
          "type": "uint256"
        }
      ],
      "stateMutability": "view",
      "type": "function"
    },
    {
      "inputs": [
        {
          "internalType": "address",
          "name": "_address",
          "type": "address"
        }
      ],
      "name": "getCandidateData",
      "outputs": [
        {
          "internalType": "string",
          "name": "",
          "type": "string"
        },
        {
          "internalType": "string",
          "name": "",
          "type": "string"
        },
        {
          "internalType": "uint256",
          "name": "",
          "type": "uint256"
        },
        {
          "internalType": "string",
          "name": "",
          "type": "string"
        },
        {
          "internalType": "uint256",
          "name": "",
          "type": "uint256"
        },
        {
          "internalType": "string",
          "name": "",
          "type": "string"
        },
        {
          "internalType": "address",
          "name": "",
          "type": "address"
        }
      ],
      "stateMutability": "view",
      "type": "function"
    },
    {
      "inputs": [
        {
          "internalType": "address",
          "name": "_addr",
          "type": "address"
        }
      ],
      "name": "getVoterDetails",
      "outputs": [
        {
          "internalType": "uint256",
          "name": "",
          "type": "uint256"
        },
        {
          "internalType": "string",
          "name": "",
          "type": "string"
        },
        {
          "internalType": "string",
          "name": "",
          "type": "string"
        },
        {
          "internalType": "address",
          "name": "",
          "type": "address"
        },
        {
          "internalType": "string",
          "name": "",
          "type": "string"
        },
        {
          "internalType": "uint256",
          "name": "",
          "type": "uint256"
        },
        {
          "internalType": "bool",
          "name": "",
          "type": "bool"
        }
      ],
      "stateMutability": "view",
      "type": "function"
    },
    {
      "inputs": [],
      "name": "getVotersLength",
      "outputs": [
        {
          "internalType": "uint256",
          "name": "",
          "type": "uint256"
        }
      ],
      "stateMutability": "view",
      "type": "function"
    },
    {
      "inputs": [],
      "name": "get_voter_list",
      "outputs": [
        {
          "internalType": "address[]",
          "name": "",
          "type": "address[]"
        }
      ],
      "stateMutability": "view",
      "type": "function"
    },
    {
      "inputs": [
        {
          "internalType": "address",
          "name": "",
          "type": "address"
        }
      ],
      "name": "hasVoted",
      "outputs": [
        {
          "internalType": "bool",
          "name": "",
          "type": "bool"
        }
      ],
      "stateMutability": "view",
      "type": "function"
    },
    {
      "inputs": [],
      "name": "resetElection",
      "outputs": [],
      "stateMutability": "nonpayable",
      "type": "function"
    },
    {
      "inputs": [],
      "name": "startTime",
      "outputs": [
        {
          "internalType": "uint256",
          "name": "",
          "type": "uint256"
        }
      ],
      "stateMutability": "view",
      "type": "function"
    },
    {
      "inputs": [],
      "name": "state",
      "outputs": [
        {
          "internalType": "enum Devapp.ElectionState",
          "name": "",
          "type": "uint8"
        }
      ],
      "stateMutability": "view",
      "type": "function"
    },
    {
      "inputs": [],
      "name": "totalVotes",
      "outputs": [
        {
          "internalType": "uint256",
          "name": "",
          "type": "uint256"
        }
      ],
      "stateMutability": "view",
      "type": "function"
    },
    {
      "inputs": [
        {
          "internalType": "address",
          "name": "_candidateAddr",
          "type": "address"
        },
        {
          "internalType": "uint256",
          "name": "_candidateUniqueId",
          "type": "uint256"
        }
      ],
      "name": "voteBooth",
      "outputs": [],
      "stateMutability": "nonpayable",
      "type": "function"
    },
    {
      "inputs": [
        {
          "internalType": "uint256",
          "name": "",
          "type": "uint256"
        }
      ],
      "name": "voterAddresses",
      "outputs": [
        {
          "internalType": "address",
          "name": "",
          "type": "address"
        }
      ],
      "stateMutability": "view",
      "type": "function"
    },
    {
      "inputs": [
        {
          "internalType": "address",
          "name": "",
          "type": "address"
        }
      ],
      "name": "voters",
      "outputs": [
        {
          "internalType": "uint256",
          "name": "id",
          "type": "uint256"
        },
        {
          "internalType": "string",
          "name": "name",
          "type": "string"
        },
        {
          "internalType": "string",
          "name": "image",
          "type": "string"
        },
        {
          "internalType": "address",
          "name": "addr",
          "type": "address"
        },
        {
          "internalType": "uint256",
          "name": "voteCredits",
          "type": "uint256"
        },
        {
          "internalType": "bool",
          "name": "voted",
          "type": "bool"
        },
        {
          "internalType": "uint256",
          "name": "voteIndex",
          "type": "uint256"
        },
        {
          "internalType": "string",
          "name": "ipfs",
          "type": "string"
        }
      ],
      "stateMutability": "view",
      "type": "function"
    }
  ],
  "bytecode": "0x60806040526000600860006101000a81548160ff021916908360028111156200002d576200002c620000c9565b5b02179055503480156200003f57600080fd5b5073a1b94ef0f24d7f4fd02285efcb9202e6c6ec655b600260006101000a81548173ffffffffffffffffffffffffffffffffffffffff021916908373ffffffffffffffffffffffffffffffffffffffff1602179055506000600860006101000a81548160ff02191690836002811115620000be57620000bd620000c9565b5b0217905550620000f8565b7f4e487b7100000000000000000000000000000000000000000000000000000000600052602160045260246000fd5b61327f80620001086000396000f3fe608060405234801561001057600080fd5b506004361061014d5760003560e01c80638ef0c4d2116100c3578063d55d73c51161007c578063d55d73c5146103bb578063dd0e2373146103eb578063de2237d31461041b578063e8f3052314610439578063f76413ff14610443578063fc3f50781461045f5761014d565b80638ef0c4d2146102d6578063a3ec138d146102f4578063b8417f0e1461032b578063ba71bef014610349578063c19d93fb1461037f578063d09edf311461039d5761014d565b80632a466ac7116101155780632a466ac7146101f65780636e9960c31461022c5780637203a7a51461024a5780637657bec91461026657806378e97925146102825780638ab66a90146102a05761014d565b806309eef43e146101525780630c84b4b8146101825780630d15fd771461019e57806312fa6feb146101bc5780631923c3ef146101da575b600080fd5b61016c600480360381019061016791906122ef565b61047d565b6040516101799190612337565b60405180910390f35b61019c6004803603810190610197919061237e565b61049d565b005b6101a66105d8565b6040516101b391906123c4565b60405180910390f35b6101c46105de565b6040516101d191906123c4565b60405180910390f35b6101f460048036038101906101ef9190612525565b6105e4565b005b610210600480360381019061020b91906122ef565b61099c565b6040516102239796959493929190612677565b60405180910390f35b610234610ce5565b6040516102419190612702565b60405180910390f35b610264600480360381019061025f9190612749565b610d0f565b005b610280600480360381019061027b9190612789565b610feb565b005b61028a6113c9565b60405161029791906123c4565b60405180910390f35b6102ba60048036038101906102b591906122ef565b6113cf565b6040516102cd9796959493929190612874565b60405180910390f35b6102de611651565b6040516102eb91906129bd565b60405180910390f35b61030e600480360381019061030991906122ef565b61173f565b6040516103229897969594939291906129df565b60405180910390f35b61033361194c565b60405161034091906123c4565b60405180910390f35b610363600480360381019061035e91906122ef565b611959565b6040516103769796959493929190612a72565b60405180910390f35b610387611d21565b6040516103949190612b6d565b60405180910390f35b6103a5611d34565b6040516103b29190612702565b60405180910390f35b6103d560048036038101906103d09190612b88565b611d5a565b6040516103e29190612702565b60405180910390f35b61040560048036038101906104009190612b88565b611d99565b6040516104129190612702565b60405180910390f35b610423611dd8565b60405161043091906123c4565b60405180910390f35b610441611de5565b005b61045d6004803603810190610458919061237e565b611f17565b005b6104676120c8565b60405161047491906129bd565b60405180910390f35b600b6020528060005260406000206000915054906101000a900460ff1681565b600260009054906101000a900473ffffffffffffffffffffffffffffffffffffffff1673ffffffffffffffffffffffffffffffffffffffff163373ffffffffffffffffffffffffffffffffffffffff161461052d576040517f08c379a000000000000000000000000000000000000000000000000000000000815260040161052490612c27565b60405180910390fd5b6001600281111561054157610540612af6565b5b600860009054906101000a900460ff16600281111561056357610562612af6565b5b146105a3576040517f08c379a000000000000000000000000000000000000000000000000000000000815260040161059a90612c93565b60405180910390fd5b6002600860006101000a81548160ff021916908360028111156105c9576105c8612af6565b5b02179055504260078190555050565b60055481565b60075481565b600260009054906101000a900473ffffffffffffffffffffffffffffffffffffffff1673ffffffffffffffffffffffffffffffffffffffff163373ffffffffffffffffffffffffffffffffffffffff1614610674576040517f08c379a000000000000000000000000000000000000000000000000000000000815260040161066b90612c27565b60405180910390fd5b6000600281111561068857610687612af6565b5b600860009054906101000a900460ff1660028111156106aa576106a9612af6565b5b146106ea576040517f08c379a00000000000000000000000000000000000000000000000000000000081526004016106e190612cff565b60405180910390fd5b6002808111156106fd576106fc612af6565b5b600860009054906101000a900460ff16600281111561071f5761071e612af6565b5b1415610760576040517f08c379a000000000000000000000000000000000000000000000000000000000815260040161075790612d6b565b60405180910390fd5b61076a60006121b6565b600061077660006121cc565b90506000600a60008773ffffffffffffffffffffffffffffffffffffffff1673ffffffffffffffffffffffffffffffffffffffff16815260200190815260200160002090506000816004015414610802576040517f08c379a00000000000000000000000000000000000000000000000000000000081526004016107f990612dd7565b60405180910390fd5b60018160040181905550848160010190805190602001906108249291906121da565b508381600201908051906020019061083d9291906121da565b50858160030160006101000a81548173ffffffffffffffffffffffffffffffffffffffff021916908373ffffffffffffffffffffffffffffffffffffffff160217905550818160000181905550633b9aca00816006018190555060008160050160006101000a81548160ff021916908315150217905550828160070190805190602001906108cc9291906121da565b506004869080600181540180825580915050600190039060005260206000200160009091909190916101000a81548173ffffffffffffffffffffffffffffffffffffffff021916908373ffffffffffffffffffffffffffffffffffffffff16021790555080600001547ff5f39971dd62d9929e3a9feaa6bb77fe7c7da0001babff8a65a7e51ad0201c1986868985600401548660050160009054906101000a900460ff1687600601548860070160405161098c9796959493929190612eed565b60405180910390a2505050505050565b6060806000606060006060600080600960008a73ffffffffffffffffffffffffffffffffffffffff1673ffffffffffffffffffffffffffffffffffffffff1681526020019081526020016000206040518060e001604052908160008201548152602001600182018054610a0e90612e26565b80601f0160208091040260200160405190810160405280929190818152602001828054610a3a90612e26565b8015610a875780601f10610a5c57610100808354040283529160200191610a87565b820191906000526020600020905b815481529060010190602001808311610a6a57829003601f168201915b50505050508152602001600282018054610aa090612e26565b80601f0160208091040260200160405190810160405280929190818152602001828054610acc90612e26565b8015610b195780601f10610aee57610100808354040283529160200191610b19565b820191906000526020600020905b815481529060010190602001808311610afc57829003601f168201915b50505050508152602001600382018054610b3290612e26565b80601f0160208091040260200160405190810160405280929190818152602001828054610b5e90612e26565b8015610bab5780601f10610b8057610100808354040283529160200191610bab565b820191906000526020600020905b815481529060010190602001808311610b8e57829003601f168201915b50505050508152602001600482015481526020016005820160009054906101000a900473ffffffffffffffffffffffffffffffffffffffff1673ffffffffffffffffffffffffffffffffffffffff1673ffffffffffffffffffffffffffffffffffffffff168152602001600682018054610c2490612e26565b80601f0160208091040260200160405190810160405280929190818152602001828054610c5090612e26565b8015610c9d5780601f10610c7257610100808354040283529160200191610c9d565b820191906000526020600020905b815481529060010190602001808311610c8057829003601f168201915b5050505050815250509050806020015181604001518260000151836060015184608001518560c001518660a00151975097509750975097509750975050919395979092949650565b6000600260009054906101000a900473ffffffffffffffffffffffffffffffffffffffff16905090565b60006002811115610d2357610d22612af6565b5b600860009054906101000a900460ff166002811115610d4557610d44612af6565b5b14610d85576040517f08c379a0000000000000000000000000000000000000000000000000000000008152600401610d7c90612cff565b60405180910390fd5b600280811115610d9857610d97612af6565b5b600860009054906101000a900460ff166002811115610dba57610db9612af6565b5b1415610dfb576040517f08c379a0000000000000000000000000000000000000000000000000000000008152600401610df290612d6b565b60405180910390fd5b6000600a600073a1b94ef0f24d7f4fd02285efcb9202e6c6ec655b73ffffffffffffffffffffffffffffffffffffffff1673ffffffffffffffffffffffffffffffffffffffff16815260200190815260200160002090508060050160009054906101000a900460ff1615610ea4576040517f08c379a0000000000000000000000000000000000000000000000000000000008152600401610e9b90612fbd565b60405180910390fd5b600081600401541415610eec576040517f08c379a0000000000000000000000000000000000000000000000000000000008152600401610ee39061304f565b60405180910390fd5b60018160050160006101000a81548160ff021916908315150217905550818160060181905550600473a1b94ef0f24d7f4fd02285efcb9202e6c6ec655b9080600181540180825580915050600190039060005260206000200160009091909190916101000a81548173ffffffffffffffffffffffffffffffffffffffff021916908373ffffffffffffffffffffffffffffffffffffffff1602179055508060040154600960008573ffffffffffffffffffffffffffffffffffffffff1673ffffffffffffffffffffffffffffffffffffffff1681526020019081526020016000206004016000828254610fdf919061309e565b92505081905550505050565b600260009054906101000a900473ffffffffffffffffffffffffffffffffffffffff1673ffffffffffffffffffffffffffffffffffffffff163373ffffffffffffffffffffffffffffffffffffffff161461107b576040517f08c379a000000000000000000000000000000000000000000000000000000000815260040161107290612c27565b60405180910390fd5b6000600281111561108f5761108e612af6565b5b600860009054906101000a900460ff1660028111156110b1576110b0612af6565b5b146110f1576040517f08c379a00000000000000000000000000000000000000000000000000000000081526004016110e890612cff565b60405180910390fd5b60028081111561110457611103612af6565b5b600860009054906101000a900460ff16600281111561112657611125612af6565b5b1415611167576040517f08c379a000000000000000000000000000000000000000000000000000000000815260040161115e90612d6b565b60405180910390fd5b600073ffffffffffffffffffffffffffffffffffffffff168573ffffffffffffffffffffffffffffffffffffffff1614156111d7576040517f08c379a00000000000000000000000000000000000000000000000000000000081526004016111ce90613140565b60405180910390fd5b6111e160016121b6565b60006111ed60016121cc565b90506000600960008873ffffffffffffffffffffffffffffffffffffffff1673ffffffffffffffffffffffffffffffffffffffff1681526020019081526020016000209050818160000181905550858160020190805190602001906112539291906121da565b508481600101908051906020019061126c9291906121da565b50838160030190805190602001906112859291906121da565b5060008160040181905550868160050160006101000a81548173ffffffffffffffffffffffffffffffffffffffff021916908373ffffffffffffffffffffffffffffffffffffffff160217905550828160060190805190602001906112eb9291906121da565b506003879080600181540180825580915050600190039060005260206000200160009091909190916101000a81548173ffffffffffffffffffffffffffffffffffffffff021916908373ffffffffffffffffffffffffffffffffffffffff16021790555080600001547f978d20e26392611c02bd1a6e72cc85fa19bd1024b23c12155f8183fbc90902e787878785600401548660050160009054906101000a900473ffffffffffffffffffffffffffffffffffffffff16876006016040516113b896959493929190613160565b60405180910390a250505050505050565b60065481565b60096020528060005260406000206000915090508060000154908060010180546113f890612e26565b80601f016020809104026020016040519081016040528092919081815260200182805461142490612e26565b80156114715780601f1061144657610100808354040283529160200191611471565b820191906000526020600020905b81548152906001019060200180831161145457829003601f168201915b50505050509080600201805461148690612e26565b80601f01602080910402602001604051908101604052809291908181526020018280546114b290612e26565b80156114ff5780601f106114d4576101008083540402835291602001916114ff565b820191906000526020600020905b8154815290600101906020018083116114e257829003601f168201915b50505050509080600301805461151490612e26565b80601f016020809104026020016040519081016040528092919081815260200182805461154090612e26565b801561158d5780601f106115625761010080835404028352916020019161158d565b820191906000526020600020905b81548152906001019060200180831161157057829003601f168201915b5050505050908060040154908060050160009054906101000a900473ffffffffffffffffffffffffffffffffffffffff16908060060180546115ce90612e26565b80601f01602080910402602001604051908101604052809291908181526020018280546115fa90612e26565b80156116475780601f1061161c57610100808354040283529160200191611647565b820191906000526020600020905b81548152906001019060200180831161162a57829003601f168201915b5050505050905087565b6060600060048054905014156116b257600067ffffffffffffffff81111561167c5761167b6123fa565b5b6040519080825280602002602001820160405280156116aa5781602001602082028036833780820191505090505b50905061173c565b600480548060200260200160405190810160405280929190818152602001828054801561173457602002820191906000526020600020905b8160009054906101000a900473ffffffffffffffffffffffffffffffffffffffff1673ffffffffffffffffffffffffffffffffffffffff16815260200190600101908083116116ea575b505050505090505b90565b600a60205280600052604060002060009150905080600001549080600101805461176890612e26565b80601f016020809104026020016040519081016040528092919081815260200182805461179490612e26565b80156117e15780601f106117b6576101008083540402835291602001916117e1565b820191906000526020600020905b8154815290600101906020018083116117c457829003601f168201915b5050505050908060020180546117f690612e26565b80601f016020809104026020016040519081016040528092919081815260200182805461182290612e26565b801561186f5780601f106118445761010080835404028352916020019161186f565b820191906000526020600020905b81548152906001019060200180831161185257829003601f168201915b5050505050908060030160009054906101000a900473ffffffffffffffffffffffffffffffffffffffff16908060040154908060050160009054906101000a900460ff16908060060154908060070180546118c990612e26565b80601f01602080910402602001604051908101604052809291908181526020018280546118f590612e26565b80156119425780601f1061191757610100808354040283529160200191611942565b820191906000526020600020905b81548152906001019060200180831161192557829003601f168201915b5050505050905088565b6000600380549050905090565b600060608060006060600080600a60008973ffffffffffffffffffffffffffffffffffffffff1673ffffffffffffffffffffffffffffffffffffffff16815260200190815260200160002060000154600a60008a73ffffffffffffffffffffffffffffffffffffffff1673ffffffffffffffffffffffffffffffffffffffff168152602001908152602001600020600101600a60008b73ffffffffffffffffffffffffffffffffffffffff1673ffffffffffffffffffffffffffffffffffffffff168152602001908152602001600020600201600a60008c73ffffffffffffffffffffffffffffffffffffffff1673ffffffffffffffffffffffffffffffffffffffff16815260200190815260200160002060030160009054906101000a900473ffffffffffffffffffffffffffffffffffffffff16600a60008d73ffffffffffffffffffffffffffffffffffffffff1673ffffffffffffffffffffffffffffffffffffffff168152602001908152602001600020600701600a60008e73ffffffffffffffffffffffffffffffffffffffff1673ffffffffffffffffffffffffffffffffffffffff16815260200190815260200160002060040154600a60008f73ffffffffffffffffffffffffffffffffffffffff1673ffffffffffffffffffffffffffffffffffffffff16815260200190815260200160002060050160009054906101000a900460ff16858054611b7090612e26565b80601f0160208091040260200160405190810160405280929190818152602001828054611b9c90612e26565b8015611be95780601f10611bbe57610100808354040283529160200191611be9565b820191906000526020600020905b815481529060010190602001808311611bcc57829003601f168201915b50505050509550848054611bfc90612e26565b80601f0160208091040260200160405190810160405280929190818152602001828054611c2890612e26565b8015611c755780601f10611c4a57610100808354040283529160200191611c75565b820191906000526020600020905b815481529060010190602001808311611c5857829003601f168201915b50505050509450828054611c8890612e26565b80601f0160208091040260200160405190810160405280929190818152602001828054611cb490612e26565b8015611d015780601f10611cd657610100808354040283529160200191611d01565b820191906000526020600020905b815481529060010190602001808311611ce457829003601f168201915b505050505092509650965096509650965096509650919395979092949650565b600860009054906101000a900460ff1681565b600260009054906101000a900473ffffffffffffffffffffffffffffffffffffffff1681565b60038181548110611d6a57600080fd5b906000526020600020016000915054906101000a900473ffffffffffffffffffffffffffffffffffffffff1681565b60048181548110611da957600080fd5b906000526020600020016000915054906101000a900473ffffffffffffffffffffffffffffffffffffffff1681565b6000600480549050905090565b600260009054906101000a900473ffffffffffffffffffffffffffffffffffffffff1673ffffffffffffffffffffffffffffffffffffffff163373ffffffffffffffffffffffffffffffffffffffff1614611e75576040517f08c379a0000000000000000000000000000000000000000000000000000000008152600401611e6c90612c27565b60405180910390fd5b600280811115611e8857611e87612af6565b5b600860009054906101000a900460ff166002811115611eaa57611ea9612af6565b5b14611eea576040517f08c379a0000000000000000000000000000000000000000000000000000000008152600401611ee190613229565b60405180910390fd5b6000600860006101000a81548160ff02191690836002811115611f1057611f0f612af6565b5b0217905550565b600260009054906101000a900473ffffffffffffffffffffffffffffffffffffffff1673ffffffffffffffffffffffffffffffffffffffff163373ffffffffffffffffffffffffffffffffffffffff1614611fa7576040517f08c379a0000000000000000000000000000000000000000000000000000000008152600401611f9e90612c27565b60405180910390fd5b60006002811115611fbb57611fba612af6565b5b600860009054906101000a900460ff166002811115611fdd57611fdc612af6565b5b1461201d576040517f08c379a000000000000000000000000000000000000000000000000000000000815260040161201490612cff565b60405180910390fd5b6002808111156120305761202f612af6565b5b600860009054906101000a900460ff16600281111561205257612051612af6565b5b1415612093576040517f08c379a000000000000000000000000000000000000000000000000000000000815260040161208a90612d6b565b60405180910390fd5b6001600860006101000a81548160ff021916908360028111156120b9576120b8612af6565b5b02179055504260068190555050565b60606000600380549050141561212957600067ffffffffffffffff8111156120f3576120f26123fa565b5b6040519080825280602002602001820160405280156121215781602001602082028036833780820191505090505b5090506121b3565b60038054806020026020016040519081016040528092919081815260200182805480156121ab57602002820191906000526020600020905b8160009054906101000a900473ffffffffffffffffffffffffffffffffffffffff1673ffffffffffffffffffffffffffffffffffffffff1681526020019060010190808311612161575b505050505090505b90565b6001816000016000828254019250508190555050565b600081600001549050919050565b8280546121e690612e26565b90600052602060002090601f016020900481019282612208576000855561224f565b82601f1061222157805160ff191683800117855561224f565b8280016001018555821561224f579182015b8281111561224e578251825591602001919060010190612233565b5b50905061225c9190612260565b5090565b5b80821115612279576000816000905550600101612261565b5090565b6000604051905090565b600080fd5b600080fd5b600073ffffffffffffffffffffffffffffffffffffffff82169050919050565b60006122bc82612291565b9050919050565b6122cc816122b1565b81146122d757600080fd5b50565b6000813590506122e9816122c3565b92915050565b60006020828403121561230557612304612287565b5b6000612313848285016122da565b91505092915050565b60008115159050919050565b6123318161231c565b82525050565b600060208201905061234c6000830184612328565b92915050565b61235b8161231c565b811461236657600080fd5b50565b60008135905061237881612352565b92915050565b60006020828403121561239457612393612287565b5b60006123a284828501612369565b91505092915050565b6000819050919050565b6123be816123ab565b82525050565b60006020820190506123d960008301846123b5565b92915050565b600080fd5b600080fd5b6000601f19601f8301169050919050565b7f4e487b7100000000000000000000000000000000000000000000000000000000600052604160045260246000fd5b612432826123e9565b810181811067ffffffffffffffff82111715612451576124506123fa565b5b80604052505050565b600061246461227d565b90506124708282612429565b919050565b600067ffffffffffffffff8211156124905761248f6123fa565b5b612499826123e9565b9050602081019050919050565b82818337600083830152505050565b60006124c86124c384612475565b61245a565b9050828152602081018484840111156124e4576124e36123e4565b5b6124ef8482856124a6565b509392505050565b600082601f83011261250c5761250b6123df565b5b813561251c8482602086016124b5565b91505092915050565b6000806000806080858703121561253f5761253e612287565b5b600061254d878288016122da565b945050602085013567ffffffffffffffff81111561256e5761256d61228c565b5b61257a878288016124f7565b935050604085013567ffffffffffffffff81111561259b5761259a61228c565b5b6125a7878288016124f7565b925050606085013567ffffffffffffffff8111156125c8576125c761228c565b5b6125d4878288016124f7565b91505092959194509250565b600081519050919050565b600082825260208201905092915050565b60005b8381101561261a5780820151818401526020810190506125ff565b83811115612629576000848401525b50505050565b600061263a826125e0565b61264481856125eb565b93506126548185602086016125fc565b61265d816123e9565b840191505092915050565b612671816122b1565b82525050565b600060e0820190508181036000830152612691818a61262f565b905081810360208301526126a5818961262f565b90506126b460408301886123b5565b81810360608301526126c6818761262f565b90506126d560808301866123b5565b81810360a08301526126e7818561262f565b90506126f660c0830184612668565b98975050505050505050565b60006020820190506127176000830184612668565b92915050565b612726816123ab565b811461273157600080fd5b50565b6000813590506127438161271d565b92915050565b600080604083850312156127605761275f612287565b5b600061276e858286016122da565b925050602061277f85828601612734565b9150509250929050565b600080600080600060a086880312156127a5576127a4612287565b5b60006127b3888289016122da565b955050602086013567ffffffffffffffff8111156127d4576127d361228c565b5b6127e0888289016124f7565b945050604086013567ffffffffffffffff8111156128015761280061228c565b5b61280d888289016124f7565b935050606086013567ffffffffffffffff81111561282e5761282d61228c565b5b61283a888289016124f7565b925050608086013567ffffffffffffffff81111561285b5761285a61228c565b5b612867888289016124f7565b9150509295509295909350565b600060e082019050612889600083018a6123b5565b818103602083015261289b818961262f565b905081810360408301526128af818861262f565b905081810360608301526128c3818761262f565b90506128d260808301866123b5565b6128df60a0830185612668565b81810360c08301526128f1818461262f565b905098975050505050505050565b600081519050919050565b600082825260208201905092915050565b6000819050602082019050919050565b612934816122b1565b82525050565b6000612946838361292b565b60208301905092915050565b6000602082019050919050565b600061296a826128ff565b612974818561290a565b935061297f8361291b565b8060005b838110156129b0578151612997888261293a565b97506129a283612952565b925050600181019050612983565b5085935050505092915050565b600060208201905081810360008301526129d7818461295f565b905092915050565b6000610100820190506129f5600083018b6123b5565b8181036020830152612a07818a61262f565b90508181036040830152612a1b818961262f565b9050612a2a6060830188612668565b612a3760808301876123b5565b612a4460a0830186612328565b612a5160c08301856123b5565b81810360e0830152612a63818461262f565b90509998505050505050505050565b600060e082019050612a87600083018a6123b5565b8181036020830152612a99818961262f565b90508181036040830152612aad818861262f565b9050612abc6060830187612668565b8181036080830152612ace818661262f565b9050612add60a08301856123b5565b612aea60c0830184612328565b98975050505050505050565b7f4e487b7100000000000000000000000000000000000000000000000000000000600052602160045260246000fd5b60038110612b3657612b35612af6565b5b50565b6000819050612b4782612b25565b919050565b6000612b5782612b39565b9050919050565b612b6781612b4c565b82525050565b6000602082019050612b826000830184612b5e565b92915050565b600060208284031215612b9e57612b9d612287565b5b6000612bac84828501612734565b91505092915050565b7f4f6e6c792074686520636f6e747261637420617574686f72697a65722063616e60008201527f2063616c6c20746869732066756e6374696f6e2e000000000000000000000000602082015250565b6000612c116034836125eb565b9150612c1c82612bb5565b604082019050919050565b60006020820190508181036000830152612c4081612c04565b9050919050565b7f456c656374696f6e20686173206e6f7420737461727465642100000000000000600082015250565b6000612c7d6019836125eb565b9150612c8882612c47565b602082019050919050565b60006020820190508181036000830152612cac81612c70565b9050919050565b7f456c656374696f6e2068617320616c726561647920737461727465642e000000600082015250565b6000612ce9601d836125eb565b9150612cf482612cb3565b602082019050919050565b60006020820190508181036000830152612d1881612cdc565b9050919050565b7f456c656374696f6e2068617320616c726561647920656e646564000000000000600082015250565b6000612d55601a836125eb565b9150612d6082612d1f565b602082019050919050565b60006020820190508181036000830152612d8481612d48565b9050919050565b7f54686973206163636f756e7420616c7265616479206578697374730000000000600082015250565b6000612dc1601b836125eb565b9150612dcc82612d8b565b602082019050919050565b60006020820190508181036000830152612df081612db4565b9050919050565b7f4e487b7100000000000000000000000000000000000000000000000000000000600052602260045260246000fd5b60006002820490506001821680612e3e57607f821691505b60208210811415612e5257612e51612df7565b5b50919050565b60008190508160005260206000209050919050565b60008154612e7a81612e26565b612e8481866125eb565b94506001821660008114612e9f5760018114612eb157612ee4565b60ff1983168652602086019350612ee4565b612eba85612e58565b60005b83811015612edc57815481890152600182019150602081019050612ebd565b808801955050505b50505092915050565b600060e0820190508181036000830152612f07818a61262f565b90508181036020830152612f1b818961262f565b9050612f2a6040830188612668565b612f3760608301876123b5565b612f446080830186612328565b612f5160a08301856123b5565b81810360c0830152612f638184612e6d565b905098975050505050505050565b7f596f752063616e277420766f74652074776963652e0000000000000000000000600082015250565b6000612fa76015836125eb565b9150612fb282612f71565b602082019050919050565b60006020820190508181036000830152612fd681612f9a565b9050919050565b7f596f7572206163636f756e742069736e27742072656769737465726564206f7260008201527f20617574686f72697a65642e0000000000000000000000000000000000000000602082015250565b6000613039602c836125eb565b915061304482612fdd565b604082019050919050565b600060208201905081810360008301526130688161302c565b9050919050565b7f4e487b7100000000000000000000000000000000000000000000000000000000600052601160045260246000fd5b60006130a9826123ab565b91506130b4836123ab565b9250827fffffffffffffffffffffffffffffffffffffffffffffffffffffffffffffffff038211156130e9576130e861306f565b5b828201905092915050565b7f43616e64696461746520616464726573732063616e6e6f74206265207a65726f600082015250565b600061312a6020836125eb565b9150613135826130f4565b602082019050919050565b600060208201905081810360008301526131598161311d565b9050919050565b600060c082019050818103600083015261317a818961262f565b9050818103602083015261318e818861262f565b905081810360408301526131a2818761262f565b90506131b160608301866123b5565b6131be6080830185612668565b81810360a08301526131d08184612e6d565b9050979650505050505050565b7f456c656374696f6e20686173206e6f7420656e6465642e000000000000000000600082015250565b60006132136017836125eb565b915061321e826131dd565b602082019050919050565b6000602082019050818103600083015261324281613206565b905091905056fea2646970667358221220f30722524998c9a390cfddabe07c1263cf9d36771f3148e74143f65967acb9fa64736f6c63430008090033",
  "linkReferences": {},
  "deployedLinkReferences": {}
}