{
  "_format": "hh-sol-artifact-1",
  "contractName": "Devapp",
  "sourceName": "contracts/DevappContract.sol",
  "abi": [
    {
      "inputs": [],
      "stateMutability": "nonpayable",
      "type": "constructor"
    },
    {
      "anonymous": false,
      "inputs": [
        {
          "indexed": false,
          "internalType": "uint256",
          "name": "timestamp",
          "type": "uint256"
        }
      ],
      "name": "Action",
      "type": "event"
    },
    {
      "anonymous": false,
      "inputs": [
        {
          "indexed": true,
          "internalType": "uint256",
          "name": "id",
          "type": "uint256"
        },
        {
          "indexed": false,
          "internalType": "string",
          "name": "age",
          "type": "string"
        },
        {
          "indexed": false,
          "internalType": "string",
          "name": "name",
          "type": "string"
        },
        {
          "indexed": false,
          "internalType": "string",
          "name": "image",
          "type": "string"
        },
        {
          "indexed": false,
          "internalType": "uint256",
          "name": "voteCount",
          "type": "uint256"
        },
        {
          "indexed": false,
          "internalType": "address",
          "name": "addr",
          "type": "address"
        },
        {
          "indexed": false,
          "internalType": "string",
          "name": "ipfs",
          "type": "string"
        }
      ],
      "name": "CandidateCreated",
      "type": "event"
    },
    {
      "anonymous": false,
      "inputs": [
        {
          "indexed": true,
          "internalType": "uint256",
          "name": "id",
          "type": "uint256"
        },
        {
          "indexed": false,
          "internalType": "string",
          "name": "name",
          "type": "string"
        },
        {
          "indexed": false,
          "internalType": "string",
          "name": "image",
          "type": "string"
        },
        {
          "indexed": false,
          "internalType": "address",
          "name": "addr",
          "type": "address"
        },
        {
          "indexed": false,
          "internalType": "uint256",
          "name": "voteCredits",
          "type": "uint256"
        },
        {
          "indexed": false,
          "internalType": "bool",
          "name": "voted",
          "type": "bool"
        },
        {
          "indexed": false,
          "internalType": "uint256",
          "name": "voteIndex",
          "type": "uint256"
        },
        {
          "indexed": false,
          "internalType": "string",
          "name": "ipfs",
          "type": "string"
        }
      ],
      "name": "VoterCreated",
      "type": "event"
    },
    {
      "inputs": [],
      "name": "ELECTION_DURATION",
      "outputs": [
        {
          "internalType": "uint256",
          "name": "",
          "type": "uint256"
        }
      ],
      "stateMutability": "view",
      "type": "function"
    },
    {
      "inputs": [],
      "name": "authorizer",
      "outputs": [
        {
          "internalType": "address",
          "name": "",
          "type": "address"
        }
      ],
      "stateMutability": "view",
      "type": "function"
    },
    {
      "inputs": [
        {
          "internalType": "uint256",
          "name": "",
          "type": "uint256"
        }
      ],
      "name": "candidateAddresses",
      "outputs": [
        {
          "internalType": "address",
          "name": "",
          "type": "address"
        }
      ],
      "stateMutability": "view",
      "type": "function"
    },
    {
      "inputs": [
        {
          "internalType": "address",
          "name": "",
          "type": "address"
        }
      ],
      "name": "candidates",
      "outputs": [
        {
          "internalType": "uint256",
          "name": "id",
          "type": "uint256"
        },
        {
          "internalType": "string",
          "name": "age",
          "type": "string"
        },
        {
          "internalType": "string",
          "name": "name",
          "type": "string"
        },
        {
          "internalType": "string",
          "name": "image",
          "type": "string"
        },
        {
          "internalType": "uint256",
          "name": "voteCount",
          "type": "uint256"
        },
        {
          "internalType": "address",
          "name": "addr",
          "type": "address"
        },
        {
          "internalType": "string",
          "name": "ipfs",
          "type": "string"
        }
      ],
      "stateMutability": "view",
      "type": "function"
    },
    {
      "inputs": [
        {
          "internalType": "bool",
          "name": "",
          "type": "bool"
        }
      ],
      "name": "commenceElection",
      "outputs": [],
      "stateMutability": "nonpayable",
      "type": "function"
    },
    {
      "inputs": [
        {
          "internalType": "address",
          "name": "_addr",
          "type": "address"
        },
        {
          "internalType": "string",
          "name": "_name",
          "type": "string"
        },
        {
          "internalType": "string",
          "name": "_age",
          "type": "string"
        },
        {
          "internalType": "string",
          "name": "_image",
          "type": "string"
        },
        {
          "internalType": "string",
          "name": "_ipfs",
          "type": "string"
        }
      ],
      "name": "createCandidate",
      "outputs": [],
      "stateMutability": "nonpayable",
      "type": "function"
    },
    {
      "inputs": [
        {
          "internalType": "address",
          "name": "_addr",
          "type": "address"
        },
        {
          "internalType": "string",
          "name": "_name",
          "type": "string"
        },
        {
          "internalType": "string",
          "name": "_image",
          "type": "string"
        },
        {
          "internalType": "string",
          "name": "_ipfs",
          "type": "string"
        }
      ],
      "name": "createVoters",
      "outputs": [],
      "stateMutability": "nonpayable",
      "type": "function"
    },
    {
      "inputs": [],
      "name": "electionEnds",
      "outputs": [],
      "stateMutability": "nonpayable",
      "type": "function"
    },
    {
      "inputs": [],
      "name": "ended",
      "outputs": [
        {
          "internalType": "bool",
          "name": "",
          "type": "bool"
        }
      ],
      "stateMutability": "view",
      "type": "function"
    },
    {
      "inputs": [],
      "name": "getCandidateAddress",
      "outputs": [
        {
          "internalType": "address[]",
          "name": "",
          "type": "address[]"
        }
      ],
      "stateMutability": "view",
      "type": "function"
    },
    {
      "inputs": [],
      "name": "getCandidateAddressesLength",
      "outputs": [
        {
          "internalType": "uint256",
          "name": "",
          "type": "uint256"
        }
      ],
      "stateMutability": "view",
      "type": "function"
    },
    {
      "inputs": [
        {
          "internalType": "address",
          "name": "_address",
          "type": "address"
        }
      ],
      "name": "getCandidateData",
      "outputs": [
        {
          "internalType": "string",
          "name": "",
          "type": "string"
        },
        {
          "internalType": "string",
          "name": "",
          "type": "string"
        },
        {
          "internalType": "uint256",
          "name": "",
          "type": "uint256"
        },
        {
          "internalType": "string",
          "name": "",
          "type": "string"
        },
        {
          "internalType": "uint256",
          "name": "",
          "type": "uint256"
        },
        {
          "internalType": "string",
          "name": "",
          "type": "string"
        },
        {
          "internalType": "address",
          "name": "",
          "type": "address"
        }
      ],
      "stateMutability": "view",
      "type": "function"
    },
    {
      "inputs": [],
      "name": "getTimeLeft",
      "outputs": [
        {
          "internalType": "uint256",
          "name": "",
          "type": "uint256"
        }
      ],
      "stateMutability": "nonpayable",
      "type": "function"
    },
    {
      "inputs": [
        {
          "internalType": "address",
          "name": "_addr",
          "type": "address"
        }
      ],
      "name": "getVoterDetails",
      "outputs": [
        {
          "internalType": "uint256",
          "name": "",
          "type": "uint256"
        },
        {
          "internalType": "string",
          "name": "",
          "type": "string"
        },
        {
          "internalType": "string",
          "name": "",
          "type": "string"
        },
        {
          "internalType": "address",
          "name": "",
          "type": "address"
        },
        {
          "internalType": "string",
          "name": "",
          "type": "string"
        },
        {
          "internalType": "uint256",
          "name": "",
          "type": "uint256"
        },
        {
          "internalType": "bool",
          "name": "",
          "type": "bool"
        }
      ],
      "stateMutability": "view",
      "type": "function"
    },
    {
      "inputs": [],
      "name": "getVotersLength",
      "outputs": [
        {
          "internalType": "uint256",
          "name": "",
          "type": "uint256"
        }
      ],
      "stateMutability": "view",
      "type": "function"
    },
    {
      "inputs": [],
      "name": "get_voter_list",
      "outputs": [
        {
          "internalType": "address[]",
          "name": "",
          "type": "address[]"
        }
      ],
      "stateMutability": "view",
      "type": "function"
    },
    {
      "inputs": [
        {
          "internalType": "address",
          "name": "",
          "type": "address"
        }
      ],
      "name": "hasVoted",
      "outputs": [
        {
          "internalType": "bool",
          "name": "",
          "type": "bool"
        }
      ],
      "stateMutability": "view",
      "type": "function"
    },
    {
      "inputs": [],
      "name": "startTime",
      "outputs": [
        {
          "internalType": "uint256",
          "name": "",
          "type": "uint256"
        }
      ],
      "stateMutability": "view",
      "type": "function"
    },
    {
      "inputs": [],
      "name": "started",
      "outputs": [
        {
          "internalType": "bool",
          "name": "",
          "type": "bool"
        }
      ],
      "stateMutability": "view",
      "type": "function"
    },
    {
      "inputs": [],
      "name": "state",
      "outputs": [
        {
          "internalType": "enum Devapp.ElectionState",
          "name": "",
          "type": "uint8"
        }
      ],
      "stateMutability": "view",
      "type": "function"
    },
    {
      "inputs": [],
      "name": "totalVotes",
      "outputs": [
        {
          "internalType": "uint256",
          "name": "",
          "type": "uint256"
        }
      ],
      "stateMutability": "view",
      "type": "function"
    },
    {
      "inputs": [
        {
          "internalType": "address",
          "name": "_candidateAddr",
          "type": "address"
        },
        {
          "internalType": "uint256",
          "name": "_candidateUniqueId",
          "type": "uint256"
        }
      ],
      "name": "voteBooth",
      "outputs": [],
      "stateMutability": "nonpayable",
      "type": "function"
    },
    {
      "inputs": [
        {
          "internalType": "uint256",
          "name": "",
          "type": "uint256"
        }
      ],
      "name": "voterAddresses",
      "outputs": [
        {
          "internalType": "address",
          "name": "",
          "type": "address"
        }
      ],
      "stateMutability": "view",
      "type": "function"
    },
    {
      "inputs": [
        {
          "internalType": "address",
          "name": "",
          "type": "address"
        }
      ],
      "name": "voters",
      "outputs": [
        {
          "internalType": "uint256",
          "name": "id",
          "type": "uint256"
        },
        {
          "internalType": "string",
          "name": "name",
          "type": "string"
        },
        {
          "internalType": "string",
          "name": "image",
          "type": "string"
        },
        {
          "internalType": "address",
          "name": "addr",
          "type": "address"
        },
        {
          "internalType": "uint256",
          "name": "voteCredits",
          "type": "uint256"
        },
        {
          "internalType": "bool",
          "name": "voted",
          "type": "bool"
        },
        {
          "internalType": "uint256",
          "name": "voteIndex",
          "type": "uint256"
        },
        {
          "internalType": "string",
          "name": "ipfs",
          "type": "string"
        }
      ],
      "stateMutability": "view",
      "type": "function"
    }
  ],
  "bytecode": "0x60806040526000600760026101000a81548160ff021916908360028111156200002d576200002c620000b5565b5b02179055503480156200003f57600080fd5b5033600260006101000a81548173ffffffffffffffffffffffffffffffffffffffff021916908373ffffffffffffffffffffffffffffffffffffffff1602179055506000600760026101000a81548160ff02191690836002811115620000aa57620000a9620000b5565b5b0217905550620000e4565b7f4e487b7100000000000000000000000000000000000000000000000000000000600052602160045260246000fd5b61314480620000f46000396000f3fe608060405234801561001057600080fd5b50600436106101585760003560e01c8063a3ec138d116100c3578063d55d73c51161007c578063d55d73c5146103e6578063dd0e237314610416578063de2237d314610446578063f76413ff14610464578063fc3f507814610480578063fdebb4901461049e57610158565b8063a3ec138d14610301578063b8417f0e14610338578063ba71bef014610356578063c19d93fb1461038c578063c7e284b8146103aa578063d09edf31146103c857610158565b80635e8f1747116101155780635e8f1747146102395780637203a7a5146102575780637657bec91461027357806378e979251461028f5780638ab66a90146102ad5780638ef0c4d2146102e357610158565b806309eef43e1461015d5780630d15fd771461018d57806312fa6feb146101ab5780631923c3ef146101c95780631f2698ab146101e55780632a466ac714610203575b600080fd5b610177600480360381019061017291906121ec565b6104a8565b6040516101849190612234565b60405180910390f35b6101956104c8565b6040516101a29190612268565b60405180910390f35b6101b36104ce565b6040516101c09190612234565b60405180910390f35b6101e360048036038101906101de91906123c9565b6104e1565b005b6101ed610899565b6040516101fa9190612234565b60405180910390f35b61021d600480360381019061021891906121ec565b6108ac565b604051610230979695949392919061251b565b60405180910390f35b610241610bf5565b60405161024e9190612268565b60405180910390f35b610271600480360381019061026c91906125d2565b610bfb565b005b61028d60048036038101906102889190612612565b610f3f565b005b6102976112ad565b6040516102a49190612268565b60405180910390f35b6102c760048036038101906102c291906121ec565b6112b3565b6040516102da97969594939291906126fd565b60405180910390f35b6102eb611535565b6040516102f89190612846565b60405180910390f35b61031b600480360381019061031691906121ec565b6115c3565b60405161032f989796959493929190612868565b60405180910390f35b6103406117d0565b60405161034d9190612268565b60405180910390f35b610370600480360381019061036b91906121ec565b6117dd565b60405161038397969594939291906128fb565b60405180910390f35b610394611ba5565b6040516103a191906129f6565b60405180910390f35b6103b2611bb8565b6040516103bf9190612268565b60405180910390f35b6103d0611d09565b6040516103dd9190612a11565b60405180910390f35b61040060048036038101906103fb9190612a2c565b611d2f565b60405161040d9190612a11565b60405180910390f35b610430600480360381019061042b9190612a2c565b611d6e565b60405161043d9190612a11565b60405180910390f35b61044e611dad565b60405161045b9190612268565b60405180910390f35b61047e60048036038101906104799190612a85565b611dba565b005b610488611f6b565b6040516104959190612846565b60405180910390f35b6104a6611ff9565b005b600a6020528060005260406000206000915054906101000a900460ff1681565b60055481565b600760009054906101000a900460ff1681565b600260009054906101000a900473ffffffffffffffffffffffffffffffffffffffff1673ffffffffffffffffffffffffffffffffffffffff163373ffffffffffffffffffffffffffffffffffffffff1614610571576040517f08c379a000000000000000000000000000000000000000000000000000000000815260040161056890612b24565b60405180910390fd5b600060028111156105855761058461297f565b5b600760029054906101000a900460ff1660028111156105a7576105a661297f565b5b146105e7576040517f08c379a00000000000000000000000000000000000000000000000000000000081526004016105de90612b90565b60405180910390fd5b6002808111156105fa576105f961297f565b5b600760029054906101000a900460ff16600281111561061c5761061b61297f565b5b141561065d576040517f08c379a000000000000000000000000000000000000000000000000000000000815260040161065490612bfc565b60405180910390fd5b61066760006120b3565b600061067360006120c9565b90506000600960008773ffffffffffffffffffffffffffffffffffffffff1673ffffffffffffffffffffffffffffffffffffffff168152602001908152602001600020905060008160040154146106ff576040517f08c379a00000000000000000000000000000000000000000000000000000000081526004016106f690612c68565b60405180910390fd5b60018160040181905550848160010190805190602001906107219291906120d7565b508381600201908051906020019061073a9291906120d7565b50858160030160006101000a81548173ffffffffffffffffffffffffffffffffffffffff021916908373ffffffffffffffffffffffffffffffffffffffff160217905550818160000181905550633b9aca00816006018190555060008160050160006101000a81548160ff021916908315150217905550828160070190805190602001906107c99291906120d7565b506004869080600181540180825580915050600190039060005260206000200160009091909190916101000a81548173ffffffffffffffffffffffffffffffffffffffff021916908373ffffffffffffffffffffffffffffffffffffffff16021790555080600001547ff5f39971dd62d9929e3a9feaa6bb77fe7c7da0001babff8a65a7e51ad0201c1986868985600401548660050160009054906101000a900460ff168760060154886007016040516108899796959493929190612d7e565b60405180910390a2505050505050565b600760019054906101000a900460ff1681565b6060806000606060006060600080600860008a73ffffffffffffffffffffffffffffffffffffffff1673ffffffffffffffffffffffffffffffffffffffff1681526020019081526020016000206040518060e00160405290816000820154815260200160018201805461091e90612cb7565b80601f016020809104026020016040519081016040528092919081815260200182805461094a90612cb7565b80156109975780601f1061096c57610100808354040283529160200191610997565b820191906000526020600020905b81548152906001019060200180831161097a57829003601f168201915b505050505081526020016002820180546109b090612cb7565b80601f01602080910402602001604051908101604052809291908181526020018280546109dc90612cb7565b8015610a295780601f106109fe57610100808354040283529160200191610a29565b820191906000526020600020905b815481529060010190602001808311610a0c57829003601f168201915b50505050508152602001600382018054610a4290612cb7565b80601f0160208091040260200160405190810160405280929190818152602001828054610a6e90612cb7565b8015610abb5780601f10610a9057610100808354040283529160200191610abb565b820191906000526020600020905b815481529060010190602001808311610a9e57829003601f168201915b50505050508152602001600482015481526020016005820160009054906101000a900473ffffffffffffffffffffffffffffffffffffffff1673ffffffffffffffffffffffffffffffffffffffff1673ffffffffffffffffffffffffffffffffffffffff168152602001600682018054610b3490612cb7565b80601f0160208091040260200160405190810160405280929190818152602001828054610b6090612cb7565b8015610bad5780601f10610b8257610100808354040283529160200191610bad565b820191906000526020600020905b815481529060010190602001808311610b9057829003601f168201915b5050505050815250509050806020015181604001518260000151836060015184608001518560c001518660a00151975097509750975097509750975050919395979092949650565b61012c81565b600260009054906101000a900473ffffffffffffffffffffffffffffffffffffffff1673ffffffffffffffffffffffffffffffffffffffff163373ffffffffffffffffffffffffffffffffffffffff1614610c8b576040517f08c379a0000000000000000000000000000000000000000000000000000000008152600401610c8290612b24565b60405180910390fd5b60006002811115610c9f57610c9e61297f565b5b600760029054906101000a900460ff166002811115610cc157610cc061297f565b5b14610d01576040517f08c379a0000000000000000000000000000000000000000000000000000000008152600401610cf890612b90565b60405180910390fd5b600280811115610d1457610d1361297f565b5b600760029054906101000a900460ff166002811115610d3657610d3561297f565b5b1415610d77576040517f08c379a0000000000000000000000000000000000000000000000000000000008152600401610d6e90612bfc565b60405180910390fd5b6000600960003373ffffffffffffffffffffffffffffffffffffffff1673ffffffffffffffffffffffffffffffffffffffff16815260200190815260200160002090508060050160009054906101000a900460ff1615610e0c576040517f08c379a0000000000000000000000000000000000000000000000000000000008152600401610e0390612e4e565b60405180910390fd5b600081600401541415610e54576040517f08c379a0000000000000000000000000000000000000000000000000000000008152600401610e4b90612ee0565b60405180910390fd5b60018160050160006101000a81548160ff0219169083151502179055508181600601819055506004339080600181540180825580915050600190039060005260206000200160009091909190916101000a81548173ffffffffffffffffffffffffffffffffffffffff021916908373ffffffffffffffffffffffffffffffffffffffff1602179055508060040154600860008573ffffffffffffffffffffffffffffffffffffffff1673ffffffffffffffffffffffffffffffffffffffff1681526020019081526020016000206004016000828254610f339190612f2f565b92505081905550505050565b600260009054906101000a900473ffffffffffffffffffffffffffffffffffffffff1673ffffffffffffffffffffffffffffffffffffffff163373ffffffffffffffffffffffffffffffffffffffff1614610fcf576040517f08c379a0000000000000000000000000000000000000000000000000000000008152600401610fc690612b24565b60405180910390fd5b60006002811115610fe357610fe261297f565b5b600760029054906101000a900460ff1660028111156110055761100461297f565b5b14611045576040517f08c379a000000000000000000000000000000000000000000000000000000000815260040161103c90612b90565b60405180910390fd5b6002808111156110585761105761297f565b5b600760029054906101000a900460ff16600281111561107a5761107961297f565b5b14156110bb576040517f08c379a00000000000000000000000000000000000000000000000000000000081526004016110b290612bfc565b60405180910390fd5b6110c560016120b3565b60006110d160016120c9565b90506000600860008873ffffffffffffffffffffffffffffffffffffffff1673ffffffffffffffffffffffffffffffffffffffff1681526020019081526020016000209050818160000181905550858160020190805190602001906111379291906120d7565b50848160010190805190602001906111509291906120d7565b50838160030190805190602001906111699291906120d7565b5060008160040181905550868160050160006101000a81548173ffffffffffffffffffffffffffffffffffffffff021916908373ffffffffffffffffffffffffffffffffffffffff160217905550828160060190805190602001906111cf9291906120d7565b506003879080600181540180825580915050600190039060005260206000200160009091909190916101000a81548173ffffffffffffffffffffffffffffffffffffffff021916908373ffffffffffffffffffffffffffffffffffffffff16021790555080600001547f978d20e26392611c02bd1a6e72cc85fa19bd1024b23c12155f8183fbc90902e787878785600401548660050160009054906101000a900473ffffffffffffffffffffffffffffffffffffffff168760060160405161129c96959493929190612f85565b60405180910390a250505050505050565b60065481565b60086020528060005260406000206000915090508060000154908060010180546112dc90612cb7565b80601f016020809104026020016040519081016040528092919081815260200182805461130890612cb7565b80156113555780601f1061132a57610100808354040283529160200191611355565b820191906000526020600020905b81548152906001019060200180831161133857829003601f168201915b50505050509080600201805461136a90612cb7565b80601f016020809104026020016040519081016040528092919081815260200182805461139690612cb7565b80156113e35780601f106113b8576101008083540402835291602001916113e3565b820191906000526020600020905b8154815290600101906020018083116113c657829003601f168201915b5050505050908060030180546113f890612cb7565b80601f016020809104026020016040519081016040528092919081815260200182805461142490612cb7565b80156114715780601f1061144657610100808354040283529160200191611471565b820191906000526020600020905b81548152906001019060200180831161145457829003601f168201915b5050505050908060040154908060050160009054906101000a900473ffffffffffffffffffffffffffffffffffffffff16908060060180546114b290612cb7565b80601f01602080910402602001604051908101604052809291908181526020018280546114de90612cb7565b801561152b5780601f106115005761010080835404028352916020019161152b565b820191906000526020600020905b81548152906001019060200180831161150e57829003601f168201915b5050505050905087565b606060048054806020026020016040519081016040528092919081815260200182805480156115b957602002820191906000526020600020905b8160009054906101000a900473ffffffffffffffffffffffffffffffffffffffff1673ffffffffffffffffffffffffffffffffffffffff168152602001906001019080831161156f575b5050505050905090565b60096020528060005260406000206000915090508060000154908060010180546115ec90612cb7565b80601f016020809104026020016040519081016040528092919081815260200182805461161890612cb7565b80156116655780601f1061163a57610100808354040283529160200191611665565b820191906000526020600020905b81548152906001019060200180831161164857829003601f168201915b50505050509080600201805461167a90612cb7565b80601f01602080910402602001604051908101604052809291908181526020018280546116a690612cb7565b80156116f35780601f106116c8576101008083540402835291602001916116f3565b820191906000526020600020905b8154815290600101906020018083116116d657829003601f168201915b5050505050908060030160009054906101000a900473ffffffffffffffffffffffffffffffffffffffff16908060040154908060050160009054906101000a900460ff169080600601549080600701805461174d90612cb7565b80601f016020809104026020016040519081016040528092919081815260200182805461177990612cb7565b80156117c65780601f1061179b576101008083540402835291602001916117c6565b820191906000526020600020905b8154815290600101906020018083116117a957829003601f168201915b5050505050905088565b6000600380549050905090565b600060608060006060600080600960008973ffffffffffffffffffffffffffffffffffffffff1673ffffffffffffffffffffffffffffffffffffffff16815260200190815260200160002060000154600960008a73ffffffffffffffffffffffffffffffffffffffff1673ffffffffffffffffffffffffffffffffffffffff168152602001908152602001600020600101600960008b73ffffffffffffffffffffffffffffffffffffffff1673ffffffffffffffffffffffffffffffffffffffff168152602001908152602001600020600201600960008c73ffffffffffffffffffffffffffffffffffffffff1673ffffffffffffffffffffffffffffffffffffffff16815260200190815260200160002060030160009054906101000a900473ffffffffffffffffffffffffffffffffffffffff16600960008d73ffffffffffffffffffffffffffffffffffffffff1673ffffffffffffffffffffffffffffffffffffffff168152602001908152602001600020600701600960008e73ffffffffffffffffffffffffffffffffffffffff1673ffffffffffffffffffffffffffffffffffffffff16815260200190815260200160002060040154600960008f73ffffffffffffffffffffffffffffffffffffffff1673ffffffffffffffffffffffffffffffffffffffff16815260200190815260200160002060050160009054906101000a900460ff168580546119f490612cb7565b80601f0160208091040260200160405190810160405280929190818152602001828054611a2090612cb7565b8015611a6d5780601f10611a4257610100808354040283529160200191611a6d565b820191906000526020600020905b815481529060010190602001808311611a5057829003601f168201915b50505050509550848054611a8090612cb7565b80601f0160208091040260200160405190810160405280929190818152602001828054611aac90612cb7565b8015611af95780601f10611ace57610100808354040283529160200191611af9565b820191906000526020600020905b815481529060010190602001808311611adc57829003601f168201915b50505050509450828054611b0c90612cb7565b80601f0160208091040260200160405190810160405280929190818152602001828054611b3890612cb7565b8015611b855780601f10611b5a57610100808354040283529160200191611b85565b820191906000526020600020905b815481529060010190602001808311611b6857829003601f168201915b505050505092509650965096509650965096509650919395979092949650565b600760029054906101000a900460ff1681565b6000806002811115611bcd57611bcc61297f565b5b600760029054906101000a900460ff166002811115611bef57611bee61297f565b5b1415611c30576040517f08c379a0000000000000000000000000000000000000000000000000000000008152600401611c279061304e565b60405180910390fd5b60016002811115611c4457611c4361297f565b5b600760029054906101000a900460ff166002811115611c6657611c6561297f565b5b14611ca6576040517f08c379a0000000000000000000000000000000000000000000000000000000008152600401611c9d906130ba565b60405180910390fd5b600060065442611cb691906130da565b905060008161012c611cc891906130da565b90507f6e1ea285d938f50940b045a76ae5cd13c9e6e1ff6b06be77013cfda2b3698cec81604051611cf99190612268565b60405180910390a1809250505090565b600260009054906101000a900473ffffffffffffffffffffffffffffffffffffffff1681565b60038181548110611d3f57600080fd5b906000526020600020016000915054906101000a900473ffffffffffffffffffffffffffffffffffffffff1681565b60048181548110611d7e57600080fd5b906000526020600020016000915054906101000a900473ffffffffffffffffffffffffffffffffffffffff1681565b6000600480549050905090565b600260009054906101000a900473ffffffffffffffffffffffffffffffffffffffff1673ffffffffffffffffffffffffffffffffffffffff163373ffffffffffffffffffffffffffffffffffffffff1614611e4a576040517f08c379a0000000000000000000000000000000000000000000000000000000008152600401611e4190612b24565b60405180910390fd5b60006002811115611e5e57611e5d61297f565b5b600760029054906101000a900460ff166002811115611e8057611e7f61297f565b5b14611ec0576040517f08c379a0000000000000000000000000000000000000000000000000000000008152600401611eb790612b90565b60405180910390fd5b600280811115611ed357611ed261297f565b5b600760029054906101000a900460ff166002811115611ef557611ef461297f565b5b1415611f36576040517f08c379a0000000000000000000000000000000000000000000000000000000008152600401611f2d90612bfc565b60405180910390fd5b426006819055506001600760026101000a81548160ff02191690836002811115611f6357611f6261297f565b5b021790555050565b60606003805480602002602001604051908101604052809291908181526020018280548015611fef57602002820191906000526020600020905b8160009054906101000a900473ffffffffffffffffffffffffffffffffffffffff1673ffffffffffffffffffffffffffffffffffffffff1681526020019060010190808311611fa5575b5050505050905090565b6001600281111561200d5761200c61297f565b5b600760029054906101000a900460ff16600281111561202f5761202e61297f565b5b1461203957600080fd5b60006006544261204991906130da565b905061012c81111561205a57600080fd5b6002600760026101000a81548160ff021916908360028111156120805761207f61297f565b5b02179055506000600760026101000a81548160ff021916908360028111156120ab576120aa61297f565b5b021790555050565b6001816000016000828254019250508190555050565b600081600001549050919050565b8280546120e390612cb7565b90600052602060002090601f016020900481019282612105576000855561214c565b82601f1061211e57805160ff191683800117855561214c565b8280016001018555821561214c579182015b8281111561214b578251825591602001919060010190612130565b5b509050612159919061215d565b5090565b5b8082111561217657600081600090555060010161215e565b5090565b6000604051905090565b600080fd5b600080fd5b600073ffffffffffffffffffffffffffffffffffffffff82169050919050565b60006121b98261218e565b9050919050565b6121c9816121ae565b81146121d457600080fd5b50565b6000813590506121e6816121c0565b92915050565b60006020828403121561220257612201612184565b5b6000612210848285016121d7565b91505092915050565b60008115159050919050565b61222e81612219565b82525050565b60006020820190506122496000830184612225565b92915050565b6000819050919050565b6122628161224f565b82525050565b600060208201905061227d6000830184612259565b92915050565b600080fd5b600080fd5b6000601f19601f8301169050919050565b7f4e487b7100000000000000000000000000000000000000000000000000000000600052604160045260246000fd5b6122d68261228d565b810181811067ffffffffffffffff821117156122f5576122f461229e565b5b80604052505050565b600061230861217a565b905061231482826122cd565b919050565b600067ffffffffffffffff8211156123345761233361229e565b5b61233d8261228d565b9050602081019050919050565b82818337600083830152505050565b600061236c61236784612319565b6122fe565b90508281526020810184848401111561238857612387612288565b5b61239384828561234a565b509392505050565b600082601f8301126123b0576123af612283565b5b81356123c0848260208601612359565b91505092915050565b600080600080608085870312156123e3576123e2612184565b5b60006123f1878288016121d7565b945050602085013567ffffffffffffffff81111561241257612411612189565b5b61241e8782880161239b565b935050604085013567ffffffffffffffff81111561243f5761243e612189565b5b61244b8782880161239b565b925050606085013567ffffffffffffffff81111561246c5761246b612189565b5b6124788782880161239b565b91505092959194509250565b600081519050919050565b600082825260208201905092915050565b60005b838110156124be5780820151818401526020810190506124a3565b838111156124cd576000848401525b50505050565b60006124de82612484565b6124e8818561248f565b93506124f88185602086016124a0565b6125018161228d565b840191505092915050565b612515816121ae565b82525050565b600060e0820190508181036000830152612535818a6124d3565b9050818103602083015261254981896124d3565b90506125586040830188612259565b818103606083015261256a81876124d3565b90506125796080830186612259565b81810360a083015261258b81856124d3565b905061259a60c083018461250c565b98975050505050505050565b6125af8161224f565b81146125ba57600080fd5b50565b6000813590506125cc816125a6565b92915050565b600080604083850312156125e9576125e8612184565b5b60006125f7858286016121d7565b9250506020612608858286016125bd565b9150509250929050565b600080600080600060a0868803121561262e5761262d612184565b5b600061263c888289016121d7565b955050602086013567ffffffffffffffff81111561265d5761265c612189565b5b6126698882890161239b565b945050604086013567ffffffffffffffff81111561268a57612689612189565b5b6126968882890161239b565b935050606086013567ffffffffffffffff8111156126b7576126b6612189565b5b6126c38882890161239b565b925050608086013567ffffffffffffffff8111156126e4576126e3612189565b5b6126f08882890161239b565b9150509295509295909350565b600060e082019050612712600083018a612259565b818103602083015261272481896124d3565b9050818103604083015261273881886124d3565b9050818103606083015261274c81876124d3565b905061275b6080830186612259565b61276860a083018561250c565b81810360c083015261277a81846124d3565b905098975050505050505050565b600081519050919050565b600082825260208201905092915050565b6000819050602082019050919050565b6127bd816121ae565b82525050565b60006127cf83836127b4565b60208301905092915050565b6000602082019050919050565b60006127f382612788565b6127fd8185612793565b9350612808836127a4565b8060005b8381101561283957815161282088826127c3565b975061282b836127db565b92505060018101905061280c565b5085935050505092915050565b6000602082019050818103600083015261286081846127e8565b905092915050565b60006101008201905061287e600083018b612259565b8181036020830152612890818a6124d3565b905081810360408301526128a481896124d3565b90506128b3606083018861250c565b6128c06080830187612259565b6128cd60a0830186612225565b6128da60c0830185612259565b81810360e08301526128ec81846124d3565b90509998505050505050505050565b600060e082019050612910600083018a612259565b818103602083015261292281896124d3565b9050818103604083015261293681886124d3565b9050612945606083018761250c565b818103608083015261295781866124d3565b905061296660a0830185612259565b61297360c0830184612225565b98975050505050505050565b7f4e487b7100000000000000000000000000000000000000000000000000000000600052602160045260246000fd5b600381106129bf576129be61297f565b5b50565b60008190506129d0826129ae565b919050565b60006129e0826129c2565b9050919050565b6129f0816129d5565b82525050565b6000602082019050612a0b60008301846129e7565b92915050565b6000602082019050612a26600083018461250c565b92915050565b600060208284031215612a4257612a41612184565b5b6000612a50848285016125bd565b91505092915050565b612a6281612219565b8114612a6d57600080fd5b50565b600081359050612a7f81612a59565b92915050565b600060208284031215612a9b57612a9a612184565b5b6000612aa984828501612a70565b91505092915050565b7f4f6e6c792074686520636f6e747261637420617574686f72697a65722063616e60008201527f2063616c6c20746869732066756e6374696f6e2e000000000000000000000000602082015250565b6000612b0e60348361248f565b9150612b1982612ab2565b604082019050919050565b60006020820190508181036000830152612b3d81612b01565b9050919050565b7f456c656374696f6e2068617320616c726561647920737461727465642e000000600082015250565b6000612b7a601d8361248f565b9150612b8582612b44565b602082019050919050565b60006020820190508181036000830152612ba981612b6d565b9050919050565b7f456c656374696f6e2068617320616c726561647920656e646564000000000000600082015250565b6000612be6601a8361248f565b9150612bf182612bb0565b602082019050919050565b60006020820190508181036000830152612c1581612bd9565b9050919050565b7f54686973206163636f756e7420616c7265616479206578697374730000000000600082015250565b6000612c52601b8361248f565b9150612c5d82612c1c565b602082019050919050565b60006020820190508181036000830152612c8181612c45565b9050919050565b7f4e487b7100000000000000000000000000000000000000000000000000000000600052602260045260246000fd5b60006002820490506001821680612ccf57607f821691505b60208210811415612ce357612ce2612c88565b5b50919050565b60008190508160005260206000209050919050565b60008154612d0b81612cb7565b612d15818661248f565b94506001821660008114612d305760018114612d4257612d75565b60ff1983168652602086019350612d75565b612d4b85612ce9565b60005b83811015612d6d57815481890152600182019150602081019050612d4e565b808801955050505b50505092915050565b600060e0820190508181036000830152612d98818a6124d3565b90508181036020830152612dac81896124d3565b9050612dbb604083018861250c565b612dc86060830187612259565b612dd56080830186612225565b612de260a0830185612259565b81810360c0830152612df48184612cfe565b905098975050505050505050565b7f596f752063616e277420766f74652074776963652e0000000000000000000000600082015250565b6000612e3860158361248f565b9150612e4382612e02565b602082019050919050565b60006020820190508181036000830152612e6781612e2b565b9050919050565b7f596f7572206163636f756e742069736e27742072656769737465726564206f7260008201527f20617574686f72697a65642e0000000000000000000000000000000000000000602082015250565b6000612eca602c8361248f565b9150612ed582612e6e565b604082019050919050565b60006020820190508181036000830152612ef981612ebd565b9050919050565b7f4e487b7100000000000000000000000000000000000000000000000000000000600052601160045260246000fd5b6000612f3a8261224f565b9150612f458361224f565b9250827fffffffffffffffffffffffffffffffffffffffffffffffffffffffffffffffff03821115612f7a57612f79612f00565b5b828201905092915050565b600060c0820190508181036000830152612f9f81896124d3565b90508181036020830152612fb381886124d3565b90508181036040830152612fc781876124d3565b9050612fd66060830186612259565b612fe3608083018561250c565b81810360a0830152612ff58184612cfe565b9050979650505050505050565b7f456c656374696f6e20686173206e6f742079657420737461727465642e000000600082015250565b6000613038601d8361248f565b915061304382613002565b602082019050919050565b600060208201905081810360008301526130678161302b565b9050919050565b7f456c656374696f6e2068617320656e6465642e00000000000000000000000000600082015250565b60006130a460138361248f565b91506130af8261306e565b602082019050919050565b600060208201905081810360008301526130d381613097565b9050919050565b60006130e58261224f565b91506130f08361224f565b92508282101561310357613102612f00565b5b82820390509291505056fea2646970667358221220ece352220ade165fb99a771f93549e9fb3c297f162c223f9c52e3fd77208c48b64736f6c63430008090033",
  "linkReferences": {},
  "deployedLinkReferences": {}
}