{
  "_format": "hh-sol-artifact-1",
  "contractName": "Devapp",
  "sourceName": "contracts/DevappContract.sol",
  "abi": [
    {
      "inputs": [],
      "stateMutability": "nonpayable",
      "type": "constructor"
    },
    {
      "anonymous": false,
      "inputs": [
        {
          "indexed": false,
          "internalType": "uint256",
          "name": "timestamp",
          "type": "uint256"
        }
      ],
      "name": "Action",
      "type": "event"
    },
    {
      "anonymous": false,
      "inputs": [
        {
          "indexed": true,
          "internalType": "uint256",
          "name": "id",
          "type": "uint256"
        },
        {
          "indexed": false,
          "internalType": "string",
          "name": "age",
          "type": "string"
        },
        {
          "indexed": false,
          "internalType": "string",
          "name": "name",
          "type": "string"
        },
        {
          "indexed": false,
          "internalType": "string",
          "name": "image",
          "type": "string"
        },
        {
          "indexed": false,
          "internalType": "uint256",
          "name": "voteCount",
          "type": "uint256"
        },
        {
          "indexed": false,
          "internalType": "address",
          "name": "addr",
          "type": "address"
        },
        {
          "indexed": false,
          "internalType": "string",
          "name": "ipfs",
          "type": "string"
        }
      ],
      "name": "CandidateCreated",
      "type": "event"
    },
    {
      "anonymous": false,
      "inputs": [
        {
          "indexed": true,
          "internalType": "uint256",
          "name": "id",
          "type": "uint256"
        },
        {
          "indexed": false,
          "internalType": "string",
          "name": "name",
          "type": "string"
        },
        {
          "indexed": false,
          "internalType": "string",
          "name": "image",
          "type": "string"
        },
        {
          "indexed": false,
          "internalType": "address",
          "name": "addr",
          "type": "address"
        },
        {
          "indexed": false,
          "internalType": "uint256",
          "name": "voteCredits",
          "type": "uint256"
        },
        {
          "indexed": false,
          "internalType": "bool",
          "name": "voted",
          "type": "bool"
        },
        {
          "indexed": false,
          "internalType": "uint256",
          "name": "voteIndex",
          "type": "uint256"
        },
        {
          "indexed": false,
          "internalType": "string",
          "name": "ipfs",
          "type": "string"
        }
      ],
      "name": "VoterCreated",
      "type": "event"
    },
    {
      "inputs": [],
      "name": "ELECTION_DURATION",
      "outputs": [
        {
          "internalType": "uint256",
          "name": "",
          "type": "uint256"
        }
      ],
      "stateMutability": "view",
      "type": "function"
    },
    {
      "inputs": [],
      "name": "authorizer",
      "outputs": [
        {
          "internalType": "address",
          "name": "",
          "type": "address"
        }
      ],
      "stateMutability": "view",
      "type": "function"
    },
    {
      "inputs": [
        {
          "internalType": "uint256",
          "name": "",
          "type": "uint256"
        }
      ],
      "name": "candidateAddresses",
      "outputs": [
        {
          "internalType": "address",
          "name": "",
          "type": "address"
        }
      ],
      "stateMutability": "view",
      "type": "function"
    },
    {
      "inputs": [
        {
          "internalType": "address",
          "name": "",
          "type": "address"
        }
      ],
      "name": "candidates",
      "outputs": [
        {
          "internalType": "uint256",
          "name": "id",
          "type": "uint256"
        },
        {
          "internalType": "string",
          "name": "age",
          "type": "string"
        },
        {
          "internalType": "string",
          "name": "name",
          "type": "string"
        },
        {
          "internalType": "string",
          "name": "image",
          "type": "string"
        },
        {
          "internalType": "uint256",
          "name": "voteCount",
          "type": "uint256"
        },
        {
          "internalType": "address",
          "name": "addr",
          "type": "address"
        },
        {
          "internalType": "string",
          "name": "ipfs",
          "type": "string"
        }
      ],
      "stateMutability": "view",
      "type": "function"
    },
    {
      "inputs": [
        {
          "internalType": "bool",
          "name": "",
          "type": "bool"
        }
      ],
      "name": "commenceElection",
      "outputs": [],
      "stateMutability": "nonpayable",
      "type": "function"
    },
    {
      "inputs": [
        {
          "internalType": "address",
          "name": "_addr",
          "type": "address"
        },
        {
          "internalType": "string",
          "name": "_name",
          "type": "string"
        },
        {
          "internalType": "string",
          "name": "_age",
          "type": "string"
        },
        {
          "internalType": "string",
          "name": "_image",
          "type": "string"
        },
        {
          "internalType": "string",
          "name": "_ipfs",
          "type": "string"
        }
      ],
      "name": "createCandidate",
      "outputs": [],
      "stateMutability": "nonpayable",
      "type": "function"
    },
    {
      "inputs": [
        {
          "internalType": "address",
          "name": "_addr",
          "type": "address"
        },
        {
          "internalType": "string",
          "name": "_name",
          "type": "string"
        },
        {
          "internalType": "string",
          "name": "_image",
          "type": "string"
        },
        {
          "internalType": "string",
          "name": "_ipfs",
          "type": "string"
        }
      ],
      "name": "createVoters",
      "outputs": [],
      "stateMutability": "nonpayable",
      "type": "function"
    },
    {
      "inputs": [],
      "name": "electionEnds",
      "outputs": [],
      "stateMutability": "nonpayable",
      "type": "function"
    },
    {
      "inputs": [],
      "name": "ended",
      "outputs": [
        {
          "internalType": "bool",
          "name": "",
          "type": "bool"
        }
      ],
      "stateMutability": "view",
      "type": "function"
    },
    {
      "inputs": [],
      "name": "getCandidateAddress",
      "outputs": [
        {
          "internalType": "address[]",
          "name": "",
          "type": "address[]"
        }
      ],
      "stateMutability": "view",
      "type": "function"
    },
    {
      "inputs": [],
      "name": "getCandidateAddressesLength",
      "outputs": [
        {
          "internalType": "uint256",
          "name": "",
          "type": "uint256"
        }
      ],
      "stateMutability": "view",
      "type": "function"
    },
    {
      "inputs": [
        {
          "internalType": "address",
          "name": "_address",
          "type": "address"
        }
      ],
      "name": "getCandidateData",
      "outputs": [
        {
          "internalType": "string",
          "name": "",
          "type": "string"
        },
        {
          "internalType": "string",
          "name": "",
          "type": "string"
        },
        {
          "internalType": "uint256",
          "name": "",
          "type": "uint256"
        },
        {
          "internalType": "string",
          "name": "",
          "type": "string"
        },
        {
          "internalType": "uint256",
          "name": "",
          "type": "uint256"
        },
        {
          "internalType": "string",
          "name": "",
          "type": "string"
        },
        {
          "internalType": "address",
          "name": "",
          "type": "address"
        }
      ],
      "stateMutability": "view",
      "type": "function"
    },
    {
      "inputs": [
        {
          "internalType": "address",
          "name": "_addr",
          "type": "address"
        }
      ],
      "name": "getVoterDetails",
      "outputs": [
        {
          "internalType": "uint256",
          "name": "",
          "type": "uint256"
        },
        {
          "internalType": "string",
          "name": "",
          "type": "string"
        },
        {
          "internalType": "string",
          "name": "",
          "type": "string"
        },
        {
          "internalType": "address",
          "name": "",
          "type": "address"
        },
        {
          "internalType": "string",
          "name": "",
          "type": "string"
        },
        {
          "internalType": "uint256",
          "name": "",
          "type": "uint256"
        },
        {
          "internalType": "bool",
          "name": "",
          "type": "bool"
        }
      ],
      "stateMutability": "view",
      "type": "function"
    },
    {
      "inputs": [],
      "name": "getVotersLength",
      "outputs": [
        {
          "internalType": "uint256",
          "name": "",
          "type": "uint256"
        }
      ],
      "stateMutability": "view",
      "type": "function"
    },
    {
      "inputs": [],
      "name": "get_voter_list",
      "outputs": [
        {
          "internalType": "address[]",
          "name": "",
          "type": "address[]"
        }
      ],
      "stateMutability": "view",
      "type": "function"
    },
    {
      "inputs": [
        {
          "internalType": "address",
          "name": "",
          "type": "address"
        }
      ],
      "name": "hasVoted",
      "outputs": [
        {
          "internalType": "bool",
          "name": "",
          "type": "bool"
        }
      ],
      "stateMutability": "view",
      "type": "function"
    },
    {
      "inputs": [],
      "name": "startTime",
      "outputs": [
        {
          "internalType": "uint256",
          "name": "",
          "type": "uint256"
        }
      ],
      "stateMutability": "view",
      "type": "function"
    },
    {
      "inputs": [],
      "name": "started",
      "outputs": [
        {
          "internalType": "bool",
          "name": "",
          "type": "bool"
        }
      ],
      "stateMutability": "view",
      "type": "function"
    },
    {
      "inputs": [],
      "name": "state",
      "outputs": [
        {
          "internalType": "enum Devapp.ElectionState",
          "name": "",
          "type": "uint8"
        }
      ],
      "stateMutability": "view",
      "type": "function"
    },
    {
      "inputs": [],
      "name": "totalVotes",
      "outputs": [
        {
          "internalType": "uint256",
          "name": "",
          "type": "uint256"
        }
      ],
      "stateMutability": "view",
      "type": "function"
    },
    {
      "inputs": [
        {
          "internalType": "address",
          "name": "_candidateAddr",
          "type": "address"
        },
        {
          "internalType": "uint256",
          "name": "_candidateUniqueId",
          "type": "uint256"
        }
      ],
      "name": "voteBooth",
      "outputs": [],
      "stateMutability": "nonpayable",
      "type": "function"
    },
    {
      "inputs": [
        {
          "internalType": "uint256",
          "name": "",
          "type": "uint256"
        }
      ],
      "name": "voterAddresses",
      "outputs": [
        {
          "internalType": "address",
          "name": "",
          "type": "address"
        }
      ],
      "stateMutability": "view",
      "type": "function"
    },
    {
      "inputs": [
        {
          "internalType": "address",
          "name": "",
          "type": "address"
        }
      ],
      "name": "voters",
      "outputs": [
        {
          "internalType": "uint256",
          "name": "id",
          "type": "uint256"
        },
        {
          "internalType": "string",
          "name": "name",
          "type": "string"
        },
        {
          "internalType": "string",
          "name": "image",
          "type": "string"
        },
        {
          "internalType": "address",
          "name": "addr",
          "type": "address"
        },
        {
          "internalType": "uint256",
          "name": "voteCredits",
          "type": "uint256"
        },
        {
          "internalType": "bool",
          "name": "voted",
          "type": "bool"
        },
        {
          "internalType": "uint256",
          "name": "voteIndex",
          "type": "uint256"
        },
        {
          "internalType": "string",
          "name": "ipfs",
          "type": "string"
        }
      ],
      "stateMutability": "view",
      "type": "function"
    }
  ],
  "bytecode": "0x60806040526000600760026101000a81548160ff021916908360028111156200002d576200002c620000b5565b5b02179055503480156200003f57600080fd5b5033600260006101000a81548173ffffffffffffffffffffffffffffffffffffffff021916908373ffffffffffffffffffffffffffffffffffffffff1602179055506000600760026101000a81548160ff02191690836002811115620000aa57620000a9620000b5565b5b0217905550620000e4565b7f4e487b7100000000000000000000000000000000000000000000000000000000600052602160045260246000fd5b61308e80620000f46000396000f3fe608060405234801561001057600080fd5b506004361061014d5760003560e01c80638ef0c4d2116100c3578063d55d73c51161007c578063d55d73c5146103bd578063dd0e2373146103ed578063de2237d31461041d578063f76413ff1461043b578063fc3f507814610457578063fdebb490146104755761014d565b80638ef0c4d2146102d8578063a3ec138d146102f6578063b8417f0e1461032d578063ba71bef01461034b578063c19d93fb14610381578063d09edf311461039f5761014d565b80632a466ac7116101155780632a466ac7146101f85780635e8f17471461022e5780637203a7a51461024c5780637657bec91461026857806378e97925146102845780638ab66a90146102a25761014d565b806309eef43e146101525780630d15fd771461018257806312fa6feb146101a05780631923c3ef146101be5780631f2698ab146101da575b600080fd5b61016c600480360381019061016791906121a2565b61047f565b60405161017991906121ea565b60405180910390f35b61018a61049f565b604051610197919061221e565b60405180910390f35b6101a86104a5565b6040516101b591906121ea565b60405180910390f35b6101d860048036038101906101d3919061237f565b6104b8565b005b6101e2610870565b6040516101ef91906121ea565b60405180910390f35b610212600480360381019061020d91906121a2565b610883565b60405161022597969594939291906124d1565b60405180910390f35b610236610bcc565b604051610243919061221e565b60405180910390f35b61026660048036038101906102619190612588565b610bd2565b005b610282600480360381019061027d91906125c8565b610f16565b005b61028c6112f4565b604051610299919061221e565b60405180910390f35b6102bc60048036038101906102b791906121a2565b6112fa565b6040516102cf97969594939291906126b3565b60405180910390f35b6102e061157c565b6040516102ed91906127fc565b60405180910390f35b610310600480360381019061030b91906121a2565b61166a565b60405161032498979695949392919061281e565b60405180910390f35b610335611877565b604051610342919061221e565b60405180910390f35b610365600480360381019061036091906121a2565b611884565b60405161037897969594939291906128b1565b60405180910390f35b610389611c4c565b60405161039691906129ac565b60405180910390f35b6103a7611c5f565b6040516103b491906129c7565b60405180910390f35b6103d760048036038101906103d291906129e2565b611c85565b6040516103e491906129c7565b60405180910390f35b610407600480360381019061040291906129e2565b611cc4565b60405161041491906129c7565b60405180910390f35b610425611d03565b604051610432919061221e565b60405180910390f35b61045560048036038101906104509190612a3b565b611d10565b005b61045f611ec1565b60405161046c91906127fc565b60405180910390f35b61047d611faf565b005b600a6020528060005260406000206000915054906101000a900460ff1681565b60055481565b600760009054906101000a900460ff1681565b600260009054906101000a900473ffffffffffffffffffffffffffffffffffffffff1673ffffffffffffffffffffffffffffffffffffffff163373ffffffffffffffffffffffffffffffffffffffff1614610548576040517f08c379a000000000000000000000000000000000000000000000000000000000815260040161053f90612ada565b60405180910390fd5b6000600281111561055c5761055b612935565b5b600760029054906101000a900460ff16600281111561057e5761057d612935565b5b146105be576040517f08c379a00000000000000000000000000000000000000000000000000000000081526004016105b590612b46565b60405180910390fd5b6002808111156105d1576105d0612935565b5b600760029054906101000a900460ff1660028111156105f3576105f2612935565b5b1415610634576040517f08c379a000000000000000000000000000000000000000000000000000000000815260040161062b90612bb2565b60405180910390fd5b61063e6000612069565b600061064a600061207f565b90506000600960008773ffffffffffffffffffffffffffffffffffffffff1673ffffffffffffffffffffffffffffffffffffffff168152602001908152602001600020905060008160040154146106d6576040517f08c379a00000000000000000000000000000000000000000000000000000000081526004016106cd90612c1e565b60405180910390fd5b60018160040181905550848160010190805190602001906106f892919061208d565b508381600201908051906020019061071192919061208d565b50858160030160006101000a81548173ffffffffffffffffffffffffffffffffffffffff021916908373ffffffffffffffffffffffffffffffffffffffff160217905550818160000181905550633b9aca00816006018190555060008160050160006101000a81548160ff021916908315150217905550828160070190805190602001906107a092919061208d565b506004869080600181540180825580915050600190039060005260206000200160009091909190916101000a81548173ffffffffffffffffffffffffffffffffffffffff021916908373ffffffffffffffffffffffffffffffffffffffff16021790555080600001547ff5f39971dd62d9929e3a9feaa6bb77fe7c7da0001babff8a65a7e51ad0201c1986868985600401548660050160009054906101000a900460ff168760060154886007016040516108609796959493929190612d34565b60405180910390a2505050505050565b600760019054906101000a900460ff1681565b6060806000606060006060600080600860008a73ffffffffffffffffffffffffffffffffffffffff1673ffffffffffffffffffffffffffffffffffffffff1681526020019081526020016000206040518060e0016040529081600082015481526020016001820180546108f590612c6d565b80601f016020809104026020016040519081016040528092919081815260200182805461092190612c6d565b801561096e5780601f106109435761010080835404028352916020019161096e565b820191906000526020600020905b81548152906001019060200180831161095157829003601f168201915b5050505050815260200160028201805461098790612c6d565b80601f01602080910402602001604051908101604052809291908181526020018280546109b390612c6d565b8015610a005780601f106109d557610100808354040283529160200191610a00565b820191906000526020600020905b8154815290600101906020018083116109e357829003601f168201915b50505050508152602001600382018054610a1990612c6d565b80601f0160208091040260200160405190810160405280929190818152602001828054610a4590612c6d565b8015610a925780601f10610a6757610100808354040283529160200191610a92565b820191906000526020600020905b815481529060010190602001808311610a7557829003601f168201915b50505050508152602001600482015481526020016005820160009054906101000a900473ffffffffffffffffffffffffffffffffffffffff1673ffffffffffffffffffffffffffffffffffffffff1673ffffffffffffffffffffffffffffffffffffffff168152602001600682018054610b0b90612c6d565b80601f0160208091040260200160405190810160405280929190818152602001828054610b3790612c6d565b8015610b845780601f10610b5957610100808354040283529160200191610b84565b820191906000526020600020905b815481529060010190602001808311610b6757829003601f168201915b5050505050815250509050806020015181604001518260000151836060015184608001518560c001518660a00151975097509750975097509750975050919395979092949650565b61070881565b600260009054906101000a900473ffffffffffffffffffffffffffffffffffffffff1673ffffffffffffffffffffffffffffffffffffffff163373ffffffffffffffffffffffffffffffffffffffff1614610c62576040517f08c379a0000000000000000000000000000000000000000000000000000000008152600401610c5990612ada565b60405180910390fd5b60006002811115610c7657610c75612935565b5b600760029054906101000a900460ff166002811115610c9857610c97612935565b5b14610cd8576040517f08c379a0000000000000000000000000000000000000000000000000000000008152600401610ccf90612b46565b60405180910390fd5b600280811115610ceb57610cea612935565b5b600760029054906101000a900460ff166002811115610d0d57610d0c612935565b5b1415610d4e576040517f08c379a0000000000000000000000000000000000000000000000000000000008152600401610d4590612bb2565b60405180910390fd5b6000600960003373ffffffffffffffffffffffffffffffffffffffff1673ffffffffffffffffffffffffffffffffffffffff16815260200190815260200160002090508060050160009054906101000a900460ff1615610de3576040517f08c379a0000000000000000000000000000000000000000000000000000000008152600401610dda90612e04565b60405180910390fd5b600081600401541415610e2b576040517f08c379a0000000000000000000000000000000000000000000000000000000008152600401610e2290612e96565b60405180910390fd5b60018160050160006101000a81548160ff0219169083151502179055508181600601819055506004339080600181540180825580915050600190039060005260206000200160009091909190916101000a81548173ffffffffffffffffffffffffffffffffffffffff021916908373ffffffffffffffffffffffffffffffffffffffff1602179055508060040154600860008573ffffffffffffffffffffffffffffffffffffffff1673ffffffffffffffffffffffffffffffffffffffff1681526020019081526020016000206004016000828254610f0a9190612ee5565b92505081905550505050565b600260009054906101000a900473ffffffffffffffffffffffffffffffffffffffff1673ffffffffffffffffffffffffffffffffffffffff163373ffffffffffffffffffffffffffffffffffffffff1614610fa6576040517f08c379a0000000000000000000000000000000000000000000000000000000008152600401610f9d90612ada565b60405180910390fd5b60006002811115610fba57610fb9612935565b5b600760029054906101000a900460ff166002811115610fdc57610fdb612935565b5b1461101c576040517f08c379a000000000000000000000000000000000000000000000000000000000815260040161101390612b46565b60405180910390fd5b60028081111561102f5761102e612935565b5b600760029054906101000a900460ff16600281111561105157611050612935565b5b1415611092576040517f08c379a000000000000000000000000000000000000000000000000000000000815260040161108990612bb2565b60405180910390fd5b600073ffffffffffffffffffffffffffffffffffffffff168573ffffffffffffffffffffffffffffffffffffffff161415611102576040517f08c379a00000000000000000000000000000000000000000000000000000000081526004016110f990612f87565b60405180910390fd5b61110c6001612069565b6000611118600161207f565b90506000600860008873ffffffffffffffffffffffffffffffffffffffff1673ffffffffffffffffffffffffffffffffffffffff16815260200190815260200160002090508181600001819055508581600201908051906020019061117e92919061208d565b508481600101908051906020019061119792919061208d565b50838160030190805190602001906111b092919061208d565b5060008160040181905550868160050160006101000a81548173ffffffffffffffffffffffffffffffffffffffff021916908373ffffffffffffffffffffffffffffffffffffffff1602179055508281600601908051906020019061121692919061208d565b506003879080600181540180825580915050600190039060005260206000200160009091909190916101000a81548173ffffffffffffffffffffffffffffffffffffffff021916908373ffffffffffffffffffffffffffffffffffffffff16021790555080600001547f978d20e26392611c02bd1a6e72cc85fa19bd1024b23c12155f8183fbc90902e787878785600401548660050160009054906101000a900473ffffffffffffffffffffffffffffffffffffffff16876006016040516112e396959493929190612fa7565b60405180910390a250505050505050565b60065481565b600860205280600052604060002060009150905080600001549080600101805461132390612c6d565b80601f016020809104026020016040519081016040528092919081815260200182805461134f90612c6d565b801561139c5780601f106113715761010080835404028352916020019161139c565b820191906000526020600020905b81548152906001019060200180831161137f57829003601f168201915b5050505050908060020180546113b190612c6d565b80601f01602080910402602001604051908101604052809291908181526020018280546113dd90612c6d565b801561142a5780601f106113ff5761010080835404028352916020019161142a565b820191906000526020600020905b81548152906001019060200180831161140d57829003601f168201915b50505050509080600301805461143f90612c6d565b80601f016020809104026020016040519081016040528092919081815260200182805461146b90612c6d565b80156114b85780601f1061148d576101008083540402835291602001916114b8565b820191906000526020600020905b81548152906001019060200180831161149b57829003601f168201915b5050505050908060040154908060050160009054906101000a900473ffffffffffffffffffffffffffffffffffffffff16908060060180546114f990612c6d565b80601f016020809104026020016040519081016040528092919081815260200182805461152590612c6d565b80156115725780601f1061154757610100808354040283529160200191611572565b820191906000526020600020905b81548152906001019060200180831161155557829003601f168201915b5050505050905087565b6060600060048054905014156115dd57600067ffffffffffffffff8111156115a7576115a6612254565b5b6040519080825280602002602001820160405280156115d55781602001602082028036833780820191505090505b509050611667565b600480548060200260200160405190810160405280929190818152602001828054801561165f57602002820191906000526020600020905b8160009054906101000a900473ffffffffffffffffffffffffffffffffffffffff1673ffffffffffffffffffffffffffffffffffffffff1681526020019060010190808311611615575b505050505090505b90565b600960205280600052604060002060009150905080600001549080600101805461169390612c6d565b80601f01602080910402602001604051908101604052809291908181526020018280546116bf90612c6d565b801561170c5780601f106116e15761010080835404028352916020019161170c565b820191906000526020600020905b8154815290600101906020018083116116ef57829003601f168201915b50505050509080600201805461172190612c6d565b80601f016020809104026020016040519081016040528092919081815260200182805461174d90612c6d565b801561179a5780601f1061176f5761010080835404028352916020019161179a565b820191906000526020600020905b81548152906001019060200180831161177d57829003601f168201915b5050505050908060030160009054906101000a900473ffffffffffffffffffffffffffffffffffffffff16908060040154908060050160009054906101000a900460ff16908060060154908060070180546117f490612c6d565b80601f016020809104026020016040519081016040528092919081815260200182805461182090612c6d565b801561186d5780601f106118425761010080835404028352916020019161186d565b820191906000526020600020905b81548152906001019060200180831161185057829003601f168201915b5050505050905088565b6000600380549050905090565b600060608060006060600080600960008973ffffffffffffffffffffffffffffffffffffffff1673ffffffffffffffffffffffffffffffffffffffff16815260200190815260200160002060000154600960008a73ffffffffffffffffffffffffffffffffffffffff1673ffffffffffffffffffffffffffffffffffffffff168152602001908152602001600020600101600960008b73ffffffffffffffffffffffffffffffffffffffff1673ffffffffffffffffffffffffffffffffffffffff168152602001908152602001600020600201600960008c73ffffffffffffffffffffffffffffffffffffffff1673ffffffffffffffffffffffffffffffffffffffff16815260200190815260200160002060030160009054906101000a900473ffffffffffffffffffffffffffffffffffffffff16600960008d73ffffffffffffffffffffffffffffffffffffffff1673ffffffffffffffffffffffffffffffffffffffff168152602001908152602001600020600701600960008e73ffffffffffffffffffffffffffffffffffffffff1673ffffffffffffffffffffffffffffffffffffffff16815260200190815260200160002060040154600960008f73ffffffffffffffffffffffffffffffffffffffff1673ffffffffffffffffffffffffffffffffffffffff16815260200190815260200160002060050160009054906101000a900460ff16858054611a9b90612c6d565b80601f0160208091040260200160405190810160405280929190818152602001828054611ac790612c6d565b8015611b145780601f10611ae957610100808354040283529160200191611b14565b820191906000526020600020905b815481529060010190602001808311611af757829003601f168201915b50505050509550848054611b2790612c6d565b80601f0160208091040260200160405190810160405280929190818152602001828054611b5390612c6d565b8015611ba05780601f10611b7557610100808354040283529160200191611ba0565b820191906000526020600020905b815481529060010190602001808311611b8357829003601f168201915b50505050509450828054611bb390612c6d565b80601f0160208091040260200160405190810160405280929190818152602001828054611bdf90612c6d565b8015611c2c5780601f10611c0157610100808354040283529160200191611c2c565b820191906000526020600020905b815481529060010190602001808311611c0f57829003601f168201915b505050505092509650965096509650965096509650919395979092949650565b600760029054906101000a900460ff1681565b600260009054906101000a900473ffffffffffffffffffffffffffffffffffffffff1681565b60038181548110611c9557600080fd5b906000526020600020016000915054906101000a900473ffffffffffffffffffffffffffffffffffffffff1681565b60048181548110611cd457600080fd5b906000526020600020016000915054906101000a900473ffffffffffffffffffffffffffffffffffffffff1681565b6000600480549050905090565b600260009054906101000a900473ffffffffffffffffffffffffffffffffffffffff1673ffffffffffffffffffffffffffffffffffffffff163373ffffffffffffffffffffffffffffffffffffffff1614611da0576040517f08c379a0000000000000000000000000000000000000000000000000000000008152600401611d9790612ada565b60405180910390fd5b60006002811115611db457611db3612935565b5b600760029054906101000a900460ff166002811115611dd657611dd5612935565b5b14611e16576040517f08c379a0000000000000000000000000000000000000000000000000000000008152600401611e0d90612b46565b60405180910390fd5b600280811115611e2957611e28612935565b5b600760029054906101000a900460ff166002811115611e4b57611e4a612935565b5b1415611e8c576040517f08c379a0000000000000000000000000000000000000000000000000000000008152600401611e8390612bb2565b60405180910390fd5b426006819055506001600760026101000a81548160ff02191690836002811115611eb957611eb8612935565b5b021790555050565b606060006003805490501415611f2257600067ffffffffffffffff811115611eec57611eeb612254565b5b604051908082528060200260200182016040528015611f1a5781602001602082028036833780820191505090505b509050611fac565b6003805480602002602001604051908101604052809291908181526020018280548015611fa457602002820191906000526020600020905b8160009054906101000a900473ffffffffffffffffffffffffffffffffffffffff1673ffffffffffffffffffffffffffffffffffffffff1681526020019060010190808311611f5a575b505050505090505b90565b60016002811115611fc357611fc2612935565b5b600760029054906101000a900460ff166002811115611fe557611fe4612935565b5b14611fef57600080fd5b600060065442611fff9190613024565b905061070881111561201057600080fd5b6002600760026101000a81548160ff0219169083600281111561203657612035612935565b5b02179055506000600760026101000a81548160ff0219169083600281111561206157612060612935565b5b021790555050565b6001816000016000828254019250508190555050565b600081600001549050919050565b82805461209990612c6d565b90600052602060002090601f0160209004810192826120bb5760008555612102565b82601f106120d457805160ff1916838001178555612102565b82800160010185558215612102579182015b828111156121015782518255916020019190600101906120e6565b5b50905061210f9190612113565b5090565b5b8082111561212c576000816000905550600101612114565b5090565b6000604051905090565b600080fd5b600080fd5b600073ffffffffffffffffffffffffffffffffffffffff82169050919050565b600061216f82612144565b9050919050565b61217f81612164565b811461218a57600080fd5b50565b60008135905061219c81612176565b92915050565b6000602082840312156121b8576121b761213a565b5b60006121c68482850161218d565b91505092915050565b60008115159050919050565b6121e4816121cf565b82525050565b60006020820190506121ff60008301846121db565b92915050565b6000819050919050565b61221881612205565b82525050565b6000602082019050612233600083018461220f565b92915050565b600080fd5b600080fd5b6000601f19601f8301169050919050565b7f4e487b7100000000000000000000000000000000000000000000000000000000600052604160045260246000fd5b61228c82612243565b810181811067ffffffffffffffff821117156122ab576122aa612254565b5b80604052505050565b60006122be612130565b90506122ca8282612283565b919050565b600067ffffffffffffffff8211156122ea576122e9612254565b5b6122f382612243565b9050602081019050919050565b82818337600083830152505050565b600061232261231d846122cf565b6122b4565b90508281526020810184848401111561233e5761233d61223e565b5b612349848285612300565b509392505050565b600082601f83011261236657612365612239565b5b813561237684826020860161230f565b91505092915050565b600080600080608085870312156123995761239861213a565b5b60006123a78782880161218d565b945050602085013567ffffffffffffffff8111156123c8576123c761213f565b5b6123d487828801612351565b935050604085013567ffffffffffffffff8111156123f5576123f461213f565b5b61240187828801612351565b925050606085013567ffffffffffffffff8111156124225761242161213f565b5b61242e87828801612351565b91505092959194509250565b600081519050919050565b600082825260208201905092915050565b60005b83811015612474578082015181840152602081019050612459565b83811115612483576000848401525b50505050565b60006124948261243a565b61249e8185612445565b93506124ae818560208601612456565b6124b781612243565b840191505092915050565b6124cb81612164565b82525050565b600060e08201905081810360008301526124eb818a612489565b905081810360208301526124ff8189612489565b905061250e604083018861220f565b81810360608301526125208187612489565b905061252f608083018661220f565b81810360a08301526125418185612489565b905061255060c08301846124c2565b98975050505050505050565b61256581612205565b811461257057600080fd5b50565b6000813590506125828161255c565b92915050565b6000806040838503121561259f5761259e61213a565b5b60006125ad8582860161218d565b92505060206125be85828601612573565b9150509250929050565b600080600080600060a086880312156125e4576125e361213a565b5b60006125f28882890161218d565b955050602086013567ffffffffffffffff8111156126135761261261213f565b5b61261f88828901612351565b945050604086013567ffffffffffffffff8111156126405761263f61213f565b5b61264c88828901612351565b935050606086013567ffffffffffffffff81111561266d5761266c61213f565b5b61267988828901612351565b925050608086013567ffffffffffffffff81111561269a5761269961213f565b5b6126a688828901612351565b9150509295509295909350565b600060e0820190506126c8600083018a61220f565b81810360208301526126da8189612489565b905081810360408301526126ee8188612489565b905081810360608301526127028187612489565b9050612711608083018661220f565b61271e60a08301856124c2565b81810360c08301526127308184612489565b905098975050505050505050565b600081519050919050565b600082825260208201905092915050565b6000819050602082019050919050565b61277381612164565b82525050565b6000612785838361276a565b60208301905092915050565b6000602082019050919050565b60006127a98261273e565b6127b38185612749565b93506127be8361275a565b8060005b838110156127ef5781516127d68882612779565b97506127e183612791565b9250506001810190506127c2565b5085935050505092915050565b60006020820190508181036000830152612816818461279e565b905092915050565b600061010082019050612834600083018b61220f565b8181036020830152612846818a612489565b9050818103604083015261285a8189612489565b905061286960608301886124c2565b612876608083018761220f565b61288360a08301866121db565b61289060c083018561220f565b81810360e08301526128a28184612489565b90509998505050505050505050565b600060e0820190506128c6600083018a61220f565b81810360208301526128d88189612489565b905081810360408301526128ec8188612489565b90506128fb60608301876124c2565b818103608083015261290d8186612489565b905061291c60a083018561220f565b61292960c08301846121db565b98975050505050505050565b7f4e487b7100000000000000000000000000000000000000000000000000000000600052602160045260246000fd5b6003811061297557612974612935565b5b50565b600081905061298682612964565b919050565b600061299682612978565b9050919050565b6129a68161298b565b82525050565b60006020820190506129c1600083018461299d565b92915050565b60006020820190506129dc60008301846124c2565b92915050565b6000602082840312156129f8576129f761213a565b5b6000612a0684828501612573565b91505092915050565b612a18816121cf565b8114612a2357600080fd5b50565b600081359050612a3581612a0f565b92915050565b600060208284031215612a5157612a5061213a565b5b6000612a5f84828501612a26565b91505092915050565b7f4f6e6c792074686520636f6e747261637420617574686f72697a65722063616e60008201527f2063616c6c20746869732066756e6374696f6e2e000000000000000000000000602082015250565b6000612ac4603483612445565b9150612acf82612a68565b604082019050919050565b60006020820190508181036000830152612af381612ab7565b9050919050565b7f456c656374696f6e2068617320616c726561647920737461727465642e000000600082015250565b6000612b30601d83612445565b9150612b3b82612afa565b602082019050919050565b60006020820190508181036000830152612b5f81612b23565b9050919050565b7f456c656374696f6e2068617320616c726561647920656e646564000000000000600082015250565b6000612b9c601a83612445565b9150612ba782612b66565b602082019050919050565b60006020820190508181036000830152612bcb81612b8f565b9050919050565b7f54686973206163636f756e7420616c7265616479206578697374730000000000600082015250565b6000612c08601b83612445565b9150612c1382612bd2565b602082019050919050565b60006020820190508181036000830152612c3781612bfb565b9050919050565b7f4e487b7100000000000000000000000000000000000000000000000000000000600052602260045260246000fd5b60006002820490506001821680612c8557607f821691505b60208210811415612c9957612c98612c3e565b5b50919050565b60008190508160005260206000209050919050565b60008154612cc181612c6d565b612ccb8186612445565b94506001821660008114612ce65760018114612cf857612d2b565b60ff1983168652602086019350612d2b565b612d0185612c9f565b60005b83811015612d2357815481890152600182019150602081019050612d04565b808801955050505b50505092915050565b600060e0820190508181036000830152612d4e818a612489565b90508181036020830152612d628189612489565b9050612d7160408301886124c2565b612d7e606083018761220f565b612d8b60808301866121db565b612d9860a083018561220f565b81810360c0830152612daa8184612cb4565b905098975050505050505050565b7f596f752063616e277420766f74652074776963652e0000000000000000000000600082015250565b6000612dee601583612445565b9150612df982612db8565b602082019050919050565b60006020820190508181036000830152612e1d81612de1565b9050919050565b7f596f7572206163636f756e742069736e27742072656769737465726564206f7260008201527f20617574686f72697a65642e0000000000000000000000000000000000000000602082015250565b6000612e80602c83612445565b9150612e8b82612e24565b604082019050919050565b60006020820190508181036000830152612eaf81612e73565b9050919050565b7f4e487b7100000000000000000000000000000000000000000000000000000000600052601160045260246000fd5b6000612ef082612205565b9150612efb83612205565b9250827fffffffffffffffffffffffffffffffffffffffffffffffffffffffffffffffff03821115612f3057612f2f612eb6565b5b828201905092915050565b7f43616e64696461746520616464726573732063616e6e6f74206265207a65726f600082015250565b6000612f71602083612445565b9150612f7c82612f3b565b602082019050919050565b60006020820190508181036000830152612fa081612f64565b9050919050565b600060c0820190508181036000830152612fc18189612489565b90508181036020830152612fd58188612489565b90508181036040830152612fe98187612489565b9050612ff8606083018661220f565b61300560808301856124c2565b81810360a08301526130178184612cb4565b9050979650505050505050565b600061302f82612205565b915061303a83612205565b92508282101561304d5761304c612eb6565b5b82820390509291505056fea2646970667358221220c96c0ddc23f0f7036636679b45c412dfbb78cbaf1039c16ebdd40a2cd7350c1064736f6c63430008090033",
  "linkReferences": {},
  "deployedLinkReferences": {}
}