{
  "_format": "hh-sol-artifact-1",
  "contractName": "Devapp",
  "sourceName": "contracts/DevappContract.sol",
  "abi": [
    {
      "inputs": [],
      "stateMutability": "nonpayable",
      "type": "constructor"
    },
    {
      "anonymous": false,
      "inputs": [
        {
          "indexed": false,
          "internalType": "uint256",
          "name": "timestamp",
          "type": "uint256"
        }
      ],
      "name": "Action",
      "type": "event"
    },
    {
      "anonymous": false,
      "inputs": [
        {
          "indexed": true,
          "internalType": "uint256",
          "name": "id",
          "type": "uint256"
        },
        {
          "indexed": false,
          "internalType": "string",
          "name": "age",
          "type": "string"
        },
        {
          "indexed": false,
          "internalType": "string",
          "name": "name",
          "type": "string"
        },
        {
          "indexed": false,
          "internalType": "string",
          "name": "image",
          "type": "string"
        },
        {
          "indexed": false,
          "internalType": "uint256",
          "name": "voteCount",
          "type": "uint256"
        },
        {
          "indexed": false,
          "internalType": "address",
          "name": "addr",
          "type": "address"
        },
        {
          "indexed": false,
          "internalType": "string",
          "name": "ipfs",
          "type": "string"
        }
      ],
      "name": "CandidateCreated",
      "type": "event"
    },
    {
      "anonymous": false,
      "inputs": [
        {
          "indexed": true,
          "internalType": "uint256",
          "name": "id",
          "type": "uint256"
        },
        {
          "indexed": false,
          "internalType": "string",
          "name": "name",
          "type": "string"
        },
        {
          "indexed": false,
          "internalType": "string",
          "name": "image",
          "type": "string"
        },
        {
          "indexed": false,
          "internalType": "address",
          "name": "addr",
          "type": "address"
        },
        {
          "indexed": false,
          "internalType": "uint256",
          "name": "voteCredits",
          "type": "uint256"
        },
        {
          "indexed": false,
          "internalType": "bool",
          "name": "voted",
          "type": "bool"
        },
        {
          "indexed": false,
          "internalType": "uint256",
          "name": "voteIndex",
          "type": "uint256"
        },
        {
          "indexed": false,
          "internalType": "string",
          "name": "ipfs",
          "type": "string"
        }
      ],
      "name": "VoterCreated",
      "type": "event"
    },
    {
      "inputs": [],
      "name": "authorizer",
      "outputs": [
        {
          "internalType": "address",
          "name": "",
          "type": "address"
        }
      ],
      "stateMutability": "view",
      "type": "function"
    },
    {
      "inputs": [
        {
          "internalType": "uint256",
          "name": "",
          "type": "uint256"
        }
      ],
      "name": "candidateAddresses",
      "outputs": [
        {
          "internalType": "address",
          "name": "",
          "type": "address"
        }
      ],
      "stateMutability": "view",
      "type": "function"
    },
    {
      "inputs": [
        {
          "internalType": "address",
          "name": "",
          "type": "address"
        }
      ],
      "name": "candidates",
      "outputs": [
        {
          "internalType": "uint256",
          "name": "id",
          "type": "uint256"
        },
        {
          "internalType": "string",
          "name": "age",
          "type": "string"
        },
        {
          "internalType": "string",
          "name": "name",
          "type": "string"
        },
        {
          "internalType": "string",
          "name": "image",
          "type": "string"
        },
        {
          "internalType": "uint256",
          "name": "voteCount",
          "type": "uint256"
        },
        {
          "internalType": "address",
          "name": "addr",
          "type": "address"
        },
        {
          "internalType": "string",
          "name": "ipfs",
          "type": "string"
        }
      ],
      "stateMutability": "view",
      "type": "function"
    },
    {
      "inputs": [
        {
          "internalType": "bool",
          "name": "",
          "type": "bool"
        }
      ],
      "name": "commenceElection",
      "outputs": [],
      "stateMutability": "nonpayable",
      "type": "function"
    },
    {
      "inputs": [
        {
          "internalType": "address",
          "name": "_addr",
          "type": "address"
        },
        {
          "internalType": "string",
          "name": "_name",
          "type": "string"
        },
        {
          "internalType": "string",
          "name": "_age",
          "type": "string"
        },
        {
          "internalType": "string",
          "name": "_image",
          "type": "string"
        },
        {
          "internalType": "string",
          "name": "_ipfs",
          "type": "string"
        }
      ],
      "name": "createCandidate",
      "outputs": [],
      "stateMutability": "nonpayable",
      "type": "function"
    },
    {
      "inputs": [
        {
          "internalType": "address",
          "name": "_addr",
          "type": "address"
        },
        {
          "internalType": "string",
          "name": "_name",
          "type": "string"
        },
        {
          "internalType": "string",
          "name": "_image",
          "type": "string"
        },
        {
          "internalType": "string",
          "name": "_ipfs",
          "type": "string"
        }
      ],
      "name": "createVoters",
      "outputs": [],
      "stateMutability": "nonpayable",
      "type": "function"
    },
    {
      "inputs": [
        {
          "internalType": "bool",
          "name": "",
          "type": "bool"
        }
      ],
      "name": "endElection",
      "outputs": [],
      "stateMutability": "nonpayable",
      "type": "function"
    },
    {
      "inputs": [],
      "name": "ended",
      "outputs": [
        {
          "internalType": "uint256",
          "name": "",
          "type": "uint256"
        }
      ],
      "stateMutability": "view",
      "type": "function"
    },
    {
      "inputs": [],
      "name": "getAdmin",
      "outputs": [
        {
          "internalType": "address",
          "name": "",
          "type": "address"
        }
      ],
      "stateMutability": "view",
      "type": "function"
    },
    {
      "inputs": [],
      "name": "getCandidateAddress",
      "outputs": [
        {
          "internalType": "address[]",
          "name": "",
          "type": "address[]"
        }
      ],
      "stateMutability": "view",
      "type": "function"
    },
    {
      "inputs": [],
      "name": "getCandidateAddressesLength",
      "outputs": [
        {
          "internalType": "uint256",
          "name": "",
          "type": "uint256"
        }
      ],
      "stateMutability": "view",
      "type": "function"
    },
    {
      "inputs": [
        {
          "internalType": "address",
          "name": "_address",
          "type": "address"
        }
      ],
      "name": "getCandidateData",
      "outputs": [
        {
          "internalType": "string",
          "name": "",
          "type": "string"
        },
        {
          "internalType": "string",
          "name": "",
          "type": "string"
        },
        {
          "internalType": "uint256",
          "name": "",
          "type": "uint256"
        },
        {
          "internalType": "string",
          "name": "",
          "type": "string"
        },
        {
          "internalType": "uint256",
          "name": "",
          "type": "uint256"
        },
        {
          "internalType": "string",
          "name": "",
          "type": "string"
        },
        {
          "internalType": "address",
          "name": "",
          "type": "address"
        }
      ],
      "stateMutability": "view",
      "type": "function"
    },
    {
      "inputs": [
        {
          "internalType": "address",
          "name": "_addr",
          "type": "address"
        }
      ],
      "name": "getVoterDetails",
      "outputs": [
        {
          "internalType": "uint256",
          "name": "",
          "type": "uint256"
        },
        {
          "internalType": "string",
          "name": "",
          "type": "string"
        },
        {
          "internalType": "string",
          "name": "",
          "type": "string"
        },
        {
          "internalType": "address",
          "name": "",
          "type": "address"
        },
        {
          "internalType": "string",
          "name": "",
          "type": "string"
        },
        {
          "internalType": "uint256",
          "name": "",
          "type": "uint256"
        },
        {
          "internalType": "bool",
          "name": "",
          "type": "bool"
        }
      ],
      "stateMutability": "view",
      "type": "function"
    },
    {
      "inputs": [],
      "name": "getVotersLength",
      "outputs": [
        {
          "internalType": "uint256",
          "name": "",
          "type": "uint256"
        }
      ],
      "stateMutability": "view",
      "type": "function"
    },
    {
      "inputs": [],
      "name": "get_voter_list",
      "outputs": [
        {
          "internalType": "address[]",
          "name": "",
          "type": "address[]"
        }
      ],
      "stateMutability": "view",
      "type": "function"
    },
    {
      "inputs": [
        {
          "internalType": "address",
          "name": "",
          "type": "address"
        }
      ],
      "name": "hasVoted",
      "outputs": [
        {
          "internalType": "bool",
          "name": "",
          "type": "bool"
        }
      ],
      "stateMutability": "view",
      "type": "function"
    },
    {
      "inputs": [],
      "name": "resetElection",
      "outputs": [],
      "stateMutability": "nonpayable",
      "type": "function"
    },
    {
      "inputs": [],
      "name": "startTime",
      "outputs": [
        {
          "internalType": "uint256",
          "name": "",
          "type": "uint256"
        }
      ],
      "stateMutability": "view",
      "type": "function"
    },
    {
      "inputs": [],
      "name": "state",
      "outputs": [
        {
          "internalType": "enum Devapp.ElectionState",
          "name": "",
          "type": "uint8"
        }
      ],
      "stateMutability": "view",
      "type": "function"
    },
    {
      "inputs": [],
      "name": "totalVotes",
      "outputs": [
        {
          "internalType": "uint256",
          "name": "",
          "type": "uint256"
        }
      ],
      "stateMutability": "view",
      "type": "function"
    },
    {
      "inputs": [
        {
          "internalType": "address",
          "name": "_candidateAddr",
          "type": "address"
        },
        {
          "internalType": "uint256",
          "name": "_candidateUniqueId",
          "type": "uint256"
        }
      ],
      "name": "voteBooth",
      "outputs": [],
      "stateMutability": "nonpayable",
      "type": "function"
    },
    {
      "inputs": [
        {
          "internalType": "uint256",
          "name": "",
          "type": "uint256"
        }
      ],
      "name": "voterAddresses",
      "outputs": [
        {
          "internalType": "address",
          "name": "",
          "type": "address"
        }
      ],
      "stateMutability": "view",
      "type": "function"
    },
    {
      "inputs": [
        {
          "internalType": "address",
          "name": "",
          "type": "address"
        }
      ],
      "name": "voters",
      "outputs": [
        {
          "internalType": "uint256",
          "name": "id",
          "type": "uint256"
        },
        {
          "internalType": "string",
          "name": "name",
          "type": "string"
        },
        {
          "internalType": "string",
          "name": "image",
          "type": "string"
        },
        {
          "internalType": "address",
          "name": "addr",
          "type": "address"
        },
        {
          "internalType": "uint256",
          "name": "voteCredits",
          "type": "uint256"
        },
        {
          "internalType": "bool",
          "name": "voted",
          "type": "bool"
        },
        {
          "internalType": "uint256",
          "name": "voteIndex",
          "type": "uint256"
        },
        {
          "internalType": "string",
          "name": "ipfs",
          "type": "string"
        }
      ],
      "stateMutability": "view",
      "type": "function"
    }
  ],
  "bytecode": "0x60806040526000600860006101000a81548160ff021916908360028111156200002d576200002c620000b5565b5b02179055503480156200003f57600080fd5b5033600260006101000a81548173ffffffffffffffffffffffffffffffffffffffff021916908373ffffffffffffffffffffffffffffffffffffffff1602179055506000600860006101000a81548160ff02191690836002811115620000aa57620000a9620000b5565b5b0217905550620000e4565b7f4e487b7100000000000000000000000000000000000000000000000000000000600052602160045260246000fd5b61325780620000f46000396000f3fe608060405234801561001057600080fd5b506004361061014d5760003560e01c80638ef0c4d2116100c3578063d55d73c51161007c578063d55d73c5146103bb578063dd0e2373146103eb578063de2237d31461041b578063e8f3052314610439578063f76413ff14610443578063fc3f50781461045f5761014d565b80638ef0c4d2146102d6578063a3ec138d146102f4578063b8417f0e1461032b578063ba71bef014610349578063c19d93fb1461037f578063d09edf311461039d5761014d565b80632a466ac7116101155780632a466ac7146101f65780636e9960c31461022c5780637203a7a51461024a5780637657bec91461026657806378e97925146102825780638ab66a90146102a05761014d565b806309eef43e146101525780630c84b4b8146101825780630d15fd771461019e57806312fa6feb146101bc5780631923c3ef146101da575b600080fd5b61016c600480360381019061016791906122c7565b61047d565b604051610179919061230f565b60405180910390f35b61019c60048036038101906101979190612356565b61049d565b005b6101a66105d8565b6040516101b3919061239c565b60405180910390f35b6101c46105de565b6040516101d1919061239c565b60405180910390f35b6101f460048036038101906101ef91906124fd565b6105e4565b005b610210600480360381019061020b91906122c7565b61099c565b604051610223979695949392919061264f565b60405180910390f35b610234610ce5565b60405161024191906126da565b60405180910390f35b610264600480360381019061025f9190612721565b610d0f565b005b610280600480360381019061027b9190612761565b610fc3565b005b61028a6113a1565b604051610297919061239c565b60405180910390f35b6102ba60048036038101906102b591906122c7565b6113a7565b6040516102cd979695949392919061284c565b60405180910390f35b6102de611629565b6040516102eb9190612995565b60405180910390f35b61030e600480360381019061030991906122c7565b611717565b6040516103229897969594939291906129b7565b60405180910390f35b610333611924565b604051610340919061239c565b60405180910390f35b610363600480360381019061035e91906122c7565b611931565b6040516103769796959493929190612a4a565b60405180910390f35b610387611cf9565b6040516103949190612b45565b60405180910390f35b6103a5611d0c565b6040516103b291906126da565b60405180910390f35b6103d560048036038101906103d09190612b60565b611d32565b6040516103e291906126da565b60405180910390f35b61040560048036038101906104009190612b60565b611d71565b60405161041291906126da565b60405180910390f35b610423611db0565b604051610430919061239c565b60405180910390f35b610441611dbd565b005b61045d60048036038101906104589190612356565b611eef565b005b6104676120a0565b6040516104749190612995565b60405180910390f35b600b6020528060005260406000206000915054906101000a900460ff1681565b600260009054906101000a900473ffffffffffffffffffffffffffffffffffffffff1673ffffffffffffffffffffffffffffffffffffffff163373ffffffffffffffffffffffffffffffffffffffff161461052d576040517f08c379a000000000000000000000000000000000000000000000000000000000815260040161052490612bff565b60405180910390fd5b6001600281111561054157610540612ace565b5b600860009054906101000a900460ff16600281111561056357610562612ace565b5b146105a3576040517f08c379a000000000000000000000000000000000000000000000000000000000815260040161059a90612c6b565b60405180910390fd5b6002600860006101000a81548160ff021916908360028111156105c9576105c8612ace565b5b02179055504260078190555050565b60055481565b60075481565b600260009054906101000a900473ffffffffffffffffffffffffffffffffffffffff1673ffffffffffffffffffffffffffffffffffffffff163373ffffffffffffffffffffffffffffffffffffffff1614610674576040517f08c379a000000000000000000000000000000000000000000000000000000000815260040161066b90612bff565b60405180910390fd5b6000600281111561068857610687612ace565b5b600860009054906101000a900460ff1660028111156106aa576106a9612ace565b5b146106ea576040517f08c379a00000000000000000000000000000000000000000000000000000000081526004016106e190612cd7565b60405180910390fd5b6002808111156106fd576106fc612ace565b5b600860009054906101000a900460ff16600281111561071f5761071e612ace565b5b1415610760576040517f08c379a000000000000000000000000000000000000000000000000000000000815260040161075790612d43565b60405180910390fd5b61076a600061218e565b600061077660006121a4565b90506000600a60008773ffffffffffffffffffffffffffffffffffffffff1673ffffffffffffffffffffffffffffffffffffffff16815260200190815260200160002090506000816004015414610802576040517f08c379a00000000000000000000000000000000000000000000000000000000081526004016107f990612daf565b60405180910390fd5b60018160040181905550848160010190805190602001906108249291906121b2565b508381600201908051906020019061083d9291906121b2565b50858160030160006101000a81548173ffffffffffffffffffffffffffffffffffffffff021916908373ffffffffffffffffffffffffffffffffffffffff160217905550818160000181905550633b9aca00816006018190555060008160050160006101000a81548160ff021916908315150217905550828160070190805190602001906108cc9291906121b2565b506004869080600181540180825580915050600190039060005260206000200160009091909190916101000a81548173ffffffffffffffffffffffffffffffffffffffff021916908373ffffffffffffffffffffffffffffffffffffffff16021790555080600001547ff5f39971dd62d9929e3a9feaa6bb77fe7c7da0001babff8a65a7e51ad0201c1986868985600401548660050160009054906101000a900460ff1687600601548860070160405161098c9796959493929190612ec5565b60405180910390a2505050505050565b6060806000606060006060600080600960008a73ffffffffffffffffffffffffffffffffffffffff1673ffffffffffffffffffffffffffffffffffffffff1681526020019081526020016000206040518060e001604052908160008201548152602001600182018054610a0e90612dfe565b80601f0160208091040260200160405190810160405280929190818152602001828054610a3a90612dfe565b8015610a875780601f10610a5c57610100808354040283529160200191610a87565b820191906000526020600020905b815481529060010190602001808311610a6a57829003601f168201915b50505050508152602001600282018054610aa090612dfe565b80601f0160208091040260200160405190810160405280929190818152602001828054610acc90612dfe565b8015610b195780601f10610aee57610100808354040283529160200191610b19565b820191906000526020600020905b815481529060010190602001808311610afc57829003601f168201915b50505050508152602001600382018054610b3290612dfe565b80601f0160208091040260200160405190810160405280929190818152602001828054610b5e90612dfe565b8015610bab5780601f10610b8057610100808354040283529160200191610bab565b820191906000526020600020905b815481529060010190602001808311610b8e57829003601f168201915b50505050508152602001600482015481526020016005820160009054906101000a900473ffffffffffffffffffffffffffffffffffffffff1673ffffffffffffffffffffffffffffffffffffffff1673ffffffffffffffffffffffffffffffffffffffff168152602001600682018054610c2490612dfe565b80601f0160208091040260200160405190810160405280929190818152602001828054610c5090612dfe565b8015610c9d5780601f10610c7257610100808354040283529160200191610c9d565b820191906000526020600020905b815481529060010190602001808311610c8057829003601f168201915b5050505050815250509050806020015181604001518260000151836060015184608001518560c001518660a00151975097509750975097509750975050919395979092949650565b6000600260009054906101000a900473ffffffffffffffffffffffffffffffffffffffff16905090565b60006002811115610d2357610d22612ace565b5b600860009054906101000a900460ff166002811115610d4557610d44612ace565b5b14610d85576040517f08c379a0000000000000000000000000000000000000000000000000000000008152600401610d7c90612cd7565b60405180910390fd5b600280811115610d9857610d97612ace565b5b600860009054906101000a900460ff166002811115610dba57610db9612ace565b5b1415610dfb576040517f08c379a0000000000000000000000000000000000000000000000000000000008152600401610df290612d43565b60405180910390fd5b6000600a60003373ffffffffffffffffffffffffffffffffffffffff1673ffffffffffffffffffffffffffffffffffffffff16815260200190815260200160002090508060050160009054906101000a900460ff1615610e90576040517f08c379a0000000000000000000000000000000000000000000000000000000008152600401610e8790612f95565b60405180910390fd5b600081600401541415610ed8576040517f08c379a0000000000000000000000000000000000000000000000000000000008152600401610ecf90613027565b60405180910390fd5b60018160050160006101000a81548160ff0219169083151502179055508181600601819055506004339080600181540180825580915050600190039060005260206000200160009091909190916101000a81548173ffffffffffffffffffffffffffffffffffffffff021916908373ffffffffffffffffffffffffffffffffffffffff1602179055508060040154600960008573ffffffffffffffffffffffffffffffffffffffff1673ffffffffffffffffffffffffffffffffffffffff1681526020019081526020016000206004016000828254610fb79190613076565b92505081905550505050565b600260009054906101000a900473ffffffffffffffffffffffffffffffffffffffff1673ffffffffffffffffffffffffffffffffffffffff163373ffffffffffffffffffffffffffffffffffffffff1614611053576040517f08c379a000000000000000000000000000000000000000000000000000000000815260040161104a90612bff565b60405180910390fd5b6000600281111561106757611066612ace565b5b600860009054906101000a900460ff16600281111561108957611088612ace565b5b146110c9576040517f08c379a00000000000000000000000000000000000000000000000000000000081526004016110c090612cd7565b60405180910390fd5b6002808111156110dc576110db612ace565b5b600860009054906101000a900460ff1660028111156110fe576110fd612ace565b5b141561113f576040517f08c379a000000000000000000000000000000000000000000000000000000000815260040161113690612d43565b60405180910390fd5b600073ffffffffffffffffffffffffffffffffffffffff168573ffffffffffffffffffffffffffffffffffffffff1614156111af576040517f08c379a00000000000000000000000000000000000000000000000000000000081526004016111a690613118565b60405180910390fd5b6111b9600161218e565b60006111c560016121a4565b90506000600960008873ffffffffffffffffffffffffffffffffffffffff1673ffffffffffffffffffffffffffffffffffffffff16815260200190815260200160002090508181600001819055508581600201908051906020019061122b9291906121b2565b50848160010190805190602001906112449291906121b2565b508381600301908051906020019061125d9291906121b2565b5060008160040181905550868160050160006101000a81548173ffffffffffffffffffffffffffffffffffffffff021916908373ffffffffffffffffffffffffffffffffffffffff160217905550828160060190805190602001906112c39291906121b2565b506003879080600181540180825580915050600190039060005260206000200160009091909190916101000a81548173ffffffffffffffffffffffffffffffffffffffff021916908373ffffffffffffffffffffffffffffffffffffffff16021790555080600001547f978d20e26392611c02bd1a6e72cc85fa19bd1024b23c12155f8183fbc90902e787878785600401548660050160009054906101000a900473ffffffffffffffffffffffffffffffffffffffff168760060160405161139096959493929190613138565b60405180910390a250505050505050565b60065481565b60096020528060005260406000206000915090508060000154908060010180546113d090612dfe565b80601f01602080910402602001604051908101604052809291908181526020018280546113fc90612dfe565b80156114495780601f1061141e57610100808354040283529160200191611449565b820191906000526020600020905b81548152906001019060200180831161142c57829003601f168201915b50505050509080600201805461145e90612dfe565b80601f016020809104026020016040519081016040528092919081815260200182805461148a90612dfe565b80156114d75780601f106114ac576101008083540402835291602001916114d7565b820191906000526020600020905b8154815290600101906020018083116114ba57829003601f168201915b5050505050908060030180546114ec90612dfe565b80601f016020809104026020016040519081016040528092919081815260200182805461151890612dfe565b80156115655780601f1061153a57610100808354040283529160200191611565565b820191906000526020600020905b81548152906001019060200180831161154857829003601f168201915b5050505050908060040154908060050160009054906101000a900473ffffffffffffffffffffffffffffffffffffffff16908060060180546115a690612dfe565b80601f01602080910402602001604051908101604052809291908181526020018280546115d290612dfe565b801561161f5780601f106115f45761010080835404028352916020019161161f565b820191906000526020600020905b81548152906001019060200180831161160257829003601f168201915b5050505050905087565b60606000600480549050141561168a57600067ffffffffffffffff811115611654576116536123d2565b5b6040519080825280602002602001820160405280156116825781602001602082028036833780820191505090505b509050611714565b600480548060200260200160405190810160405280929190818152602001828054801561170c57602002820191906000526020600020905b8160009054906101000a900473ffffffffffffffffffffffffffffffffffffffff1673ffffffffffffffffffffffffffffffffffffffff16815260200190600101908083116116c2575b505050505090505b90565b600a60205280600052604060002060009150905080600001549080600101805461174090612dfe565b80601f016020809104026020016040519081016040528092919081815260200182805461176c90612dfe565b80156117b95780601f1061178e576101008083540402835291602001916117b9565b820191906000526020600020905b81548152906001019060200180831161179c57829003601f168201915b5050505050908060020180546117ce90612dfe565b80601f01602080910402602001604051908101604052809291908181526020018280546117fa90612dfe565b80156118475780601f1061181c57610100808354040283529160200191611847565b820191906000526020600020905b81548152906001019060200180831161182a57829003601f168201915b5050505050908060030160009054906101000a900473ffffffffffffffffffffffffffffffffffffffff16908060040154908060050160009054906101000a900460ff16908060060154908060070180546118a190612dfe565b80601f01602080910402602001604051908101604052809291908181526020018280546118cd90612dfe565b801561191a5780601f106118ef5761010080835404028352916020019161191a565b820191906000526020600020905b8154815290600101906020018083116118fd57829003601f168201915b5050505050905088565b6000600380549050905090565b600060608060006060600080600a60008973ffffffffffffffffffffffffffffffffffffffff1673ffffffffffffffffffffffffffffffffffffffff16815260200190815260200160002060000154600a60008a73ffffffffffffffffffffffffffffffffffffffff1673ffffffffffffffffffffffffffffffffffffffff168152602001908152602001600020600101600a60008b73ffffffffffffffffffffffffffffffffffffffff1673ffffffffffffffffffffffffffffffffffffffff168152602001908152602001600020600201600a60008c73ffffffffffffffffffffffffffffffffffffffff1673ffffffffffffffffffffffffffffffffffffffff16815260200190815260200160002060030160009054906101000a900473ffffffffffffffffffffffffffffffffffffffff16600a60008d73ffffffffffffffffffffffffffffffffffffffff1673ffffffffffffffffffffffffffffffffffffffff168152602001908152602001600020600701600a60008e73ffffffffffffffffffffffffffffffffffffffff1673ffffffffffffffffffffffffffffffffffffffff16815260200190815260200160002060040154600a60008f73ffffffffffffffffffffffffffffffffffffffff1673ffffffffffffffffffffffffffffffffffffffff16815260200190815260200160002060050160009054906101000a900460ff16858054611b4890612dfe565b80601f0160208091040260200160405190810160405280929190818152602001828054611b7490612dfe565b8015611bc15780601f10611b9657610100808354040283529160200191611bc1565b820191906000526020600020905b815481529060010190602001808311611ba457829003601f168201915b50505050509550848054611bd490612dfe565b80601f0160208091040260200160405190810160405280929190818152602001828054611c0090612dfe565b8015611c4d5780601f10611c2257610100808354040283529160200191611c4d565b820191906000526020600020905b815481529060010190602001808311611c3057829003601f168201915b50505050509450828054611c6090612dfe565b80601f0160208091040260200160405190810160405280929190818152602001828054611c8c90612dfe565b8015611cd95780601f10611cae57610100808354040283529160200191611cd9565b820191906000526020600020905b815481529060010190602001808311611cbc57829003601f168201915b505050505092509650965096509650965096509650919395979092949650565b600860009054906101000a900460ff1681565b600260009054906101000a900473ffffffffffffffffffffffffffffffffffffffff1681565b60038181548110611d4257600080fd5b906000526020600020016000915054906101000a900473ffffffffffffffffffffffffffffffffffffffff1681565b60048181548110611d8157600080fd5b906000526020600020016000915054906101000a900473ffffffffffffffffffffffffffffffffffffffff1681565b6000600480549050905090565b600260009054906101000a900473ffffffffffffffffffffffffffffffffffffffff1673ffffffffffffffffffffffffffffffffffffffff163373ffffffffffffffffffffffffffffffffffffffff1614611e4d576040517f08c379a0000000000000000000000000000000000000000000000000000000008152600401611e4490612bff565b60405180910390fd5b600280811115611e6057611e5f612ace565b5b600860009054906101000a900460ff166002811115611e8257611e81612ace565b5b14611ec2576040517f08c379a0000000000000000000000000000000000000000000000000000000008152600401611eb990613201565b60405180910390fd5b6000600860006101000a81548160ff02191690836002811115611ee857611ee7612ace565b5b0217905550565b600260009054906101000a900473ffffffffffffffffffffffffffffffffffffffff1673ffffffffffffffffffffffffffffffffffffffff163373ffffffffffffffffffffffffffffffffffffffff1614611f7f576040517f08c379a0000000000000000000000000000000000000000000000000000000008152600401611f7690612bff565b60405180910390fd5b60006002811115611f9357611f92612ace565b5b600860009054906101000a900460ff166002811115611fb557611fb4612ace565b5b14611ff5576040517f08c379a0000000000000000000000000000000000000000000000000000000008152600401611fec90612cd7565b60405180910390fd5b60028081111561200857612007612ace565b5b600860009054906101000a900460ff16600281111561202a57612029612ace565b5b141561206b576040517f08c379a000000000000000000000000000000000000000000000000000000000815260040161206290612d43565b60405180910390fd5b6001600860006101000a81548160ff0219169083600281111561209157612090612ace565b5b02179055504260068190555050565b60606000600380549050141561210157600067ffffffffffffffff8111156120cb576120ca6123d2565b5b6040519080825280602002602001820160405280156120f95781602001602082028036833780820191505090505b50905061218b565b600380548060200260200160405190810160405280929190818152602001828054801561218357602002820191906000526020600020905b8160009054906101000a900473ffffffffffffffffffffffffffffffffffffffff1673ffffffffffffffffffffffffffffffffffffffff1681526020019060010190808311612139575b505050505090505b90565b6001816000016000828254019250508190555050565b600081600001549050919050565b8280546121be90612dfe565b90600052602060002090601f0160209004810192826121e05760008555612227565b82601f106121f957805160ff1916838001178555612227565b82800160010185558215612227579182015b8281111561222657825182559160200191906001019061220b565b5b5090506122349190612238565b5090565b5b80821115612251576000816000905550600101612239565b5090565b6000604051905090565b600080fd5b600080fd5b600073ffffffffffffffffffffffffffffffffffffffff82169050919050565b600061229482612269565b9050919050565b6122a481612289565b81146122af57600080fd5b50565b6000813590506122c18161229b565b92915050565b6000602082840312156122dd576122dc61225f565b5b60006122eb848285016122b2565b91505092915050565b60008115159050919050565b612309816122f4565b82525050565b60006020820190506123246000830184612300565b92915050565b612333816122f4565b811461233e57600080fd5b50565b6000813590506123508161232a565b92915050565b60006020828403121561236c5761236b61225f565b5b600061237a84828501612341565b91505092915050565b6000819050919050565b61239681612383565b82525050565b60006020820190506123b1600083018461238d565b92915050565b600080fd5b600080fd5b6000601f19601f8301169050919050565b7f4e487b7100000000000000000000000000000000000000000000000000000000600052604160045260246000fd5b61240a826123c1565b810181811067ffffffffffffffff82111715612429576124286123d2565b5b80604052505050565b600061243c612255565b90506124488282612401565b919050565b600067ffffffffffffffff821115612468576124676123d2565b5b612471826123c1565b9050602081019050919050565b82818337600083830152505050565b60006124a061249b8461244d565b612432565b9050828152602081018484840111156124bc576124bb6123bc565b5b6124c784828561247e565b509392505050565b600082601f8301126124e4576124e36123b7565b5b81356124f484826020860161248d565b91505092915050565b600080600080608085870312156125175761251661225f565b5b6000612525878288016122b2565b945050602085013567ffffffffffffffff81111561254657612545612264565b5b612552878288016124cf565b935050604085013567ffffffffffffffff81111561257357612572612264565b5b61257f878288016124cf565b925050606085013567ffffffffffffffff8111156125a05761259f612264565b5b6125ac878288016124cf565b91505092959194509250565b600081519050919050565b600082825260208201905092915050565b60005b838110156125f25780820151818401526020810190506125d7565b83811115612601576000848401525b50505050565b6000612612826125b8565b61261c81856125c3565b935061262c8185602086016125d4565b612635816123c1565b840191505092915050565b61264981612289565b82525050565b600060e0820190508181036000830152612669818a612607565b9050818103602083015261267d8189612607565b905061268c604083018861238d565b818103606083015261269e8187612607565b90506126ad608083018661238d565b81810360a08301526126bf8185612607565b90506126ce60c0830184612640565b98975050505050505050565b60006020820190506126ef6000830184612640565b92915050565b6126fe81612383565b811461270957600080fd5b50565b60008135905061271b816126f5565b92915050565b600080604083850312156127385761273761225f565b5b6000612746858286016122b2565b92505060206127578582860161270c565b9150509250929050565b600080600080600060a0868803121561277d5761277c61225f565b5b600061278b888289016122b2565b955050602086013567ffffffffffffffff8111156127ac576127ab612264565b5b6127b8888289016124cf565b945050604086013567ffffffffffffffff8111156127d9576127d8612264565b5b6127e5888289016124cf565b935050606086013567ffffffffffffffff81111561280657612805612264565b5b612812888289016124cf565b925050608086013567ffffffffffffffff81111561283357612832612264565b5b61283f888289016124cf565b9150509295509295909350565b600060e082019050612861600083018a61238d565b81810360208301526128738189612607565b905081810360408301526128878188612607565b9050818103606083015261289b8187612607565b90506128aa608083018661238d565b6128b760a0830185612640565b81810360c08301526128c98184612607565b905098975050505050505050565b600081519050919050565b600082825260208201905092915050565b6000819050602082019050919050565b61290c81612289565b82525050565b600061291e8383612903565b60208301905092915050565b6000602082019050919050565b6000612942826128d7565b61294c81856128e2565b9350612957836128f3565b8060005b8381101561298857815161296f8882612912565b975061297a8361292a565b92505060018101905061295b565b5085935050505092915050565b600060208201905081810360008301526129af8184612937565b905092915050565b6000610100820190506129cd600083018b61238d565b81810360208301526129df818a612607565b905081810360408301526129f38189612607565b9050612a026060830188612640565b612a0f608083018761238d565b612a1c60a0830186612300565b612a2960c083018561238d565b81810360e0830152612a3b8184612607565b90509998505050505050505050565b600060e082019050612a5f600083018a61238d565b8181036020830152612a718189612607565b90508181036040830152612a858188612607565b9050612a946060830187612640565b8181036080830152612aa68186612607565b9050612ab560a083018561238d565b612ac260c0830184612300565b98975050505050505050565b7f4e487b7100000000000000000000000000000000000000000000000000000000600052602160045260246000fd5b60038110612b0e57612b0d612ace565b5b50565b6000819050612b1f82612afd565b919050565b6000612b2f82612b11565b9050919050565b612b3f81612b24565b82525050565b6000602082019050612b5a6000830184612b36565b92915050565b600060208284031215612b7657612b7561225f565b5b6000612b848482850161270c565b91505092915050565b7f4f6e6c792074686520636f6e747261637420617574686f72697a65722063616e60008201527f2063616c6c20746869732066756e6374696f6e2e000000000000000000000000602082015250565b6000612be96034836125c3565b9150612bf482612b8d565b604082019050919050565b60006020820190508181036000830152612c1881612bdc565b9050919050565b7f456c656374696f6e20686173206e6f7420737461727465642100000000000000600082015250565b6000612c556019836125c3565b9150612c6082612c1f565b602082019050919050565b60006020820190508181036000830152612c8481612c48565b9050919050565b7f456c656374696f6e2068617320616c726561647920737461727465642e000000600082015250565b6000612cc1601d836125c3565b9150612ccc82612c8b565b602082019050919050565b60006020820190508181036000830152612cf081612cb4565b9050919050565b7f456c656374696f6e2068617320616c726561647920656e646564000000000000600082015250565b6000612d2d601a836125c3565b9150612d3882612cf7565b602082019050919050565b60006020820190508181036000830152612d5c81612d20565b9050919050565b7f54686973206163636f756e7420616c7265616479206578697374730000000000600082015250565b6000612d99601b836125c3565b9150612da482612d63565b602082019050919050565b60006020820190508181036000830152612dc881612d8c565b9050919050565b7f4e487b7100000000000000000000000000000000000000000000000000000000600052602260045260246000fd5b60006002820490506001821680612e1657607f821691505b60208210811415612e2a57612e29612dcf565b5b50919050565b60008190508160005260206000209050919050565b60008154612e5281612dfe565b612e5c81866125c3565b94506001821660008114612e775760018114612e8957612ebc565b60ff1983168652602086019350612ebc565b612e9285612e30565b60005b83811015612eb457815481890152600182019150602081019050612e95565b808801955050505b50505092915050565b600060e0820190508181036000830152612edf818a612607565b90508181036020830152612ef38189612607565b9050612f026040830188612640565b612f0f606083018761238d565b612f1c6080830186612300565b612f2960a083018561238d565b81810360c0830152612f3b8184612e45565b905098975050505050505050565b7f596f752063616e277420766f74652074776963652e0000000000000000000000600082015250565b6000612f7f6015836125c3565b9150612f8a82612f49565b602082019050919050565b60006020820190508181036000830152612fae81612f72565b9050919050565b7f596f7572206163636f756e742069736e27742072656769737465726564206f7260008201527f20617574686f72697a65642e0000000000000000000000000000000000000000602082015250565b6000613011602c836125c3565b915061301c82612fb5565b604082019050919050565b6000602082019050818103600083015261304081613004565b9050919050565b7f4e487b7100000000000000000000000000000000000000000000000000000000600052601160045260246000fd5b600061308182612383565b915061308c83612383565b9250827fffffffffffffffffffffffffffffffffffffffffffffffffffffffffffffffff038211156130c1576130c0613047565b5b828201905092915050565b7f43616e64696461746520616464726573732063616e6e6f74206265207a65726f600082015250565b60006131026020836125c3565b915061310d826130cc565b602082019050919050565b60006020820190508181036000830152613131816130f5565b9050919050565b600060c08201905081810360008301526131528189612607565b905081810360208301526131668188612607565b9050818103604083015261317a8187612607565b9050613189606083018661238d565b6131966080830185612640565b81810360a08301526131a88184612e45565b9050979650505050505050565b7f456c656374696f6e20686173206e6f7420656e6465642e000000000000000000600082015250565b60006131eb6017836125c3565b91506131f6826131b5565b602082019050919050565b6000602082019050818103600083015261321a816131de565b905091905056fea2646970667358221220207a855a5e80742161ec4ce3386f7457433822c7e0aa1a996bcf2a35efb2967b64736f6c63430008090033",
  "linkReferences": {},
  "deployedLinkReferences": {}
}