{
  "_format": "hh-sol-artifact-1",
  "contractName": "Devapp",
  "sourceName": "contracts/DevappContract.sol",
  "abi": [
    {
      "inputs": [],
      "stateMutability": "nonpayable",
      "type": "constructor"
    },
    {
      "anonymous": false,
      "inputs": [
        {
          "indexed": false,
          "internalType": "uint256",
          "name": "timestamp",
          "type": "uint256"
        }
      ],
      "name": "Action",
      "type": "event"
    },
    {
      "anonymous": false,
      "inputs": [
        {
          "indexed": false,
          "internalType": "address",
          "name": "newAdmin",
          "type": "address"
        }
      ],
      "name": "AdminChanged",
      "type": "event"
    },
    {
      "anonymous": false,
      "inputs": [
        {
          "indexed": true,
          "internalType": "uint256",
          "name": "id",
          "type": "uint256"
        },
        {
          "indexed": false,
          "internalType": "string",
          "name": "name",
          "type": "string"
        },
        {
          "indexed": false,
          "internalType": "string",
          "name": "age",
          "type": "string"
        },
        {
          "indexed": false,
          "internalType": "string",
          "name": "image",
          "type": "string"
        },
        {
          "indexed": false,
          "internalType": "uint256",
          "name": "voteCount",
          "type": "uint256"
        },
        {
          "indexed": false,
          "internalType": "address",
          "name": "addr",
          "type": "address"
        },
        {
          "indexed": false,
          "internalType": "string",
          "name": "ipfs",
          "type": "string"
        }
      ],
      "name": "CandidateCreated",
      "type": "event"
    },
    {
      "anonymous": false,
      "inputs": [
        {
          "indexed": true,
          "internalType": "uint256",
          "name": "id",
          "type": "uint256"
        },
        {
          "indexed": false,
          "internalType": "string",
          "name": "name",
          "type": "string"
        },
        {
          "indexed": false,
          "internalType": "string",
          "name": "image",
          "type": "string"
        },
        {
          "indexed": false,
          "internalType": "address",
          "name": "addr",
          "type": "address"
        },
        {
          "indexed": false,
          "internalType": "uint256",
          "name": "voteCredits",
          "type": "uint256"
        },
        {
          "indexed": false,
          "internalType": "bool",
          "name": "voted",
          "type": "bool"
        },
        {
          "indexed": false,
          "internalType": "uint256",
          "name": "voteIndex",
          "type": "uint256"
        },
        {
          "indexed": false,
          "internalType": "string",
          "name": "ipfs",
          "type": "string"
        }
      ],
      "name": "VoterCreated",
      "type": "event"
    },
    {
      "inputs": [],
      "name": "authorizer",
      "outputs": [
        {
          "internalType": "address",
          "name": "",
          "type": "address"
        }
      ],
      "stateMutability": "view",
      "type": "function"
    },
    {
      "inputs": [
        {
          "internalType": "uint256",
          "name": "",
          "type": "uint256"
        }
      ],
      "name": "candidateAddresses",
      "outputs": [
        {
          "internalType": "address",
          "name": "",
          "type": "address"
        }
      ],
      "stateMutability": "view",
      "type": "function"
    },
    {
      "inputs": [
        {
          "internalType": "address",
          "name": "",
          "type": "address"
        }
      ],
      "name": "candidates",
      "outputs": [
        {
          "internalType": "uint256",
          "name": "id",
          "type": "uint256"
        },
        {
          "internalType": "string",
          "name": "name",
          "type": "string"
        },
        {
          "internalType": "string",
          "name": "age",
          "type": "string"
        },
        {
          "internalType": "string",
          "name": "image",
          "type": "string"
        },
        {
          "internalType": "uint256",
          "name": "voteCount",
          "type": "uint256"
        },
        {
          "internalType": "address",
          "name": "addr",
          "type": "address"
        },
        {
          "internalType": "string",
          "name": "ipfs",
          "type": "string"
        }
      ],
      "stateMutability": "view",
      "type": "function"
    },
    {
      "inputs": [
        {
          "internalType": "bool",
          "name": "",
          "type": "bool"
        }
      ],
      "name": "commenceElection",
      "outputs": [],
      "stateMutability": "nonpayable",
      "type": "function"
    },
    {
      "inputs": [
        {
          "internalType": "address",
          "name": "_addr",
          "type": "address"
        },
        {
          "internalType": "string",
          "name": "_name",
          "type": "string"
        },
        {
          "internalType": "string",
          "name": "_age",
          "type": "string"
        },
        {
          "internalType": "string",
          "name": "_image",
          "type": "string"
        },
        {
          "internalType": "string",
          "name": "_ipfs",
          "type": "string"
        }
      ],
      "name": "createCandidate",
      "outputs": [],
      "stateMutability": "nonpayable",
      "type": "function"
    },
    {
      "inputs": [
        {
          "internalType": "address",
          "name": "_addr",
          "type": "address"
        },
        {
          "internalType": "string",
          "name": "_name",
          "type": "string"
        },
        {
          "internalType": "string",
          "name": "_image",
          "type": "string"
        },
        {
          "internalType": "string",
          "name": "_ipfs",
          "type": "string"
        }
      ],
      "name": "createVoters",
      "outputs": [],
      "stateMutability": "nonpayable",
      "type": "function"
    },
    {
      "inputs": [
        {
          "internalType": "bool",
          "name": "",
          "type": "bool"
        }
      ],
      "name": "endElection",
      "outputs": [],
      "stateMutability": "nonpayable",
      "type": "function"
    },
    {
      "inputs": [],
      "name": "ended",
      "outputs": [
        {
          "internalType": "uint256",
          "name": "",
          "type": "uint256"
        }
      ],
      "stateMutability": "view",
      "type": "function"
    },
    {
      "inputs": [],
      "name": "fetchLeadingCandidate",
      "outputs": [
        {
          "internalType": "uint256",
          "name": "id",
          "type": "uint256"
        },
        {
          "internalType": "string",
          "name": "age",
          "type": "string"
        },
        {
          "internalType": "string",
          "name": "ipfs",
          "type": "string"
        }
      ],
      "stateMutability": "view",
      "type": "function"
    },
    {
      "inputs": [],
      "name": "fetchWinner",
      "outputs": [
        {
          "internalType": "uint256",
          "name": "id",
          "type": "uint256"
        },
        {
          "internalType": "string",
          "name": "age",
          "type": "string"
        },
        {
          "internalType": "string",
          "name": "ipfs",
          "type": "string"
        }
      ],
      "stateMutability": "view",
      "type": "function"
    },
    {
      "inputs": [],
      "name": "getCandidateAddress",
      "outputs": [
        {
          "internalType": "address[]",
          "name": "",
          "type": "address[]"
        }
      ],
      "stateMutability": "view",
      "type": "function"
    },
    {
      "inputs": [],
      "name": "getCandidateAddressesLength",
      "outputs": [
        {
          "internalType": "uint256",
          "name": "",
          "type": "uint256"
        }
      ],
      "stateMutability": "view",
      "type": "function"
    },
    {
      "inputs": [
        {
          "internalType": "address",
          "name": "_address",
          "type": "address"
        }
      ],
      "name": "getCandidateData",
      "outputs": [
        {
          "internalType": "string",
          "name": "",
          "type": "string"
        },
        {
          "internalType": "string",
          "name": "",
          "type": "string"
        },
        {
          "internalType": "uint256",
          "name": "",
          "type": "uint256"
        },
        {
          "internalType": "string",
          "name": "",
          "type": "string"
        },
        {
          "internalType": "uint256",
          "name": "",
          "type": "uint256"
        },
        {
          "internalType": "string",
          "name": "",
          "type": "string"
        },
        {
          "internalType": "address",
          "name": "",
          "type": "address"
        }
      ],
      "stateMutability": "view",
      "type": "function"
    },
    {
      "inputs": [
        {
          "internalType": "address",
          "name": "_addr",
          "type": "address"
        }
      ],
      "name": "getVoterDetails",
      "outputs": [
        {
          "internalType": "uint256",
          "name": "",
          "type": "uint256"
        },
        {
          "internalType": "string",
          "name": "",
          "type": "string"
        },
        {
          "internalType": "string",
          "name": "",
          "type": "string"
        },
        {
          "internalType": "address",
          "name": "",
          "type": "address"
        },
        {
          "internalType": "string",
          "name": "",
          "type": "string"
        },
        {
          "internalType": "uint256",
          "name": "",
          "type": "uint256"
        },
        {
          "internalType": "bool",
          "name": "",
          "type": "bool"
        }
      ],
      "stateMutability": "view",
      "type": "function"
    },
    {
      "inputs": [],
      "name": "getVotersLength",
      "outputs": [
        {
          "internalType": "uint256",
          "name": "",
          "type": "uint256"
        }
      ],
      "stateMutability": "view",
      "type": "function"
    },
    {
      "inputs": [],
      "name": "get_voter_list",
      "outputs": [
        {
          "internalType": "address[]",
          "name": "",
          "type": "address[]"
        }
      ],
      "stateMutability": "view",
      "type": "function"
    },
    {
      "inputs": [
        {
          "internalType": "address",
          "name": "",
          "type": "address"
        }
      ],
      "name": "hasVoted",
      "outputs": [
        {
          "internalType": "bool",
          "name": "",
          "type": "bool"
        }
      ],
      "stateMutability": "view",
      "type": "function"
    },
    {
      "inputs": [
        {
          "internalType": "bool",
          "name": "",
          "type": "bool"
        }
      ],
      "name": "resetElection",
      "outputs": [],
      "stateMutability": "nonpayable",
      "type": "function"
    },
    {
      "inputs": [],
      "name": "startTime",
      "outputs": [
        {
          "internalType": "uint256",
          "name": "",
          "type": "uint256"
        }
      ],
      "stateMutability": "view",
      "type": "function"
    },
    {
      "inputs": [],
      "name": "state",
      "outputs": [
        {
          "internalType": "enum Devapp.ElectionState",
          "name": "",
          "type": "uint8"
        }
      ],
      "stateMutability": "view",
      "type": "function"
    },
    {
      "inputs": [],
      "name": "totalVotes",
      "outputs": [
        {
          "internalType": "uint256",
          "name": "",
          "type": "uint256"
        }
      ],
      "stateMutability": "view",
      "type": "function"
    },
    {
      "inputs": [
        {
          "internalType": "address",
          "name": "newAddress",
          "type": "address"
        }
      ],
      "name": "transferOwnership",
      "outputs": [],
      "stateMutability": "nonpayable",
      "type": "function"
    },
    {
      "inputs": [],
      "name": "useAdminAddress",
      "outputs": [
        {
          "internalType": "bool",
          "name": "",
          "type": "bool"
        }
      ],
      "stateMutability": "view",
      "type": "function"
    },
    {
      "inputs": [
        {
          "internalType": "address",
          "name": "_candidateAddr",
          "type": "address"
        },
        {
          "internalType": "uint256",
          "name": "_candidateUniqueId",
          "type": "uint256"
        }
      ],
      "name": "voteBooth",
      "outputs": [],
      "stateMutability": "nonpayable",
      "type": "function"
    },
    {
      "inputs": [
        {
          "internalType": "uint256",
          "name": "",
          "type": "uint256"
        }
      ],
      "name": "voterAddresses",
      "outputs": [
        {
          "internalType": "address",
          "name": "",
          "type": "address"
        }
      ],
      "stateMutability": "view",
      "type": "function"
    },
    {
      "inputs": [
        {
          "internalType": "address",
          "name": "",
          "type": "address"
        }
      ],
      "name": "voters",
      "outputs": [
        {
          "internalType": "uint256",
          "name": "id",
          "type": "uint256"
        },
        {
          "internalType": "string",
          "name": "name",
          "type": "string"
        },
        {
          "internalType": "string",
          "name": "image",
          "type": "string"
        },
        {
          "internalType": "address",
          "name": "addr",
          "type": "address"
        },
        {
          "internalType": "uint256",
          "name": "voteCredits",
          "type": "uint256"
        },
        {
          "internalType": "bool",
          "name": "voted",
          "type": "bool"
        },
        {
          "internalType": "uint256",
          "name": "voteIndex",
          "type": "uint256"
        },
        {
          "internalType": "string",
          "name": "ipfs",
          "type": "string"
        }
      ],
      "stateMutability": "view",
      "type": "function"
    }
  ],
  "bytecode": "0x60806040526000600860006101000a81548160ff021916908360028111156200002d576200002c620000b5565b5b02179055503480156200003f57600080fd5b5033600260006101000a81548173ffffffffffffffffffffffffffffffffffffffff021916908373ffffffffffffffffffffffffffffffffffffffff1602179055506000600860006101000a81548160ff02191690836002811115620000aa57620000a9620000b5565b5b0217905550620000e4565b7f4e487b7100000000000000000000000000000000000000000000000000000000600052602160045260246000fd5b61463580620000f46000396000f3fe608060405234801561001057600080fd5b506004361061018e5760003560e01c8063a3ec138d116100de578063d55d73c511610097578063e689a6c511610071578063e689a6c5146104b6578063f2fde38b146104d6578063f76413ff146104f2578063fc3f50781461050e5761018e565b8063d55d73c514610438578063dd0e237314610468578063de2237d3146104985761018e565b8063a3ec138d14610351578063b8417f0e14610388578063ba71bef0146103a6578063c19d93fb146103dc578063ca6c1dc2146103fa578063d09edf311461041a5761018e565b80632a466ac71161014b5780637657bec9116101255780637657bec9146102c357806378e97925146102df5780638ab66a90146102fd5780638ef0c4d2146103335761018e565b80632a466ac7146102555780635cf753a61461028b5780637203a7a5146102a75761018e565b806309eef43e146101935780630c84b4b8146101c35780630d15fd77146101df57806312fa6feb146101fd5780631923c3ef1461021b5780631988dec914610237575b600080fd5b6101ad60048036038101906101a8919061335a565b61052c565b6040516101ba91906133a2565b60405180910390f35b6101dd60048036038101906101d891906133e9565b61054c565b005b6101e7610687565b6040516101f4919061342f565b60405180910390f35b61020561068d565b604051610212919061342f565b60405180910390f35b61023560048036038101906102309190613590565b610693565b005b61023f610a4b565b60405161024c91906133a2565b60405180910390f35b61026f600480360381019061026a919061335a565b610aa3565b60405161028297969594939291906136e2565b60405180910390f35b6102a560048036038101906102a091906133e9565b610dec565b005b6102c160048036038101906102bc9190613799565b610f1f565b005b6102dd60048036038101906102d891906137d9565b6111d3565b005b6102e76115ba565b6040516102f4919061342f565b60405180910390f35b6103176004803603810190610312919061335a565b6115c0565b60405161032a97969594939291906138c4565b60405180910390f35b61033b611842565b6040516103489190613a0d565b60405180910390f35b61036b6004803603810190610366919061335a565b611930565b60405161037f989796959493929190613a2f565b60405180910390f35b610390611b3d565b60405161039d919061342f565b60405180910390f35b6103c060048036038101906103bb919061335a565b611b4a565b6040516103d39796959493929190613ac2565b60405180910390f35b6103e4611f12565b6040516103f19190613bbd565b60405180910390f35b610402611f25565b60405161041193929190613bd8565b60405180910390f35b61042261263e565b60405161042f9190613c1d565b60405180910390f35b610452600480360381019061044d9190613c38565b612664565b60405161045f9190613c1d565b60405180910390f35b610482600480360381019061047d9190613c38565b6126a3565b60405161048f9190613c1d565b60405180910390f35b6104a06126e2565b6040516104ad919061342f565b60405180910390f35b6104be6126ef565b6040516104cd93929190613bd8565b60405180910390f35b6104f060048036038101906104eb919061335a565b612e07565b005b61050c600480360381019061050791906133e9565b612f82565b005b610516613133565b6040516105239190613a0d565b60405180910390f35b600b6020528060005260406000206000915054906101000a900460ff1681565b600260009054906101000a900473ffffffffffffffffffffffffffffffffffffffff1673ffffffffffffffffffffffffffffffffffffffff163373ffffffffffffffffffffffffffffffffffffffff16146105dc576040517f08c379a00000000000000000000000000000000000000000000000000000000081526004016105d390613cd7565b60405180910390fd5b600160028111156105f0576105ef613b46565b5b600860009054906101000a900460ff16600281111561061257610611613b46565b5b14610652576040517f08c379a000000000000000000000000000000000000000000000000000000000815260040161064990613d43565b60405180910390fd5b6002600860006101000a81548160ff0219169083600281111561067857610677613b46565b5b02179055504260078190555050565b60055481565b60075481565b600260009054906101000a900473ffffffffffffffffffffffffffffffffffffffff1673ffffffffffffffffffffffffffffffffffffffff163373ffffffffffffffffffffffffffffffffffffffff1614610723576040517f08c379a000000000000000000000000000000000000000000000000000000000815260040161071a90613cd7565b60405180910390fd5b6000600281111561073757610736613b46565b5b600860009054906101000a900460ff16600281111561075957610758613b46565b5b14610799576040517f08c379a000000000000000000000000000000000000000000000000000000000815260040161079090613daf565b60405180910390fd5b6002808111156107ac576107ab613b46565b5b600860009054906101000a900460ff1660028111156107ce576107cd613b46565b5b141561080f576040517f08c379a000000000000000000000000000000000000000000000000000000000815260040161080690613e1b565b60405180910390fd5b6108196000613221565b60006108256000613237565b90506000600a60008773ffffffffffffffffffffffffffffffffffffffff1673ffffffffffffffffffffffffffffffffffffffff168152602001908152602001600020905060008160040154146108b1576040517f08c379a00000000000000000000000000000000000000000000000000000000081526004016108a890613e87565b60405180910390fd5b60018160040181905550848160010190805190602001906108d3929190613245565b50838160020190805190602001906108ec929190613245565b50858160030160006101000a81548173ffffffffffffffffffffffffffffffffffffffff021916908373ffffffffffffffffffffffffffffffffffffffff160217905550818160000181905550633b9aca00816006018190555060008160050160006101000a81548160ff0219169083151502179055508281600701908051906020019061097b929190613245565b506004869080600181540180825580915050600190039060005260206000200160009091909190916101000a81548173ffffffffffffffffffffffffffffffffffffffff021916908373ffffffffffffffffffffffffffffffffffffffff16021790555080600001547ff5f39971dd62d9929e3a9feaa6bb77fe7c7da0001babff8a65a7e51ad0201c1986868985600401548660050160009054906101000a900460ff16876006015488600701604051610a3b9796959493929190613f9d565b60405180910390a2505050505050565b6000600260009054906101000a900473ffffffffffffffffffffffffffffffffffffffff1673ffffffffffffffffffffffffffffffffffffffff163373ffffffffffffffffffffffffffffffffffffffff1614905090565b6060806000606060006060600080600960008a73ffffffffffffffffffffffffffffffffffffffff1673ffffffffffffffffffffffffffffffffffffffff1681526020019081526020016000206040518060e001604052908160008201548152602001600182018054610b1590613ed6565b80601f0160208091040260200160405190810160405280929190818152602001828054610b4190613ed6565b8015610b8e5780601f10610b6357610100808354040283529160200191610b8e565b820191906000526020600020905b815481529060010190602001808311610b7157829003601f168201915b50505050508152602001600282018054610ba790613ed6565b80601f0160208091040260200160405190810160405280929190818152602001828054610bd390613ed6565b8015610c205780601f10610bf557610100808354040283529160200191610c20565b820191906000526020600020905b815481529060010190602001808311610c0357829003601f168201915b50505050508152602001600382018054610c3990613ed6565b80601f0160208091040260200160405190810160405280929190818152602001828054610c6590613ed6565b8015610cb25780601f10610c8757610100808354040283529160200191610cb2565b820191906000526020600020905b815481529060010190602001808311610c9557829003601f168201915b50505050508152602001600482015481526020016005820160009054906101000a900473ffffffffffffffffffffffffffffffffffffffff1673ffffffffffffffffffffffffffffffffffffffff1673ffffffffffffffffffffffffffffffffffffffff168152602001600682018054610d2b90613ed6565b80601f0160208091040260200160405190810160405280929190818152602001828054610d5790613ed6565b8015610da45780601f10610d7957610100808354040283529160200191610da4565b820191906000526020600020905b815481529060010190602001808311610d8757829003601f168201915b5050505050815250509050806040015181602001518260000151836060015184608001518560c001518660a00151975097509750975097509750975050919395979092949650565b600260009054906101000a900473ffffffffffffffffffffffffffffffffffffffff1673ffffffffffffffffffffffffffffffffffffffff163373ffffffffffffffffffffffffffffffffffffffff1614610e7c576040517f08c379a0000000000000000000000000000000000000000000000000000000008152600401610e7390613cd7565b60405180910390fd5b600280811115610e8f57610e8e613b46565b5b600860009054906101000a900460ff166002811115610eb157610eb0613b46565b5b14610ef1576040517f08c379a0000000000000000000000000000000000000000000000000000000008152600401610ee89061406d565b60405180910390fd5b6000600860006101000a81548160ff02191690836002811115610f1757610f16613b46565b5b021790555050565b60016002811115610f3357610f32613b46565b5b600860009054906101000a900460ff166002811115610f5557610f54613b46565b5b14610f95576040517f08c379a0000000000000000000000000000000000000000000000000000000008152600401610f8c906140d9565b60405180910390fd5b600280811115610fa857610fa7613b46565b5b600860009054906101000a900460ff166002811115610fca57610fc9613b46565b5b141561100b576040517f08c379a000000000000000000000000000000000000000000000000000000000815260040161100290613e1b565b60405180910390fd5b6000600a60003373ffffffffffffffffffffffffffffffffffffffff1673ffffffffffffffffffffffffffffffffffffffff16815260200190815260200160002090508060050160009054906101000a900460ff16156110a0576040517f08c379a000000000000000000000000000000000000000000000000000000000815260040161109790614145565b60405180910390fd5b6000816004015414156110e8576040517f08c379a00000000000000000000000000000000000000000000000000000000081526004016110df906141d7565b60405180910390fd5b60018160050160006101000a81548160ff0219169083151502179055508181600601819055506004339080600181540180825580915050600190039060005260206000200160009091909190916101000a81548173ffffffffffffffffffffffffffffffffffffffff021916908373ffffffffffffffffffffffffffffffffffffffff1602179055508060040154600960008573ffffffffffffffffffffffffffffffffffffffff1673ffffffffffffffffffffffffffffffffffffffff16815260200190815260200160002060040160008282546111c79190614226565b92505081905550505050565b600260009054906101000a900473ffffffffffffffffffffffffffffffffffffffff1673ffffffffffffffffffffffffffffffffffffffff163373ffffffffffffffffffffffffffffffffffffffff1614611263576040517f08c379a000000000000000000000000000000000000000000000000000000000815260040161125a90613cd7565b60405180910390fd5b6000600281111561127757611276613b46565b5b600860009054906101000a900460ff16600281111561129957611298613b46565b5b146112d9576040517f08c379a00000000000000000000000000000000000000000000000000000000081526004016112d090613daf565b60405180910390fd5b6002808111156112ec576112eb613b46565b5b600860009054906101000a900460ff16600281111561130e5761130d613b46565b5b141561134f576040517f08c379a000000000000000000000000000000000000000000000000000000000815260040161134690613e1b565b60405180910390fd5b600073ffffffffffffffffffffffffffffffffffffffff168573ffffffffffffffffffffffffffffffffffffffff1614156113bf576040517f08c379a00000000000000000000000000000000000000000000000000000000081526004016113b6906142c8565b60405180910390fd5b6113c96001613221565b60006113d56001613237565b90506000600960008873ffffffffffffffffffffffffffffffffffffffff1673ffffffffffffffffffffffffffffffffffffffff16815260200190815260200160002090508181600001819055508581600101908051906020019061143b929190613245565b5084816002019080519060200190611454929190613245565b508381600301908051906020019061146d929190613245565b5060008160040181905550868160050160006101000a81548173ffffffffffffffffffffffffffffffffffffffff021916908373ffffffffffffffffffffffffffffffffffffffff160217905550828160060190805190602001906114d3929190613245565b506003879080600181540180825580915050600190039060005260206000200160009091909190916101000a81548173ffffffffffffffffffffffffffffffffffffffff021916908373ffffffffffffffffffffffffffffffffffffffff16021790555080600001547f978d20e26392611c02bd1a6e72cc85fa19bd1024b23c12155f8183fbc90902e782600101836002018460030185600401548660050160009054906101000a900473ffffffffffffffffffffffffffffffffffffffff16876006016040516115a9969594939291906142e8565b60405180910390a250505050505050565b60065481565b60096020528060005260406000206000915090508060000154908060010180546115e990613ed6565b80601f016020809104026020016040519081016040528092919081815260200182805461161590613ed6565b80156116625780601f1061163757610100808354040283529160200191611662565b820191906000526020600020905b81548152906001019060200180831161164557829003601f168201915b50505050509080600201805461167790613ed6565b80601f01602080910402602001604051908101604052809291908181526020018280546116a390613ed6565b80156116f05780601f106116c5576101008083540402835291602001916116f0565b820191906000526020600020905b8154815290600101906020018083116116d357829003601f168201915b50505050509080600301805461170590613ed6565b80601f016020809104026020016040519081016040528092919081815260200182805461173190613ed6565b801561177e5780601f106117535761010080835404028352916020019161177e565b820191906000526020600020905b81548152906001019060200180831161176157829003601f168201915b5050505050908060040154908060050160009054906101000a900473ffffffffffffffffffffffffffffffffffffffff16908060060180546117bf90613ed6565b80601f01602080910402602001604051908101604052809291908181526020018280546117eb90613ed6565b80156118385780601f1061180d57610100808354040283529160200191611838565b820191906000526020600020905b81548152906001019060200180831161181b57829003601f168201915b5050505050905087565b6060600060048054905014156118a357600067ffffffffffffffff81111561186d5761186c613465565b5b60405190808252806020026020018201604052801561189b5781602001602082028036833780820191505090505b50905061192d565b600480548060200260200160405190810160405280929190818152602001828054801561192557602002820191906000526020600020905b8160009054906101000a900473ffffffffffffffffffffffffffffffffffffffff1673ffffffffffffffffffffffffffffffffffffffff16815260200190600101908083116118db575b505050505090505b90565b600a60205280600052604060002060009150905080600001549080600101805461195990613ed6565b80601f016020809104026020016040519081016040528092919081815260200182805461198590613ed6565b80156119d25780601f106119a7576101008083540402835291602001916119d2565b820191906000526020600020905b8154815290600101906020018083116119b557829003601f168201915b5050505050908060020180546119e790613ed6565b80601f0160208091040260200160405190810160405280929190818152602001828054611a1390613ed6565b8015611a605780601f10611a3557610100808354040283529160200191611a60565b820191906000526020600020905b815481529060010190602001808311611a4357829003601f168201915b5050505050908060030160009054906101000a900473ffffffffffffffffffffffffffffffffffffffff16908060040154908060050160009054906101000a900460ff1690806006015490806007018054611aba90613ed6565b80601f0160208091040260200160405190810160405280929190818152602001828054611ae690613ed6565b8015611b335780601f10611b0857610100808354040283529160200191611b33565b820191906000526020600020905b815481529060010190602001808311611b1657829003601f168201915b5050505050905088565b6000600380549050905090565b600060608060006060600080600a60008973ffffffffffffffffffffffffffffffffffffffff1673ffffffffffffffffffffffffffffffffffffffff16815260200190815260200160002060000154600a60008a73ffffffffffffffffffffffffffffffffffffffff1673ffffffffffffffffffffffffffffffffffffffff168152602001908152602001600020600101600a60008b73ffffffffffffffffffffffffffffffffffffffff1673ffffffffffffffffffffffffffffffffffffffff168152602001908152602001600020600201600a60008c73ffffffffffffffffffffffffffffffffffffffff1673ffffffffffffffffffffffffffffffffffffffff16815260200190815260200160002060030160009054906101000a900473ffffffffffffffffffffffffffffffffffffffff16600a60008d73ffffffffffffffffffffffffffffffffffffffff1673ffffffffffffffffffffffffffffffffffffffff168152602001908152602001600020600701600a60008e73ffffffffffffffffffffffffffffffffffffffff1673ffffffffffffffffffffffffffffffffffffffff16815260200190815260200160002060040154600a60008f73ffffffffffffffffffffffffffffffffffffffff1673ffffffffffffffffffffffffffffffffffffffff16815260200190815260200160002060050160009054906101000a900460ff16858054611d6190613ed6565b80601f0160208091040260200160405190810160405280929190818152602001828054611d8d90613ed6565b8015611dda5780601f10611daf57610100808354040283529160200191611dda565b820191906000526020600020905b815481529060010190602001808311611dbd57829003601f168201915b50505050509550848054611ded90613ed6565b80601f0160208091040260200160405190810160405280929190818152602001828054611e1990613ed6565b8015611e665780601f10611e3b57610100808354040283529160200191611e66565b820191906000526020600020905b815481529060010190602001808311611e4957829003601f168201915b50505050509450828054611e7990613ed6565b80601f0160208091040260200160405190810160405280929190818152602001828054611ea590613ed6565b8015611ef25780601f10611ec757610100808354040283529160200191611ef2565b820191906000526020600020905b815481529060010190602001808311611ed557829003601f168201915b505050505092509650965096509650965096509650919395979092949650565b600860009054906101000a900460ff1681565b600060608060016002811115611f3e57611f3d613b46565b5b600860009054906101000a900460ff166002811115611f6057611f5f613b46565b5b14611fa0576040517f08c379a0000000000000000000000000000000000000000000000000000000008152600401611f97906143d7565b60405180910390fd5b60008060005b6003805490508110156123205760006009600060038481548110611fcd57611fcc6143f7565b5b9060005260206000200160009054906101000a900473ffffffffffffffffffffffffffffffffffffffff1673ffffffffffffffffffffffffffffffffffffffff1673ffffffffffffffffffffffffffffffffffffffff1681526020019081526020016000206040518060e00160405290816000820154815260200160018201805461205790613ed6565b80601f016020809104026020016040519081016040528092919081815260200182805461208390613ed6565b80156120d05780601f106120a5576101008083540402835291602001916120d0565b820191906000526020600020905b8154815290600101906020018083116120b357829003601f168201915b505050505081526020016002820180546120e990613ed6565b80601f016020809104026020016040519081016040528092919081815260200182805461211590613ed6565b80156121625780601f1061213757610100808354040283529160200191612162565b820191906000526020600020905b81548152906001019060200180831161214557829003601f168201915b5050505050815260200160038201805461217b90613ed6565b80601f01602080910402602001604051908101604052809291908181526020018280546121a790613ed6565b80156121f45780601f106121c9576101008083540402835291602001916121f4565b820191906000526020600020905b8154815290600101906020018083116121d757829003601f168201915b50505050508152602001600482015481526020016005820160009054906101000a900473ffffffffffffffffffffffffffffffffffffffff1673ffffffffffffffffffffffffffffffffffffffff1673ffffffffffffffffffffffffffffffffffffffff16815260200160068201805461226d90613ed6565b80601f016020809104026020016040519081016040528092919081815260200182805461229990613ed6565b80156122e65780601f106122bb576101008083540402835291602001916122e6565b820191906000526020600020905b8154815290600101906020018083116122c957829003601f168201915b5050505050815250509050838160800151111561230c57806080015193508060a0015192505b50808061231890614426565b915050611fa6565b506000600960008373ffffffffffffffffffffffffffffffffffffffff1673ffffffffffffffffffffffffffffffffffffffff1681526020019081526020016000206040518060e00160405290816000820154815260200160018201805461238790613ed6565b80601f01602080910402602001604051908101604052809291908181526020018280546123b390613ed6565b80156124005780601f106123d557610100808354040283529160200191612400565b820191906000526020600020905b8154815290600101906020018083116123e357829003601f168201915b5050505050815260200160028201805461241990613ed6565b80601f016020809104026020016040519081016040528092919081815260200182805461244590613ed6565b80156124925780601f1061246757610100808354040283529160200191612492565b820191906000526020600020905b81548152906001019060200180831161247557829003601f168201915b505050505081526020016003820180546124ab90613ed6565b80601f01602080910402602001604051908101604052809291908181526020018280546124d790613ed6565b80156125245780601f106124f957610100808354040283529160200191612524565b820191906000526020600020905b81548152906001019060200180831161250757829003601f168201915b50505050508152602001600482015481526020016005820160009054906101000a900473ffffffffffffffffffffffffffffffffffffffff1673ffffffffffffffffffffffffffffffffffffffff1673ffffffffffffffffffffffffffffffffffffffff16815260200160068201805461259d90613ed6565b80601f01602080910402602001604051908101604052809291908181526020018280546125c990613ed6565b80156126165780601f106125eb57610100808354040283529160200191612616565b820191906000526020600020905b8154815290600101906020018083116125f957829003601f168201915b5050505050815250509050806000015181604001518260c00151955095509550505050909192565b600260009054906101000a900473ffffffffffffffffffffffffffffffffffffffff1681565b6003818154811061267457600080fd5b906000526020600020016000915054906101000a900473ffffffffffffffffffffffffffffffffffffffff1681565b600481815481106126b357600080fd5b906000526020600020016000915054906101000a900473ffffffffffffffffffffffffffffffffffffffff1681565b6000600480549050905090565b600060608060028081111561270757612706613b46565b5b600860009054906101000a900460ff16600281111561272957612728613b46565b5b14612769576040517f08c379a0000000000000000000000000000000000000000000000000000000008152600401612760906144e1565b60405180910390fd5b60008060005b600380549050811015612ae95760006009600060038481548110612796576127956143f7565b5b9060005260206000200160009054906101000a900473ffffffffffffffffffffffffffffffffffffffff1673ffffffffffffffffffffffffffffffffffffffff1673ffffffffffffffffffffffffffffffffffffffff1681526020019081526020016000206040518060e00160405290816000820154815260200160018201805461282090613ed6565b80601f016020809104026020016040519081016040528092919081815260200182805461284c90613ed6565b80156128995780601f1061286e57610100808354040283529160200191612899565b820191906000526020600020905b81548152906001019060200180831161287c57829003601f168201915b505050505081526020016002820180546128b290613ed6565b80601f01602080910402602001604051908101604052809291908181526020018280546128de90613ed6565b801561292b5780601f106129005761010080835404028352916020019161292b565b820191906000526020600020905b81548152906001019060200180831161290e57829003601f168201915b5050505050815260200160038201805461294490613ed6565b80601f016020809104026020016040519081016040528092919081815260200182805461297090613ed6565b80156129bd5780601f10612992576101008083540402835291602001916129bd565b820191906000526020600020905b8154815290600101906020018083116129a057829003601f168201915b50505050508152602001600482015481526020016005820160009054906101000a900473ffffffffffffffffffffffffffffffffffffffff1673ffffffffffffffffffffffffffffffffffffffff1673ffffffffffffffffffffffffffffffffffffffff168152602001600682018054612a3690613ed6565b80601f0160208091040260200160405190810160405280929190818152602001828054612a6290613ed6565b8015612aaf5780601f10612a8457610100808354040283529160200191612aaf565b820191906000526020600020905b815481529060010190602001808311612a9257829003601f168201915b50505050508152505090508381608001511115612ad557806080015193508060a0015192505b508080612ae190614426565b91505061276f565b506000600960008373ffffffffffffffffffffffffffffffffffffffff1673ffffffffffffffffffffffffffffffffffffffff1681526020019081526020016000206040518060e001604052908160008201548152602001600182018054612b5090613ed6565b80601f0160208091040260200160405190810160405280929190818152602001828054612b7c90613ed6565b8015612bc95780601f10612b9e57610100808354040283529160200191612bc9565b820191906000526020600020905b815481529060010190602001808311612bac57829003601f168201915b50505050508152602001600282018054612be290613ed6565b80601f0160208091040260200160405190810160405280929190818152602001828054612c0e90613ed6565b8015612c5b5780601f10612c3057610100808354040283529160200191612c5b565b820191906000526020600020905b815481529060010190602001808311612c3e57829003601f168201915b50505050508152602001600382018054612c7490613ed6565b80601f0160208091040260200160405190810160405280929190818152602001828054612ca090613ed6565b8015612ced5780601f10612cc257610100808354040283529160200191612ced565b820191906000526020600020905b815481529060010190602001808311612cd057829003601f168201915b50505050508152602001600482015481526020016005820160009054906101000a900473ffffffffffffffffffffffffffffffffffffffff1673ffffffffffffffffffffffffffffffffffffffff1673ffffffffffffffffffffffffffffffffffffffff168152602001600682018054612d6690613ed6565b80601f0160208091040260200160405190810160405280929190818152602001828054612d9290613ed6565b8015612ddf5780601f10612db457610100808354040283529160200191612ddf565b820191906000526020600020905b815481529060010190602001808311612dc257829003601f168201915b5050505050815250509050806000015181604001518260c00151955095509550505050909192565b3373ffffffffffffffffffffffffffffffffffffffff16600260009054906101000a900473ffffffffffffffffffffffffffffffffffffffff1673ffffffffffffffffffffffffffffffffffffffff1614612e97576040517f08c379a0000000000000000000000000000000000000000000000000000000008152600401612e8e90614573565b60405180910390fd5b600073ffffffffffffffffffffffffffffffffffffffff168173ffffffffffffffffffffffffffffffffffffffff161415612f07576040517f08c379a0000000000000000000000000000000000000000000000000000000008152600401612efe906145df565b60405180910390fd5b80600260006101000a81548173ffffffffffffffffffffffffffffffffffffffff021916908373ffffffffffffffffffffffffffffffffffffffff1602179055507f7ce7ec0b50378fb6c0186ffb5f48325f6593fcb4ca4386f21861af3129188f5c81604051612f779190613c1d565b60405180910390a150565b600260009054906101000a900473ffffffffffffffffffffffffffffffffffffffff1673ffffffffffffffffffffffffffffffffffffffff163373ffffffffffffffffffffffffffffffffffffffff1614613012576040517f08c379a000000000000000000000000000000000000000000000000000000000815260040161300990613cd7565b60405180910390fd5b6000600281111561302657613025613b46565b5b600860009054906101000a900460ff16600281111561304857613047613b46565b5b14613088576040517f08c379a000000000000000000000000000000000000000000000000000000000815260040161307f90613daf565b60405180910390fd5b60028081111561309b5761309a613b46565b5b600860009054906101000a900460ff1660028111156130bd576130bc613b46565b5b14156130fe576040517f08c379a00000000000000000000000000000000000000000000000000000000081526004016130f590613e1b565b60405180910390fd5b6001600860006101000a81548160ff0219169083600281111561312457613123613b46565b5b02179055504260068190555050565b60606000600380549050141561319457600067ffffffffffffffff81111561315e5761315d613465565b5b60405190808252806020026020018201604052801561318c5781602001602082028036833780820191505090505b50905061321e565b600380548060200260200160405190810160405280929190818152602001828054801561321657602002820191906000526020600020905b8160009054906101000a900473ffffffffffffffffffffffffffffffffffffffff1673ffffffffffffffffffffffffffffffffffffffff16815260200190600101908083116131cc575b505050505090505b90565b6001816000016000828254019250508190555050565b600081600001549050919050565b82805461325190613ed6565b90600052602060002090601f01602090048101928261327357600085556132ba565b82601f1061328c57805160ff19168380011785556132ba565b828001600101855582156132ba579182015b828111156132b957825182559160200191906001019061329e565b5b5090506132c791906132cb565b5090565b5b808211156132e45760008160009055506001016132cc565b5090565b6000604051905090565b600080fd5b600080fd5b600073ffffffffffffffffffffffffffffffffffffffff82169050919050565b6000613327826132fc565b9050919050565b6133378161331c565b811461334257600080fd5b50565b6000813590506133548161332e565b92915050565b6000602082840312156133705761336f6132f2565b5b600061337e84828501613345565b91505092915050565b60008115159050919050565b61339c81613387565b82525050565b60006020820190506133b76000830184613393565b92915050565b6133c681613387565b81146133d157600080fd5b50565b6000813590506133e3816133bd565b92915050565b6000602082840312156133ff576133fe6132f2565b5b600061340d848285016133d4565b91505092915050565b6000819050919050565b61342981613416565b82525050565b60006020820190506134446000830184613420565b92915050565b600080fd5b600080fd5b6000601f19601f8301169050919050565b7f4e487b7100000000000000000000000000000000000000000000000000000000600052604160045260246000fd5b61349d82613454565b810181811067ffffffffffffffff821117156134bc576134bb613465565b5b80604052505050565b60006134cf6132e8565b90506134db8282613494565b919050565b600067ffffffffffffffff8211156134fb576134fa613465565b5b61350482613454565b9050602081019050919050565b82818337600083830152505050565b600061353361352e846134e0565b6134c5565b90508281526020810184848401111561354f5761354e61344f565b5b61355a848285613511565b509392505050565b600082601f8301126135775761357661344a565b5b8135613587848260208601613520565b91505092915050565b600080600080608085870312156135aa576135a96132f2565b5b60006135b887828801613345565b945050602085013567ffffffffffffffff8111156135d9576135d86132f7565b5b6135e587828801613562565b935050604085013567ffffffffffffffff811115613606576136056132f7565b5b61361287828801613562565b925050606085013567ffffffffffffffff811115613633576136326132f7565b5b61363f87828801613562565b91505092959194509250565b600081519050919050565b600082825260208201905092915050565b60005b8381101561368557808201518184015260208101905061366a565b83811115613694576000848401525b50505050565b60006136a58261364b565b6136af8185613656565b93506136bf818560208601613667565b6136c881613454565b840191505092915050565b6136dc8161331c565b82525050565b600060e08201905081810360008301526136fc818a61369a565b90508181036020830152613710818961369a565b905061371f6040830188613420565b8181036060830152613731818761369a565b90506137406080830186613420565b81810360a0830152613752818561369a565b905061376160c08301846136d3565b98975050505050505050565b61377681613416565b811461378157600080fd5b50565b6000813590506137938161376d565b92915050565b600080604083850312156137b0576137af6132f2565b5b60006137be85828601613345565b92505060206137cf85828601613784565b9150509250929050565b600080600080600060a086880312156137f5576137f46132f2565b5b600061380388828901613345565b955050602086013567ffffffffffffffff811115613824576138236132f7565b5b61383088828901613562565b945050604086013567ffffffffffffffff811115613851576138506132f7565b5b61385d88828901613562565b935050606086013567ffffffffffffffff81111561387e5761387d6132f7565b5b61388a88828901613562565b925050608086013567ffffffffffffffff8111156138ab576138aa6132f7565b5b6138b788828901613562565b9150509295509295909350565b600060e0820190506138d9600083018a613420565b81810360208301526138eb818961369a565b905081810360408301526138ff818861369a565b90508181036060830152613913818761369a565b90506139226080830186613420565b61392f60a08301856136d3565b81810360c0830152613941818461369a565b905098975050505050505050565b600081519050919050565b600082825260208201905092915050565b6000819050602082019050919050565b6139848161331c565b82525050565b6000613996838361397b565b60208301905092915050565b6000602082019050919050565b60006139ba8261394f565b6139c4818561395a565b93506139cf8361396b565b8060005b83811015613a005781516139e7888261398a565b97506139f2836139a2565b9250506001810190506139d3565b5085935050505092915050565b60006020820190508181036000830152613a2781846139af565b905092915050565b600061010082019050613a45600083018b613420565b8181036020830152613a57818a61369a565b90508181036040830152613a6b818961369a565b9050613a7a60608301886136d3565b613a876080830187613420565b613a9460a0830186613393565b613aa160c0830185613420565b81810360e0830152613ab3818461369a565b90509998505050505050505050565b600060e082019050613ad7600083018a613420565b8181036020830152613ae9818961369a565b90508181036040830152613afd818861369a565b9050613b0c60608301876136d3565b8181036080830152613b1e818661369a565b9050613b2d60a0830185613420565b613b3a60c0830184613393565b98975050505050505050565b7f4e487b7100000000000000000000000000000000000000000000000000000000600052602160045260246000fd5b60038110613b8657613b85613b46565b5b50565b6000819050613b9782613b75565b919050565b6000613ba782613b89565b9050919050565b613bb781613b9c565b82525050565b6000602082019050613bd26000830184613bae565b92915050565b6000606082019050613bed6000830186613420565b8181036020830152613bff818561369a565b90508181036040830152613c13818461369a565b9050949350505050565b6000602082019050613c3260008301846136d3565b92915050565b600060208284031215613c4e57613c4d6132f2565b5b6000613c5c84828501613784565b91505092915050565b7f4f6e6c792074686520636f6e747261637420617574686f72697a65722063616e60008201527f2063616c6c20746869732066756e6374696f6e2e000000000000000000000000602082015250565b6000613cc1603483613656565b9150613ccc82613c65565b604082019050919050565b60006020820190508181036000830152613cf081613cb4565b9050919050565b7f456c656374696f6e20686173206e6f7420737461727465642100000000000000600082015250565b6000613d2d601983613656565b9150613d3882613cf7565b602082019050919050565b60006020820190508181036000830152613d5c81613d20565b9050919050565b7f456c656374696f6e2068617320616c726561647920737461727465642e000000600082015250565b6000613d99601d83613656565b9150613da482613d63565b602082019050919050565b60006020820190508181036000830152613dc881613d8c565b9050919050565b7f456c656374696f6e2068617320616c726561647920656e646564000000000000600082015250565b6000613e05601a83613656565b9150613e1082613dcf565b602082019050919050565b60006020820190508181036000830152613e3481613df8565b9050919050565b7f54686973206163636f756e7420616c7265616479206578697374730000000000600082015250565b6000613e71601b83613656565b9150613e7c82613e3b565b602082019050919050565b60006020820190508181036000830152613ea081613e64565b9050919050565b7f4e487b7100000000000000000000000000000000000000000000000000000000600052602260045260246000fd5b60006002820490506001821680613eee57607f821691505b60208210811415613f0257613f01613ea7565b5b50919050565b60008190508160005260206000209050919050565b60008154613f2a81613ed6565b613f348186613656565b94506001821660008114613f4f5760018114613f6157613f94565b60ff1983168652602086019350613f94565b613f6a85613f08565b60005b83811015613f8c57815481890152600182019150602081019050613f6d565b808801955050505b50505092915050565b600060e0820190508181036000830152613fb7818a61369a565b90508181036020830152613fcb818961369a565b9050613fda60408301886136d3565b613fe76060830187613420565b613ff46080830186613393565b61400160a0830185613420565b81810360c08301526140138184613f1d565b905098975050505050505050565b7f456c656374696f6e20686173206e6f7420656e6465642e000000000000000000600082015250565b6000614057601783613656565b915061406282614021565b602082019050919050565b600060208201905081810360008301526140868161404a565b9050919050565b7f456c656374696f6e20686173206e6f7420737461727465642e00000000000000600082015250565b60006140c3601983613656565b91506140ce8261408d565b602082019050919050565b600060208201905081810360008301526140f2816140b6565b9050919050565b7f596f752063616e277420766f74652074776963652e0000000000000000000000600082015250565b600061412f601583613656565b915061413a826140f9565b602082019050919050565b6000602082019050818103600083015261415e81614122565b9050919050565b7f596f7572206163636f756e742069736e27742072656769737465726564206f7260008201527f20617574686f72697a65642e0000000000000000000000000000000000000000602082015250565b60006141c1602c83613656565b91506141cc82614165565b604082019050919050565b600060208201905081810360008301526141f0816141b4565b9050919050565b7f4e487b7100000000000000000000000000000000000000000000000000000000600052601160045260246000fd5b600061423182613416565b915061423c83613416565b9250827fffffffffffffffffffffffffffffffffffffffffffffffffffffffffffffffff03821115614271576142706141f7565b5b828201905092915050565b7f43616e64696461746520616464726573732063616e6e6f74206265207a65726f600082015250565b60006142b2602083613656565b91506142bd8261427c565b602082019050919050565b600060208201905081810360008301526142e1816142a5565b9050919050565b600060c08201905081810360008301526143028189613f1d565b905081810360208301526143168188613f1d565b9050818103604083015261432a8187613f1d565b90506143396060830186613420565b61434660808301856136d3565b81810360a08301526143588184613f1d565b9050979650505050505050565b7f456c656374696f6e20686173206e6f742073746172746564206f72206861732060008201527f656e6465642e0000000000000000000000000000000000000000000000000000602082015250565b60006143c1602683613656565b91506143cc82614365565b604082019050919050565b600060208201905081810360008301526143f0816143b4565b9050919050565b7f4e487b7100000000000000000000000000000000000000000000000000000000600052603260045260246000fd5b600061443182613416565b91507fffffffffffffffffffffffffffffffffffffffffffffffffffffffffffffffff821415614464576144636141f7565b5b600182019050919050565b7f506c656173652c20776169742074696c6c2074686520656e64206f662074686560008201527f20656c656374696f6e0000000000000000000000000000000000000000000000602082015250565b60006144cb602983613656565b91506144d68261446f565b604082019050919050565b600060208201905081810360008301526144fa816144be565b9050919050565b7f596f7520617265206e6f7420616c6c6f77656420746f20706572666f726d207460008201527f686973206f7065726174696f6e00000000000000000000000000000000000000602082015250565b600061455d602d83613656565b915061456882614501565b604082019050919050565b6000602082019050818103600083015261458c81614550565b9050919050565b7f496e76616c696420416464726573730000000000000000000000000000000000600082015250565b60006145c9600f83613656565b91506145d482614593565b602082019050919050565b600060208201905081810360008301526145f8816145bc565b905091905056fea264697066735822122029d867c9372ffcfacda705ddac3aa84509a252e10581bb6c757c1dae6db1026064736f6c63430008090033",
  "linkReferences": {},
  "deployedLinkReferences": {}
}